{"contracts/factoryPosterityWallet.sol":{"PosterityWalletFactory":{"abi":[{"inputs":[],"stateMutability":"nonpayable","type":"constructor"},{"anonymous":false,"inputs":[{"indexed":true,"internalType":"address","name":"_owner","type":"address"},{"indexed":true,"internalType":"address","name":"_newWallet","type":"address"}],"name":"NewPosteriryWallet","type":"event"},{"inputs":[{"internalType":"address","name":"addressHeir","type":"address"},{"internalType":"address","name":"addressPosterityWallet","type":"address"}],"name":"deletePosterityWalletFromHeir","outputs":[],"stateMutability":"nonpayable","type":"function"},{"inputs":[{"internalType":"string","name":"taxID","type":"string"}],"name":"deploy","outputs":[],"stateMutability":"nonpayable","type":"function"},{"inputs":[{"internalType":"address","name":"userAddress","type":"address"}],"name":"getPosterityWallet","outputs":[{"internalType":"address","name":"","type":"address"}],"stateMutability":"view","type":"function"},{"inputs":[{"internalType":"address","name":"addressHeir","type":"address"}],"name":"getPosterityWalletsFromHeir","outputs":[{"internalType":"address[]","name":"","type":"address[]"}],"stateMutability":"view","type":"function"},{"inputs":[{"internalType":"address","name":"","type":"address"}],"name":"posterityWallets","outputs":[{"internalType":"address","name":"","type":"address"}],"stateMutability":"view","type":"function"},{"inputs":[{"internalType":"address","name":"","type":"address"},{"internalType":"uint256","name":"","type":"uint256"}],"name":"posterityWalletsFromHeir","outputs":[{"internalType":"address","name":"","type":"address"}],"stateMutability":"view","type":"function"},{"inputs":[{"internalType":"address","name":"","type":"address"},{"internalType":"address","name":"","type":"address"}],"name":"posterityWalletsIndexesFromHeir","outputs":[{"internalType":"uint256","name":"","type":"uint256"}],"stateMutability":"view","type":"function"},{"inputs":[{"internalType":"address","name":"addressHeir","type":"address"},{"internalType":"address","name":"addressPosterityWallet","type":"address"}],"name":"setPosterityWalletsFromHeir","outputs":[],"stateMutability":"nonpayable","type":"function"}],"evm":{"bytecode":{"linkReferences":{},"object":"608060405234801561001057600080fd5b50611999806100206000396000f3fe60806040523480156200001157600080fd5b5060043610620000935760003560e01c8063c76023161162000062578063c76023161462000191578063e7b6992b14620001a8578063e969ba2814620001bf578063fadb1aa814620001fc57600080fd5b806335dabbf514620000985780633ee90d8314620000c75780635dfc7ec4146200010c5780639e93c45c1462000125575b600080fd5b620000af620000a93660046200042e565b6200022b565b604051620000be919062000453565b60405180910390f35b620000f3620000d83660046200042e565b6000602081905290815260409020546001600160a01b031681565b6040516001600160a01b039091168152602001620000be565b620001236200011d366004620004a2565b620002a3565b005b6200012362000136366004620004a2565b6001600160a01b0391821660008181526001602081815260408084208054938401815580855282852090930180546001600160a01b031916969097169586179096559282525460028352848220938252929091529190912055565b62000123620001a2366004620004f0565b62000333565b620000f3620001b9366004620005ab565b620003ca565b620001ed620001d0366004620004a2565b600260209081526000928352604080842090915290825290205481565b604051908152602001620000be565b620000f36200020d3660046200042e565b6001600160a01b039081166000908152602081905260409020541690565b6001600160a01b0381166000908152600160209081526040918290208054835181840281018401909452808452606093928301828280156200029757602002820191906000526020600020905b81546001600160a01b0316815260019091019060200180831162000278575b50505050509050919050565b6001600160a01b0380831660009081526001602081815260408084206002835281852095871685529490915290912054620002df9190620005d8565b81548110620002f257620002f262000600565b6000918252602080832090910180546001600160a01b03191690556001600160a01b0393841682526002815260408083209390941682529190915290812055565b60008133604051620003459062000403565b6200035292919062000616565b604051809103906000f0801580156200036f573d6000803e3d6000fd5b503360008181526020819052604080822080546001600160a01b0319166001600160a01b0386169081179091559051939450927f5ccb19c2108f45669ddcecfcc0be7bf8c689b929b4824749e5f3b1943be436159190a35050565b60016020528160005260406000208181548110620003e757600080fd5b6000918252602090912001546001600160a01b03169150829050565b6112eb806200067983390190565b80356001600160a01b03811681146200042957600080fd5b919050565b6000602082840312156200044157600080fd5b6200044c8262000411565b9392505050565b6020808252825182820181905260009190848201906040850190845b81811015620004965783516001600160a01b0316835292840192918401916001016200046f565b50909695505050505050565b60008060408385031215620004b657600080fd5b620004c18362000411565b9150620004d16020840162000411565b90509250929050565b634e487b7160e01b600052604160045260246000fd5b6000602082840312156200050357600080fd5b813567ffffffffffffffff808211156200051c57600080fd5b818401915084601f8301126200053157600080fd5b813581811115620005465762000546620004da565b604051601f8201601f19908116603f01168101908382118183101715620005715762000571620004da565b816040528281528760208487010111156200058b57600080fd5b826020860160208301376000928101602001929092525095945050505050565b60008060408385031215620005bf57600080fd5b620005ca8362000411565b946020939093013593505050565b81810381811115620005fa57634e487b7160e01b600052601160045260246000fd5b92915050565b634e487b7160e01b600052603260045260246000fd5b604081526000835180604084015260005b8181101562000646576020818701810151606086840101520162000627565b50600060608285018101919091526001600160a01b03949094166020840152601f01601f19169091019091019291505056fe60806040819052600080546001600160a01b03191673e971f47ea676bab72f727cc1466dbc3cd245b55a1781556001805460ff60a01b19169055600355620012eb388190039081908339810160408190526200005b91620000cd565b600262000069838262000244565b50600480546001600160a01b039092166001600160a01b031992831617905560018054909116331790555062000310565b634e487b7160e01b600052604160045260246000fd5b80516001600160a01b0381168114620000c857600080fd5b919050565b60008060408385031215620000e157600080fd5b82516001600160401b0380821115620000f957600080fd5b818501915085601f8301126200010e57600080fd5b8151818111156200012357620001236200009a565b604051601f8201601f19908116603f011681019083821181831017156200014e576200014e6200009a565b816040528281526020935088848487010111156200016b57600080fd5b600091505b828210156200018f578482018401518183018501529083019062000170565b6000848483010152809650505050620001aa818601620000b0565b925050509250929050565b600181811c90821680620001ca57607f821691505b602082108103620001eb57634e487b7160e01b600052602260045260246000fd5b50919050565b601f8211156200023f57600081815260208120601f850160051c810160208610156200021a5750805b601f850160051c820191505b818110156200023b5782815560010162000226565b5050505b505050565b81516001600160401b038111156200026057620002606200009a565b6200027881620002718454620001b5565b84620001f1565b602080601f831160018114620002b05760008415620002975750858301515b600019600386901b1c1916600185901b1785556200023b565b600085815260208120601f198616915b82811015620002e157888601518255948401946001909101908401620002c0565b5085821015620003005787850151600019600388901b60f8161c191681555b5050505050600190811b01905550565b610fcb80620003206000396000f3fe6080604052600436106100aa5760003560e01c80638f779201116100645780638f779201146101f1578063a1e32d4214610215578063a42cacd914610237578063a5636a3414610257578063b69ef8a81461026c578063c268317b1461028257600080fd5b8062f714ce146100e957806347c89ec6146101095780634eae51f41461011e57806365e6aca414610149578063789b4639146101885780638da5cb5b146101b957600080fd5b366100e457600154600160a01b900460ff16156100e25760405162461bcd60e51b81526004016100d990610be3565b60405180910390fd5b005b600080fd5b3480156100f557600080fd5b506100e2610104366004610c45565b610298565b34801561011557600080fd5b506100e26103cd565b34801561012a57600080fd5b50610133610451565b6040516101409190610c75565b60405180910390f35b34801561015557600080fd5b50610169610164366004610ccd565b6104c6565b604080516001600160a01b039093168352602083019190915201610140565b34801561019457600080fd5b506001546101a990600160a01b900460ff1681565b6040519015158152602001610140565b3480156101c557600080fd5b506004546101d9906001600160a01b031681565b6040516001600160a01b039091168152602001610140565b3480156101fd57600080fd5b5061020760055481565b604051908152602001610140565b34801561022157600080fd5b5061022a6104fe565b6040516101409190610d0a565b34801561024357600080fd5b506100e2610252366004610d3d565b610590565b34801561026357600080fd5b506100e261093c565b34801561027857600080fd5b5061020760065481565b34801561028e57600080fd5b5061020760035481565b6004546001600160a01b031633146102f25760405162461bcd60e51b815260206004820181905260248201527f4f776e61626c653a2063616c6c6572206973206e6f7420746865206f776e657260448201526064016100d9565b478211156103685760405162461bcd60e51b815260206004820152603a60248201527f546865207769746864726177616c20616d6f756e74206973206772656174657260448201527f207468616e2074686520436f6e74726163742062616c616e636500000000000060648201526084016100d9565b600154600160a01b900460ff16156103925760405162461bcd60e51b81526004016100d990610be3565b6040516001600160a01b0382169083156108fc029084906000818181858888f193505050501580156103c8573d6000803e3d6000fd5b505050565b60006103d76104fe565b6000546040516380e6b20f60e01b81529192506001600160a01b0316906380e6b20f90610408908490600401610d0a565b6020604051808303816000875af1158015610427573d6000803e3d6000fd5b505050506040513d601f19601f8201168201806040525081019061044b9190610db2565b60055550565b60606007805480602002602001604051908101604052809291908181526020016000905b828210156104bd576000848152602090819020604080518082019091526002850290910180546001600160a01b03168252600190810154828401529083529092019101610475565b50505050905090565b600781815481106104d657600080fd5b6000918252602090912060029091020180546001909101546001600160a01b03909116915082565b60606002805461050d90610dcb565b80601f016020809104026020016040519081016040528092919081815260200182805461053990610dcb565b80156105865780601f1061055b57610100808354040283529160200191610586565b820191906000526020600020905b81548152906001019060200180831161056957829003601f168201915b5050505050905090565b6004546001600160a01b031633146105ea5760405162461bcd60e51b815260206004820181905260248201527f4f776e61626c653a2063616c6c6572206973206e6f7420746865206f776e657260448201526064016100d9565b600060038190555b8181101561063f5782828281811061060c5761060c610e05565b90506040020160200135600360008282546106279190610e31565b9091555081905061063781610e4a565b9150506105f2565b506063600354101580156106565750606460035411155b6106b15760405162461bcd60e51b815260206004820152602660248201527f596f75206e65656420746f20636f6d706c657465203130302520646973747269604482015265313aba34b7b760d11b60648201526084016100d9565b60005b6007548110156107b05760086000600783815481106106d5576106d5610e05565b600091825260208083206002909202909101546001600160a01b0390811684529083019390935260409091019020805460ff19169055600154600780549190921691635dfc7ec4918490811061072d5761072d610e05565b600091825260209091206002909102015460405160e083901b6001600160e01b03191681526001600160a01b039091166004820152306024820152604401600060405180830381600087803b15801561078557600080fd5b505af1158015610799573d6000803e3d6000fd5b5050505080806107a890610e4a565b9150506106b4565b506107bd60076000610b95565b60005b818110156103c8578282828181106107da576107da610e05565b90506040020160200135600360008282546107f59190610e31565b909155506007905083838381811061080f5761080f610e05565b83546001810185556000948552602090942060409091029290920192600202909101905061083d8282610e63565b50506001600860006007848154811061085857610858610e05565b60009182526020808320600292909202909101546001600160a01b0390811684529083019390935260409091019020805460ff191692151592909217909155600154600780549190921691639e93c45c91849081106108b9576108b9610e05565b600091825260209091206002909102015460405160e083901b6001600160e01b03191681526001600160a01b039091166004820152306024820152604401600060405180830381600087803b15801561091157600080fd5b505af1158015610925573d6000803e3d6000fd5b50505050808061093490610e4a565b9150506107c0565b600154600160a01b900460ff16156109a25760405162461bcd60e51b815260206004820152602360248201527f546869732073756363657373696f6e2068617320616c726561647920737461726044820152621d195960ea1b60648201526084016100d9565b60008054600554604051634c6b25b160e01b81526001600160a01b0390921691634c6b25b1916109d89160040190815260200190565b600060405180830381865afa1580156109f5573d6000803e3d6000fd5b505050506040513d6000823e601f3d908101601f19168201604052610a1d9190810190610eaf565b60408051808201909152600981526843616e63656c61646160b81b602080830191909152825190830120919250907f280fc0a57a2ba220425265cbd3e41f291af6a7ed7f6b84407654150f6f383df014610ab95760405162461bcd60e51b815260206004820152601860248201527f556e61626c6520746f2073746172742070726f746f636f6c000000000000000060448201526064016100d9565b6001805460ff60a01b1916600160a01b179055610ad4610ad8565b5050565b476006556000805b600754811015610ad457606460078281548110610aff57610aff610e05565b906000526020600020906002020160010154600654610b1e9190610f5c565b610b289190610f73565b915060078181548110610b3d57610b3d610e05565b600091825260208220600290910201546040516001600160a01b039091169184156108fc02918591818181858888f19350505050158015610b82573d6000803e3d6000fd5b5080610b8d81610e4a565b915050610ae0565b5080546000825560020290600052602060002090810190610bb69190610bb9565b50565b5b80821115610bdf5780546001600160a01b031916815560006001820155600201610bba565b5090565b6020808252602d908201527f506f737465726974792053756363657373696f6e2068617320616c726561647960408201526c081899595b881cdd185c9d1959609a1b606082015260800190565b6001600160a01b0381168114610bb657600080fd5b60008060408385031215610c5857600080fd5b823591506020830135610c6a81610c30565b809150509250929050565b602080825282518282018190526000919060409081850190868401855b82811015610cc057815180516001600160a01b03168552860151868501529284019290850190600101610c92565b5091979650505050505050565b600060208284031215610cdf57600080fd5b5035919050565b60005b83811015610d01578181015183820152602001610ce9565b50506000910152565b6020815260008251806020840152610d29816040850160208701610ce6565b601f01601f19169190910160400192915050565b60008060208385031215610d5057600080fd5b823567ffffffffffffffff80821115610d6857600080fd5b818501915085601f830112610d7c57600080fd5b813581811115610d8b57600080fd5b8660208260061b8501011115610da057600080fd5b60209290920196919550909350505050565b600060208284031215610dc457600080fd5b5051919050565b600181811c90821680610ddf57607f821691505b602082108103610dff57634e487b7160e01b600052602260045260246000fd5b50919050565b634e487b7160e01b600052603260045260246000fd5b634e487b7160e01b600052601160045260246000fd5b80820180821115610e4457610e44610e1b565b92915050565b600060018201610e5c57610e5c610e1b565b5060010190565b8135610e6e81610c30565b81546001600160a01b0319166001600160a01b03919091161781556020919091013560019190910155565b634e487b7160e01b600052604160045260246000fd5b600060208284031215610ec157600080fd5b815167ffffffffffffffff80821115610ed957600080fd5b818401915084601f830112610eed57600080fd5b815181811115610eff57610eff610e99565b604051601f8201601f19908116603f01168101908382118183101715610f2757610f27610e99565b81604052828152876020848701011115610f4057600080fd5b610f51836020830160208801610ce6565b979650505050505050565b8082028115828204841417610e4457610e44610e1b565b600082610f9057634e487b7160e01b600052601260045260246000fd5b50049056fea2646970667358221220d3e603c6e0526f9c2e6835f3b9ea47a4ead0936fa3611aec65282a12804736a164736f6c63430008110033a2646970667358221220f992ae4d9242e120a1fab0a2d4096bbbb79eba47a68016619226532d214afca064736f6c63430008110033","opcodes":"PUSH1 0x80 PUSH1 0x40 MSTORE CALLVALUE DUP1 ISZERO PUSH2 0x10 JUMPI PUSH1 0x0 DUP1 REVERT JUMPDEST POP PUSH2 0x1999 DUP1 PUSH2 0x20 PUSH1 0x0 CODECOPY PUSH1 0x0 RETURN INVALID PUSH1 0x80 PUSH1 0x40 MSTORE CALLVALUE DUP1 ISZERO PUSH3 0x11 JUMPI PUSH1 0x0 DUP1 REVERT JUMPDEST POP PUSH1 0x4 CALLDATASIZE LT PUSH3 0x93 JUMPI PUSH1 0x0 CALLDATALOAD PUSH1 0xE0 SHR DUP1 PUSH4 0xC7602316 GT PUSH3 0x62 JUMPI DUP1 PUSH4 0xC7602316 EQ PUSH3 0x191 JUMPI DUP1 PUSH4 0xE7B6992B EQ PUSH3 0x1A8 JUMPI DUP1 PUSH4 0xE969BA28 EQ PUSH3 0x1BF JUMPI DUP1 PUSH4 0xFADB1AA8 EQ PUSH3 0x1FC JUMPI PUSH1 0x0 DUP1 REVERT JUMPDEST DUP1 PUSH4 0x35DABBF5 EQ PUSH3 0x98 JUMPI DUP1 PUSH4 0x3EE90D83 EQ PUSH3 0xC7 JUMPI DUP1 PUSH4 0x5DFC7EC4 EQ PUSH3 0x10C JUMPI DUP1 PUSH4 0x9E93C45C EQ PUSH3 0x125 JUMPI JUMPDEST PUSH1 0x0 DUP1 REVERT JUMPDEST PUSH3 0xAF PUSH3 0xA9 CALLDATASIZE PUSH1 0x4 PUSH3 0x42E JUMP JUMPDEST PUSH3 0x22B JUMP JUMPDEST PUSH1 0x40 MLOAD PUSH3 0xBE SWAP2 SWAP1 PUSH3 0x453 JUMP JUMPDEST PUSH1 0x40 MLOAD DUP1 SWAP2 SUB SWAP1 RETURN JUMPDEST PUSH3 0xF3 PUSH3 0xD8 CALLDATASIZE PUSH1 0x4 PUSH3 0x42E JUMP JUMPDEST PUSH1 0x0 PUSH1 0x20 DUP2 SWAP1 MSTORE SWAP1 DUP2 MSTORE PUSH1 0x40 SWAP1 KECCAK256 SLOAD PUSH1 0x1 PUSH1 0x1 PUSH1 0xA0 SHL SUB AND DUP2 JUMP JUMPDEST PUSH1 0x40 MLOAD PUSH1 0x1 PUSH1 0x1 PUSH1 0xA0 SHL SUB SWAP1 SWAP2 AND DUP2 MSTORE PUSH1 0x20 ADD PUSH3 0xBE JUMP JUMPDEST PUSH3 0x123 PUSH3 0x11D CALLDATASIZE PUSH1 0x4 PUSH3 0x4A2 JUMP JUMPDEST PUSH3 0x2A3 JUMP JUMPDEST STOP JUMPDEST PUSH3 0x123 PUSH3 0x136 CALLDATASIZE PUSH1 0x4 PUSH3 0x4A2 JUMP JUMPDEST PUSH1 0x1 PUSH1 0x1 PUSH1 0xA0 SHL SUB SWAP2 DUP3 AND PUSH1 0x0 DUP2 DUP2 MSTORE PUSH1 0x1 PUSH1 0x20 DUP2 DUP2 MSTORE PUSH1 0x40 DUP1 DUP5 KECCAK256 DUP1 SLOAD SWAP4 DUP5 ADD DUP2 SSTORE DUP1 DUP6 MSTORE DUP3 DUP6 KECCAK256 SWAP1 SWAP4 ADD DUP1 SLOAD PUSH1 0x1 PUSH1 0x1 PUSH1 0xA0 SHL SUB NOT AND SWAP7 SWAP1 SWAP8 AND SWAP6 DUP7 OR SWAP1 SWAP7 SSTORE SWAP3 DUP3 MSTORE SLOAD PUSH1 0x2 DUP4 MSTORE DUP5 DUP3 KECCAK256 SWAP4 DUP3 MSTORE SWAP3 SWAP1 SWAP2 MSTORE SWAP2 SWAP1 SWAP2 KECCAK256 SSTORE JUMP JUMPDEST PUSH3 0x123 PUSH3 0x1A2 CALLDATASIZE PUSH1 0x4 PUSH3 0x4F0 JUMP JUMPDEST PUSH3 0x333 JUMP JUMPDEST PUSH3 0xF3 PUSH3 0x1B9 CALLDATASIZE PUSH1 0x4 PUSH3 0x5AB JUMP JUMPDEST PUSH3 0x3CA JUMP JUMPDEST PUSH3 0x1ED PUSH3 0x1D0 CALLDATASIZE PUSH1 0x4 PUSH3 0x4A2 JUMP JUMPDEST PUSH1 0x2 PUSH1 0x20 SWAP1 DUP2 MSTORE PUSH1 0x0 SWAP3 DUP4 MSTORE PUSH1 0x40 DUP1 DUP5 KECCAK256 SWAP1 SWAP2 MSTORE SWAP1 DUP3 MSTORE SWAP1 KECCAK256 SLOAD DUP2 JUMP JUMPDEST PUSH1 0x40 MLOAD SWAP1 DUP2 MSTORE PUSH1 0x20 ADD PUSH3 0xBE JUMP JUMPDEST PUSH3 0xF3 PUSH3 0x20D CALLDATASIZE PUSH1 0x4 PUSH3 0x42E JUMP JUMPDEST PUSH1 0x1 PUSH1 0x1 PUSH1 0xA0 SHL SUB SWAP1 DUP2 AND PUSH1 0x0 SWAP1 DUP2 MSTORE PUSH1 0x20 DUP2 SWAP1 MSTORE PUSH1 0x40 SWAP1 KECCAK256 SLOAD AND SWAP1 JUMP JUMPDEST PUSH1 0x1 PUSH1 0x1 PUSH1 0xA0 SHL SUB DUP2 AND PUSH1 0x0 SWAP1 DUP2 MSTORE PUSH1 0x1 PUSH1 0x20 SWAP1 DUP2 MSTORE PUSH1 0x40 SWAP2 DUP3 SWAP1 KECCAK256 DUP1 SLOAD DUP4 MLOAD DUP2 DUP5 MUL DUP2 ADD DUP5 ADD SWAP1 SWAP5 MSTORE DUP1 DUP5 MSTORE PUSH1 0x60 SWAP4 SWAP3 DUP4 ADD DUP3 DUP3 DUP1 ISZERO PUSH3 0x297 JUMPI PUSH1 0x20 MUL DUP3 ADD SWAP2 SWAP1 PUSH1 0x0 MSTORE PUSH1 0x20 PUSH1 0x0 KECCAK256 SWAP1 JUMPDEST DUP2 SLOAD PUSH1 0x1 PUSH1 0x1 PUSH1 0xA0 SHL SUB AND DUP2 MSTORE PUSH1 0x1 SWAP1 SWAP2 ADD SWAP1 PUSH1 0x20 ADD DUP1 DUP4 GT PUSH3 0x278 JUMPI JUMPDEST POP POP POP POP POP SWAP1 POP SWAP2 SWAP1 POP JUMP JUMPDEST PUSH1 0x1 PUSH1 0x1 PUSH1 0xA0 SHL SUB DUP1 DUP4 AND PUSH1 0x0 SWAP1 DUP2 MSTORE PUSH1 0x1 PUSH1 0x20 DUP2 DUP2 MSTORE PUSH1 0x40 DUP1 DUP5 KECCAK256 PUSH1 0x2 DUP4 MSTORE DUP2 DUP6 KECCAK256 SWAP6 DUP8 AND DUP6 MSTORE SWAP5 SWAP1 SWAP2 MSTORE SWAP1 SWAP2 KECCAK256 SLOAD PUSH3 0x2DF SWAP2 SWAP1 PUSH3 0x5D8 JUMP JUMPDEST DUP2 SLOAD DUP2 LT PUSH3 0x2F2 JUMPI PUSH3 0x2F2 PUSH3 0x600 JUMP JUMPDEST PUSH1 0x0 SWAP2 DUP3 MSTORE PUSH1 0x20 DUP1 DUP4 KECCAK256 SWAP1 SWAP2 ADD DUP1 SLOAD PUSH1 0x1 PUSH1 0x1 PUSH1 0xA0 SHL SUB NOT AND SWAP1 SSTORE PUSH1 0x1 PUSH1 0x1 PUSH1 0xA0 SHL SUB SWAP4 DUP5 AND DUP3 MSTORE PUSH1 0x2 DUP2 MSTORE PUSH1 0x40 DUP1 DUP4 KECCAK256 SWAP4 SWAP1 SWAP5 AND DUP3 MSTORE SWAP2 SWAP1 SWAP2 MSTORE SWAP1 DUP2 KECCAK256 SSTORE JUMP JUMPDEST PUSH1 0x0 DUP2 CALLER PUSH1 0x40 MLOAD PUSH3 0x345 SWAP1 PUSH3 0x403 JUMP JUMPDEST PUSH3 0x352 SWAP3 SWAP2 SWAP1 PUSH3 0x616 JUMP JUMPDEST PUSH1 0x40 MLOAD DUP1 SWAP2 SUB SWAP1 PUSH1 0x0 CREATE DUP1 ISZERO DUP1 ISZERO PUSH3 0x36F JUMPI RETURNDATASIZE PUSH1 0x0 DUP1 RETURNDATACOPY RETURNDATASIZE PUSH1 0x0 REVERT JUMPDEST POP CALLER PUSH1 0x0 DUP2 DUP2 MSTORE PUSH1 0x20 DUP2 SWAP1 MSTORE PUSH1 0x40 DUP1 DUP3 KECCAK256 DUP1 SLOAD PUSH1 0x1 PUSH1 0x1 PUSH1 0xA0 SHL SUB NOT AND PUSH1 0x1 PUSH1 0x1 PUSH1 0xA0 SHL SUB DUP7 AND SWAP1 DUP2 OR SWAP1 SWAP2 SSTORE SWAP1 MLOAD SWAP4 SWAP5 POP SWAP3 PUSH32 0x5CCB19C2108F45669DDCECFCC0BE7BF8C689B929B4824749E5F3B1943BE43615 SWAP2 SWAP1 LOG3 POP POP JUMP JUMPDEST PUSH1 0x1 PUSH1 0x20 MSTORE DUP2 PUSH1 0x0 MSTORE PUSH1 0x40 PUSH1 0x0 KECCAK256 DUP2 DUP2 SLOAD DUP2 LT PUSH3 0x3E7 JUMPI PUSH1 0x0 DUP1 REVERT JUMPDEST PUSH1 0x0 SWAP2 DUP3 MSTORE PUSH1 0x20 SWAP1 SWAP2 KECCAK256 ADD SLOAD PUSH1 0x1 PUSH1 0x1 PUSH1 0xA0 SHL SUB AND SWAP2 POP DUP3 SWAP1 POP JUMP JUMPDEST PUSH2 0x12EB DUP1 PUSH3 0x679 DUP4 CODECOPY ADD SWAP1 JUMP JUMPDEST DUP1 CALLDATALOAD PUSH1 0x1 PUSH1 0x1 PUSH1 0xA0 SHL SUB DUP2 AND DUP2 EQ PUSH3 0x429 JUMPI PUSH1 0x0 DUP1 REVERT JUMPDEST SWAP2 SWAP1 POP JUMP JUMPDEST PUSH1 0x0 PUSH1 0x20 DUP3 DUP5 SUB SLT ISZERO PUSH3 0x441 JUMPI PUSH1 0x0 DUP1 REVERT JUMPDEST PUSH3 0x44C DUP3 PUSH3 0x411 JUMP JUMPDEST SWAP4 SWAP3 POP POP POP JUMP JUMPDEST PUSH1 0x20 DUP1 DUP3 MSTORE DUP3 MLOAD DUP3 DUP3 ADD DUP2 SWAP1 MSTORE PUSH1 0x0 SWAP2 SWAP1 DUP5 DUP3 ADD SWAP1 PUSH1 0x40 DUP6 ADD SWAP1 DUP5 JUMPDEST DUP2 DUP2 LT ISZERO PUSH3 0x496 JUMPI DUP4 MLOAD PUSH1 0x1 PUSH1 0x1 PUSH1 0xA0 SHL SUB AND DUP4 MSTORE SWAP3 DUP5 ADD SWAP3 SWAP2 DUP5 ADD SWAP2 PUSH1 0x1 ADD PUSH3 0x46F JUMP JUMPDEST POP SWAP1 SWAP7 SWAP6 POP POP POP POP POP POP JUMP JUMPDEST PUSH1 0x0 DUP1 PUSH1 0x40 DUP4 DUP6 SUB SLT ISZERO PUSH3 0x4B6 JUMPI PUSH1 0x0 DUP1 REVERT JUMPDEST PUSH3 0x4C1 DUP4 PUSH3 0x411 JUMP JUMPDEST SWAP2 POP PUSH3 0x4D1 PUSH1 0x20 DUP5 ADD PUSH3 0x411 JUMP JUMPDEST SWAP1 POP SWAP3 POP SWAP3 SWAP1 POP JUMP JUMPDEST PUSH4 0x4E487B71 PUSH1 0xE0 SHL PUSH1 0x0 MSTORE PUSH1 0x41 PUSH1 0x4 MSTORE PUSH1 0x24 PUSH1 0x0 REVERT JUMPDEST PUSH1 0x0 PUSH1 0x20 DUP3 DUP5 SUB SLT ISZERO PUSH3 0x503 JUMPI PUSH1 0x0 DUP1 REVERT JUMPDEST DUP2 CALLDATALOAD PUSH8 0xFFFFFFFFFFFFFFFF DUP1 DUP3 GT ISZERO PUSH3 0x51C JUMPI PUSH1 0x0 DUP1 REVERT JUMPDEST DUP2 DUP5 ADD SWAP2 POP DUP5 PUSH1 0x1F DUP4 ADD SLT PUSH3 0x531 JUMPI PUSH1 0x0 DUP1 REVERT JUMPDEST DUP2 CALLDATALOAD DUP2 DUP2 GT ISZERO PUSH3 0x546 JUMPI PUSH3 0x546 PUSH3 0x4DA JUMP JUMPDEST PUSH1 0x40 MLOAD PUSH1 0x1F DUP3 ADD PUSH1 0x1F NOT SWAP1 DUP2 AND PUSH1 0x3F ADD AND DUP2 ADD SWAP1 DUP4 DUP3 GT DUP2 DUP4 LT OR ISZERO PUSH3 0x571 JUMPI PUSH3 0x571 PUSH3 0x4DA JUMP JUMPDEST DUP2 PUSH1 0x40 MSTORE DUP3 DUP2 MSTORE DUP8 PUSH1 0x20 DUP5 DUP8 ADD ADD GT ISZERO PUSH3 0x58B JUMPI PUSH1 0x0 DUP1 REVERT JUMPDEST DUP3 PUSH1 0x20 DUP7 ADD PUSH1 0x20 DUP4 ADD CALLDATACOPY PUSH1 0x0 SWAP3 DUP2 ADD PUSH1 0x20 ADD SWAP3 SWAP1 SWAP3 MSTORE POP SWAP6 SWAP5 POP POP POP POP POP JUMP JUMPDEST PUSH1 0x0 DUP1 PUSH1 0x40 DUP4 DUP6 SUB SLT ISZERO PUSH3 0x5BF JUMPI PUSH1 0x0 DUP1 REVERT JUMPDEST PUSH3 0x5CA DUP4 PUSH3 0x411 JUMP JUMPDEST SWAP5 PUSH1 0x20 SWAP4 SWAP1 SWAP4 ADD CALLDATALOAD SWAP4 POP POP POP JUMP JUMPDEST DUP2 DUP2 SUB DUP2 DUP2 GT ISZERO PUSH3 0x5FA JUMPI PUSH4 0x4E487B71 PUSH1 0xE0 SHL PUSH1 0x0 MSTORE PUSH1 0x11 PUSH1 0x4 MSTORE PUSH1 0x24 PUSH1 0x0 REVERT JUMPDEST SWAP3 SWAP2 POP POP JUMP JUMPDEST PUSH4 0x4E487B71 PUSH1 0xE0 SHL PUSH1 0x0 MSTORE PUSH1 0x32 PUSH1 0x4 MSTORE PUSH1 0x24 PUSH1 0x0 REVERT JUMPDEST PUSH1 0x40 DUP2 MSTORE PUSH1 0x0 DUP4 MLOAD DUP1 PUSH1 0x40 DUP5 ADD MSTORE PUSH1 0x0 JUMPDEST DUP2 DUP2 LT ISZERO PUSH3 0x646 JUMPI PUSH1 0x20 DUP2 DUP8 ADD DUP2 ADD MLOAD PUSH1 0x60 DUP7 DUP5 ADD ADD MSTORE ADD PUSH3 0x627 JUMP JUMPDEST POP PUSH1 0x0 PUSH1 0x60 DUP3 DUP6 ADD DUP2 ADD SWAP2 SWAP1 SWAP2 MSTORE PUSH1 0x1 PUSH1 0x1 PUSH1 0xA0 SHL SUB SWAP5 SWAP1 SWAP5 AND PUSH1 0x20 DUP5 ADD MSTORE PUSH1 0x1F ADD PUSH1 0x1F NOT AND SWAP1 SWAP2 ADD SWAP1 SWAP2 ADD SWAP3 SWAP2 POP POP JUMP INVALID PUSH1 0x80 PUSH1 0x40 DUP2 SWAP1 MSTORE PUSH1 0x0 DUP1 SLOAD PUSH1 0x1 PUSH1 0x1 PUSH1 0xA0 SHL SUB NOT AND PUSH20 0xE971F47EA676BAB72F727CC1466DBC3CD245B55A OR DUP2 SSTORE PUSH1 0x1 DUP1 SLOAD PUSH1 0xFF PUSH1 0xA0 SHL NOT AND SWAP1 SSTORE PUSH1 0x3 SSTORE PUSH3 0x12EB CODESIZE DUP2 SWAP1 SUB SWAP1 DUP2 SWAP1 DUP4 CODECOPY DUP2 ADD PUSH1 0x40 DUP2 SWAP1 MSTORE PUSH3 0x5B SWAP2 PUSH3 0xCD JUMP JUMPDEST PUSH1 0x2 PUSH3 0x69 DUP4 DUP3 PUSH3 0x244 JUMP JUMPDEST POP PUSH1 0x4 DUP1 SLOAD PUSH1 0x1 PUSH1 0x1 PUSH1 0xA0 SHL SUB SWAP1 SWAP3 AND PUSH1 0x1 PUSH1 0x1 PUSH1 0xA0 SHL SUB NOT SWAP3 DUP4 AND OR SWAP1 SSTORE PUSH1 0x1 DUP1 SLOAD SWAP1 SWAP2 AND CALLER OR SWAP1 SSTORE POP PUSH3 0x310 JUMP JUMPDEST PUSH4 0x4E487B71 PUSH1 0xE0 SHL PUSH1 0x0 MSTORE PUSH1 0x41 PUSH1 0x4 MSTORE PUSH1 0x24 PUSH1 0x0 REVERT JUMPDEST DUP1 MLOAD PUSH1 0x1 PUSH1 0x1 PUSH1 0xA0 SHL SUB DUP2 AND DUP2 EQ PUSH3 0xC8 JUMPI PUSH1 0x0 DUP1 REVERT JUMPDEST SWAP2 SWAP1 POP JUMP JUMPDEST PUSH1 0x0 DUP1 PUSH1 0x40 DUP4 DUP6 SUB SLT ISZERO PUSH3 0xE1 JUMPI PUSH1 0x0 DUP1 REVERT JUMPDEST DUP3 MLOAD PUSH1 0x1 PUSH1 0x1 PUSH1 0x40 SHL SUB DUP1 DUP3 GT ISZERO PUSH3 0xF9 JUMPI PUSH1 0x0 DUP1 REVERT JUMPDEST DUP2 DUP6 ADD SWAP2 POP DUP6 PUSH1 0x1F DUP4 ADD SLT PUSH3 0x10E JUMPI PUSH1 0x0 DUP1 REVERT JUMPDEST DUP2 MLOAD DUP2 DUP2 GT ISZERO PUSH3 0x123 JUMPI PUSH3 0x123 PUSH3 0x9A JUMP JUMPDEST PUSH1 0x40 MLOAD PUSH1 0x1F DUP3 ADD PUSH1 0x1F NOT SWAP1 DUP2 AND PUSH1 0x3F ADD AND DUP2 ADD SWAP1 DUP4 DUP3 GT DUP2 DUP4 LT OR ISZERO PUSH3 0x14E JUMPI PUSH3 0x14E PUSH3 0x9A JUMP JUMPDEST DUP2 PUSH1 0x40 MSTORE DUP3 DUP2 MSTORE PUSH1 0x20 SWAP4 POP DUP9 DUP5 DUP5 DUP8 ADD ADD GT ISZERO PUSH3 0x16B JUMPI PUSH1 0x0 DUP1 REVERT JUMPDEST PUSH1 0x0 SWAP2 POP JUMPDEST DUP3 DUP3 LT ISZERO PUSH3 0x18F JUMPI DUP5 DUP3 ADD DUP5 ADD MLOAD DUP2 DUP4 ADD DUP6 ADD MSTORE SWAP1 DUP4 ADD SWAP1 PUSH3 0x170 JUMP JUMPDEST PUSH1 0x0 DUP5 DUP5 DUP4 ADD ADD MSTORE DUP1 SWAP7 POP POP POP POP PUSH3 0x1AA DUP2 DUP7 ADD PUSH3 0xB0 JUMP JUMPDEST SWAP3 POP POP POP SWAP3 POP SWAP3 SWAP1 POP JUMP JUMPDEST PUSH1 0x1 DUP2 DUP2 SHR SWAP1 DUP3 AND DUP1 PUSH3 0x1CA JUMPI PUSH1 0x7F DUP3 AND SWAP2 POP JUMPDEST PUSH1 0x20 DUP3 LT DUP2 SUB PUSH3 0x1EB JUMPI PUSH4 0x4E487B71 PUSH1 0xE0 SHL PUSH1 0x0 MSTORE PUSH1 0x22 PUSH1 0x4 MSTORE PUSH1 0x24 PUSH1 0x0 REVERT JUMPDEST POP SWAP2 SWAP1 POP JUMP JUMPDEST PUSH1 0x1F DUP3 GT ISZERO PUSH3 0x23F JUMPI PUSH1 0x0 DUP2 DUP2 MSTORE PUSH1 0x20 DUP2 KECCAK256 PUSH1 0x1F DUP6 ADD PUSH1 0x5 SHR DUP2 ADD PUSH1 0x20 DUP7 LT ISZERO PUSH3 0x21A JUMPI POP DUP1 JUMPDEST PUSH1 0x1F DUP6 ADD PUSH1 0x5 SHR DUP3 ADD SWAP2 POP JUMPDEST DUP2 DUP2 LT ISZERO PUSH3 0x23B JUMPI DUP3 DUP2 SSTORE PUSH1 0x1 ADD PUSH3 0x226 JUMP JUMPDEST POP POP POP JUMPDEST POP POP POP JUMP JUMPDEST DUP2 MLOAD PUSH1 0x1 PUSH1 0x1 PUSH1 0x40 SHL SUB DUP2 GT ISZERO PUSH3 0x260 JUMPI PUSH3 0x260 PUSH3 0x9A JUMP JUMPDEST PUSH3 0x278 DUP2 PUSH3 0x271 DUP5 SLOAD PUSH3 0x1B5 JUMP JUMPDEST DUP5 PUSH3 0x1F1 JUMP JUMPDEST PUSH1 0x20 DUP1 PUSH1 0x1F DUP4 GT PUSH1 0x1 DUP2 EQ PUSH3 0x2B0 JUMPI PUSH1 0x0 DUP5 ISZERO PUSH3 0x297 JUMPI POP DUP6 DUP4 ADD MLOAD JUMPDEST PUSH1 0x0 NOT PUSH1 0x3 DUP7 SWAP1 SHL SHR NOT AND PUSH1 0x1 DUP6 SWAP1 SHL OR DUP6 SSTORE PUSH3 0x23B JUMP JUMPDEST PUSH1 0x0 DUP6 DUP2 MSTORE PUSH1 0x20 DUP2 KECCAK256 PUSH1 0x1F NOT DUP7 AND SWAP2 JUMPDEST DUP3 DUP2 LT ISZERO PUSH3 0x2E1 JUMPI DUP9 DUP7 ADD MLOAD DUP3 SSTORE SWAP5 DUP5 ADD SWAP5 PUSH1 0x1 SWAP1 SWAP2 ADD SWAP1 DUP5 ADD PUSH3 0x2C0 JUMP JUMPDEST POP DUP6 DUP3 LT ISZERO PUSH3 0x300 JUMPI DUP8 DUP6 ADD MLOAD PUSH1 0x0 NOT PUSH1 0x3 DUP9 SWAP1 SHL PUSH1 0xF8 AND SHR NOT AND DUP2 SSTORE JUMPDEST POP POP POP POP POP PUSH1 0x1 SWAP1 DUP2 SHL ADD SWAP1 SSTORE POP JUMP JUMPDEST PUSH2 0xFCB DUP1 PUSH3 0x320 PUSH1 0x0 CODECOPY PUSH1 0x0 RETURN INVALID PUSH1 0x80 PUSH1 0x40 MSTORE PUSH1 0x4 CALLDATASIZE LT PUSH2 0xAA JUMPI PUSH1 0x0 CALLDATALOAD PUSH1 0xE0 SHR DUP1 PUSH4 0x8F779201 GT PUSH2 0x64 JUMPI DUP1 PUSH4 0x8F779201 EQ PUSH2 0x1F1 JUMPI DUP1 PUSH4 0xA1E32D42 EQ PUSH2 0x215 JUMPI DUP1 PUSH4 0xA42CACD9 EQ PUSH2 0x237 JUMPI DUP1 PUSH4 0xA5636A34 EQ PUSH2 0x257 JUMPI DUP1 PUSH4 0xB69EF8A8 EQ PUSH2 0x26C JUMPI DUP1 PUSH4 0xC268317B EQ PUSH2 0x282 JUMPI PUSH1 0x0 DUP1 REVERT JUMPDEST DUP1 PUSH3 0xF714CE EQ PUSH2 0xE9 JUMPI DUP1 PUSH4 0x47C89EC6 EQ PUSH2 0x109 JUMPI DUP1 PUSH4 0x4EAE51F4 EQ PUSH2 0x11E JUMPI DUP1 PUSH4 0x65E6ACA4 EQ PUSH2 0x149 JUMPI DUP1 PUSH4 0x789B4639 EQ PUSH2 0x188 JUMPI DUP1 PUSH4 0x8DA5CB5B EQ PUSH2 0x1B9 JUMPI PUSH1 0x0 DUP1 REVERT JUMPDEST CALLDATASIZE PUSH2 0xE4 JUMPI PUSH1 0x1 SLOAD PUSH1 0x1 PUSH1 0xA0 SHL SWAP1 DIV PUSH1 0xFF AND ISZERO PUSH2 0xE2 JUMPI PUSH1 0x40 MLOAD PUSH3 0x461BCD PUSH1 0xE5 SHL DUP2 MSTORE PUSH1 0x4 ADD PUSH2 0xD9 SWAP1 PUSH2 0xBE3 JUMP JUMPDEST PUSH1 0x40 MLOAD DUP1 SWAP2 SUB SWAP1 REVERT JUMPDEST STOP JUMPDEST PUSH1 0x0 DUP1 REVERT JUMPDEST CALLVALUE DUP1 ISZERO PUSH2 0xF5 JUMPI PUSH1 0x0 DUP1 REVERT JUMPDEST POP PUSH2 0xE2 PUSH2 0x104 CALLDATASIZE PUSH1 0x4 PUSH2 0xC45 JUMP JUMPDEST PUSH2 0x298 JUMP JUMPDEST CALLVALUE DUP1 ISZERO PUSH2 0x115 JUMPI PUSH1 0x0 DUP1 REVERT JUMPDEST POP PUSH2 0xE2 PUSH2 0x3CD JUMP JUMPDEST CALLVALUE DUP1 ISZERO PUSH2 0x12A JUMPI PUSH1 0x0 DUP1 REVERT JUMPDEST POP PUSH2 0x133 PUSH2 0x451 JUMP JUMPDEST PUSH1 0x40 MLOAD PUSH2 0x140 SWAP2 SWAP1 PUSH2 0xC75 JUMP JUMPDEST PUSH1 0x40 MLOAD DUP1 SWAP2 SUB SWAP1 RETURN JUMPDEST CALLVALUE DUP1 ISZERO PUSH2 0x155 JUMPI PUSH1 0x0 DUP1 REVERT JUMPDEST POP PUSH2 0x169 PUSH2 0x164 CALLDATASIZE PUSH1 0x4 PUSH2 0xCCD JUMP JUMPDEST PUSH2 0x4C6 JUMP JUMPDEST PUSH1 0x40 DUP1 MLOAD PUSH1 0x1 PUSH1 0x1 PUSH1 0xA0 SHL SUB SWAP1 SWAP4 AND DUP4 MSTORE PUSH1 0x20 DUP4 ADD SWAP2 SWAP1 SWAP2 MSTORE ADD PUSH2 0x140 JUMP JUMPDEST CALLVALUE DUP1 ISZERO PUSH2 0x194 JUMPI PUSH1 0x0 DUP1 REVERT JUMPDEST POP PUSH1 0x1 SLOAD PUSH2 0x1A9 SWAP1 PUSH1 0x1 PUSH1 0xA0 SHL SWAP1 DIV PUSH1 0xFF AND DUP2 JUMP JUMPDEST PUSH1 0x40 MLOAD SWAP1 ISZERO ISZERO DUP2 MSTORE PUSH1 0x20 ADD PUSH2 0x140 JUMP JUMPDEST CALLVALUE DUP1 ISZERO PUSH2 0x1C5 JUMPI PUSH1 0x0 DUP1 REVERT JUMPDEST POP PUSH1 0x4 SLOAD PUSH2 0x1D9 SWAP1 PUSH1 0x1 PUSH1 0x1 PUSH1 0xA0 SHL SUB AND DUP2 JUMP JUMPDEST PUSH1 0x40 MLOAD PUSH1 0x1 PUSH1 0x1 PUSH1 0xA0 SHL SUB SWAP1 SWAP2 AND DUP2 MSTORE PUSH1 0x20 ADD PUSH2 0x140 JUMP JUMPDEST CALLVALUE DUP1 ISZERO PUSH2 0x1FD JUMPI PUSH1 0x0 DUP1 REVERT JUMPDEST POP PUSH2 0x207 PUSH1 0x5 SLOAD DUP2 JUMP JUMPDEST PUSH1 0x40 MLOAD SWAP1 DUP2 MSTORE PUSH1 0x20 ADD PUSH2 0x140 JUMP JUMPDEST CALLVALUE DUP1 ISZERO PUSH2 0x221 JUMPI PUSH1 0x0 DUP1 REVERT JUMPDEST POP PUSH2 0x22A PUSH2 0x4FE JUMP JUMPDEST PUSH1 0x40 MLOAD PUSH2 0x140 SWAP2 SWAP1 PUSH2 0xD0A JUMP JUMPDEST CALLVALUE DUP1 ISZERO PUSH2 0x243 JUMPI PUSH1 0x0 DUP1 REVERT JUMPDEST POP PUSH2 0xE2 PUSH2 0x252 CALLDATASIZE PUSH1 0x4 PUSH2 0xD3D JUMP JUMPDEST PUSH2 0x590 JUMP JUMPDEST CALLVALUE DUP1 ISZERO PUSH2 0x263 JUMPI PUSH1 0x0 DUP1 REVERT JUMPDEST POP PUSH2 0xE2 PUSH2 0x93C JUMP JUMPDEST CALLVALUE DUP1 ISZERO PUSH2 0x278 JUMPI PUSH1 0x0 DUP1 REVERT JUMPDEST POP PUSH2 0x207 PUSH1 0x6 SLOAD DUP2 JUMP JUMPDEST CALLVALUE DUP1 ISZERO PUSH2 0x28E JUMPI PUSH1 0x0 DUP1 REVERT JUMPDEST POP PUSH2 0x207 PUSH1 0x3 SLOAD DUP2 JUMP JUMPDEST PUSH1 0x4 SLOAD PUSH1 0x1 PUSH1 0x1 PUSH1 0xA0 SHL SUB AND CALLER EQ PUSH2 0x2F2 JUMPI PUSH1 0x40 MLOAD PUSH3 0x461BCD PUSH1 0xE5 SHL DUP2 MSTORE PUSH1 0x20 PUSH1 0x4 DUP3 ADD DUP2 SWAP1 MSTORE PUSH1 0x24 DUP3 ADD MSTORE PUSH32 0x4F776E61626C653A2063616C6C6572206973206E6F7420746865206F776E6572 PUSH1 0x44 DUP3 ADD MSTORE PUSH1 0x64 ADD PUSH2 0xD9 JUMP JUMPDEST SELFBALANCE DUP3 GT ISZERO PUSH2 0x368 JUMPI PUSH1 0x40 MLOAD PUSH3 0x461BCD PUSH1 0xE5 SHL DUP2 MSTORE PUSH1 0x20 PUSH1 0x4 DUP3 ADD MSTORE PUSH1 0x3A PUSH1 0x24 DUP3 ADD MSTORE PUSH32 0x546865207769746864726177616C20616D6F756E742069732067726561746572 PUSH1 0x44 DUP3 ADD MSTORE PUSH32 0x207468616E2074686520436F6E74726163742062616C616E6365000000000000 PUSH1 0x64 DUP3 ADD MSTORE PUSH1 0x84 ADD PUSH2 0xD9 JUMP JUMPDEST PUSH1 0x1 SLOAD PUSH1 0x1 PUSH1 0xA0 SHL SWAP1 DIV PUSH1 0xFF AND ISZERO PUSH2 0x392 JUMPI PUSH1 0x40 MLOAD PUSH3 0x461BCD PUSH1 0xE5 SHL DUP2 MSTORE PUSH1 0x4 ADD PUSH2 0xD9 SWAP1 PUSH2 0xBE3 JUMP JUMPDEST PUSH1 0x40 MLOAD PUSH1 0x1 PUSH1 0x1 PUSH1 0xA0 SHL SUB DUP3 AND SWAP1 DUP4 ISZERO PUSH2 0x8FC MUL SWAP1 DUP5 SWAP1 PUSH1 0x0 DUP2 DUP2 DUP2 DUP6 DUP9 DUP9 CALL SWAP4 POP POP POP POP ISZERO DUP1 ISZERO PUSH2 0x3C8 JUMPI RETURNDATASIZE PUSH1 0x0 DUP1 RETURNDATACOPY RETURNDATASIZE PUSH1 0x0 REVERT JUMPDEST POP POP POP JUMP JUMPDEST PUSH1 0x0 PUSH2 0x3D7 PUSH2 0x4FE JUMP JUMPDEST PUSH1 0x0 SLOAD PUSH1 0x40 MLOAD PUSH4 0x80E6B20F PUSH1 0xE0 SHL DUP2 MSTORE SWAP2 SWAP3 POP PUSH1 0x1 PUSH1 0x1 PUSH1 0xA0 SHL SUB AND SWAP1 PUSH4 0x80E6B20F SWAP1 PUSH2 0x408 SWAP1 DUP5 SWAP1 PUSH1 0x4 ADD PUSH2 0xD0A JUMP JUMPDEST PUSH1 0x20 PUSH1 0x40 MLOAD DUP1 DUP4 SUB DUP2 PUSH1 0x0 DUP8 GAS CALL ISZERO DUP1 ISZERO PUSH2 0x427 JUMPI RETURNDATASIZE PUSH1 0x0 DUP1 RETURNDATACOPY RETURNDATASIZE PUSH1 0x0 REVERT JUMPDEST POP POP POP POP PUSH1 0x40 MLOAD RETURNDATASIZE PUSH1 0x1F NOT PUSH1 0x1F DUP3 ADD AND DUP3 ADD DUP1 PUSH1 0x40 MSTORE POP DUP2 ADD SWAP1 PUSH2 0x44B SWAP2 SWAP1 PUSH2 0xDB2 JUMP JUMPDEST PUSH1 0x5 SSTORE POP JUMP JUMPDEST PUSH1 0x60 PUSH1 0x7 DUP1 SLOAD DUP1 PUSH1 0x20 MUL PUSH1 0x20 ADD PUSH1 0x40 MLOAD SWAP1 DUP2 ADD PUSH1 0x40 MSTORE DUP1 SWAP3 SWAP2 SWAP1 DUP2 DUP2 MSTORE PUSH1 0x20 ADD PUSH1 0x0 SWAP1 JUMPDEST DUP3 DUP3 LT ISZERO PUSH2 0x4BD JUMPI PUSH1 0x0 DUP5 DUP2 MSTORE PUSH1 0x20 SWAP1 DUP2 SWAP1 KECCAK256 PUSH1 0x40 DUP1 MLOAD DUP1 DUP3 ADD SWAP1 SWAP2 MSTORE PUSH1 0x2 DUP6 MUL SWAP1 SWAP2 ADD DUP1 SLOAD PUSH1 0x1 PUSH1 0x1 PUSH1 0xA0 SHL SUB AND DUP3 MSTORE PUSH1 0x1 SWAP1 DUP2 ADD SLOAD DUP3 DUP5 ADD MSTORE SWAP1 DUP4 MSTORE SWAP1 SWAP3 ADD SWAP2 ADD PUSH2 0x475 JUMP JUMPDEST POP POP POP POP SWAP1 POP SWAP1 JUMP JUMPDEST PUSH1 0x7 DUP2 DUP2 SLOAD DUP2 LT PUSH2 0x4D6 JUMPI PUSH1 0x0 DUP1 REVERT JUMPDEST PUSH1 0x0 SWAP2 DUP3 MSTORE PUSH1 0x20 SWAP1 SWAP2 KECCAK256 PUSH1 0x2 SWAP1 SWAP2 MUL ADD DUP1 SLOAD PUSH1 0x1 SWAP1 SWAP2 ADD SLOAD PUSH1 0x1 PUSH1 0x1 PUSH1 0xA0 SHL SUB SWAP1 SWAP2 AND SWAP2 POP DUP3 JUMP JUMPDEST PUSH1 0x60 PUSH1 0x2 DUP1 SLOAD PUSH2 0x50D SWAP1 PUSH2 0xDCB JUMP JUMPDEST DUP1 PUSH1 0x1F ADD PUSH1 0x20 DUP1 SWAP2 DIV MUL PUSH1 0x20 ADD PUSH1 0x40 MLOAD SWAP1 DUP2 ADD PUSH1 0x40 MSTORE DUP1 SWAP3 SWAP2 SWAP1 DUP2 DUP2 MSTORE PUSH1 0x20 ADD DUP3 DUP1 SLOAD PUSH2 0x539 SWAP1 PUSH2 0xDCB JUMP JUMPDEST DUP1 ISZERO PUSH2 0x586 JUMPI DUP1 PUSH1 0x1F LT PUSH2 0x55B JUMPI PUSH2 0x100 DUP1 DUP4 SLOAD DIV MUL DUP4 MSTORE SWAP2 PUSH1 0x20 ADD SWAP2 PUSH2 0x586 JUMP JUMPDEST DUP3 ADD SWAP2 SWAP1 PUSH1 0x0 MSTORE PUSH1 0x20 PUSH1 0x0 KECCAK256 SWAP1 JUMPDEST DUP2 SLOAD DUP2 MSTORE SWAP1 PUSH1 0x1 ADD SWAP1 PUSH1 0x20 ADD DUP1 DUP4 GT PUSH2 0x569 JUMPI DUP3 SWAP1 SUB PUSH1 0x1F AND DUP3 ADD SWAP2 JUMPDEST POP POP POP POP POP SWAP1 POP SWAP1 JUMP JUMPDEST PUSH1 0x4 SLOAD PUSH1 0x1 PUSH1 0x1 PUSH1 0xA0 SHL SUB AND CALLER EQ PUSH2 0x5EA JUMPI PUSH1 0x40 MLOAD PUSH3 0x461BCD PUSH1 0xE5 SHL DUP2 MSTORE PUSH1 0x20 PUSH1 0x4 DUP3 ADD DUP2 SWAP1 MSTORE PUSH1 0x24 DUP3 ADD MSTORE PUSH32 0x4F776E61626C653A2063616C6C6572206973206E6F7420746865206F776E6572 PUSH1 0x44 DUP3 ADD MSTORE PUSH1 0x64 ADD PUSH2 0xD9 JUMP JUMPDEST PUSH1 0x0 PUSH1 0x3 DUP2 SWAP1 SSTORE JUMPDEST DUP2 DUP2 LT ISZERO PUSH2 0x63F JUMPI DUP3 DUP3 DUP3 DUP2 DUP2 LT PUSH2 0x60C JUMPI PUSH2 0x60C PUSH2 0xE05 JUMP JUMPDEST SWAP1 POP PUSH1 0x40 MUL ADD PUSH1 0x20 ADD CALLDATALOAD PUSH1 0x3 PUSH1 0x0 DUP3 DUP3 SLOAD PUSH2 0x627 SWAP2 SWAP1 PUSH2 0xE31 JUMP JUMPDEST SWAP1 SWAP2 SSTORE POP DUP2 SWAP1 POP PUSH2 0x637 DUP2 PUSH2 0xE4A JUMP JUMPDEST SWAP2 POP POP PUSH2 0x5F2 JUMP JUMPDEST POP PUSH1 0x63 PUSH1 0x3 SLOAD LT ISZERO DUP1 ISZERO PUSH2 0x656 JUMPI POP PUSH1 0x64 PUSH1 0x3 SLOAD GT ISZERO JUMPDEST PUSH2 0x6B1 JUMPI PUSH1 0x40 MLOAD PUSH3 0x461BCD PUSH1 0xE5 SHL DUP2 MSTORE PUSH1 0x20 PUSH1 0x4 DUP3 ADD MSTORE PUSH1 0x26 PUSH1 0x24 DUP3 ADD MSTORE PUSH32 0x596F75206E65656420746F20636F6D706C657465203130302520646973747269 PUSH1 0x44 DUP3 ADD MSTORE PUSH6 0x313ABA34B7B7 PUSH1 0xD1 SHL PUSH1 0x64 DUP3 ADD MSTORE PUSH1 0x84 ADD PUSH2 0xD9 JUMP JUMPDEST PUSH1 0x0 JUMPDEST PUSH1 0x7 SLOAD DUP2 LT ISZERO PUSH2 0x7B0 JUMPI PUSH1 0x8 PUSH1 0x0 PUSH1 0x7 DUP4 DUP2 SLOAD DUP2 LT PUSH2 0x6D5 JUMPI PUSH2 0x6D5 PUSH2 0xE05 JUMP JUMPDEST PUSH1 0x0 SWAP2 DUP3 MSTORE PUSH1 0x20 DUP1 DUP4 KECCAK256 PUSH1 0x2 SWAP1 SWAP3 MUL SWAP1 SWAP2 ADD SLOAD PUSH1 0x1 PUSH1 0x1 PUSH1 0xA0 SHL SUB SWAP1 DUP2 AND DUP5 MSTORE SWAP1 DUP4 ADD SWAP4 SWAP1 SWAP4 MSTORE PUSH1 0x40 SWAP1 SWAP2 ADD SWAP1 KECCAK256 DUP1 SLOAD PUSH1 0xFF NOT AND SWAP1 SSTORE PUSH1 0x1 SLOAD PUSH1 0x7 DUP1 SLOAD SWAP2 SWAP1 SWAP3 AND SWAP2 PUSH4 0x5DFC7EC4 SWAP2 DUP5 SWAP1 DUP2 LT PUSH2 0x72D JUMPI PUSH2 0x72D PUSH2 0xE05 JUMP JUMPDEST PUSH1 0x0 SWAP2 DUP3 MSTORE PUSH1 0x20 SWAP1 SWAP2 KECCAK256 PUSH1 0x2 SWAP1 SWAP2 MUL ADD SLOAD PUSH1 0x40 MLOAD PUSH1 0xE0 DUP4 SWAP1 SHL PUSH1 0x1 PUSH1 0x1 PUSH1 0xE0 SHL SUB NOT AND DUP2 MSTORE PUSH1 0x1 PUSH1 0x1 PUSH1 0xA0 SHL SUB SWAP1 SWAP2 AND PUSH1 0x4 DUP3 ADD MSTORE ADDRESS PUSH1 0x24 DUP3 ADD MSTORE PUSH1 0x44 ADD PUSH1 0x0 PUSH1 0x40 MLOAD DUP1 DUP4 SUB DUP2 PUSH1 0x0 DUP8 DUP1 EXTCODESIZE ISZERO DUP1 ISZERO PUSH2 0x785 JUMPI PUSH1 0x0 DUP1 REVERT JUMPDEST POP GAS CALL ISZERO DUP1 ISZERO PUSH2 0x799 JUMPI RETURNDATASIZE PUSH1 0x0 DUP1 RETURNDATACOPY RETURNDATASIZE PUSH1 0x0 REVERT JUMPDEST POP POP POP POP DUP1 DUP1 PUSH2 0x7A8 SWAP1 PUSH2 0xE4A JUMP JUMPDEST SWAP2 POP POP PUSH2 0x6B4 JUMP JUMPDEST POP PUSH2 0x7BD PUSH1 0x7 PUSH1 0x0 PUSH2 0xB95 JUMP JUMPDEST PUSH1 0x0 JUMPDEST DUP2 DUP2 LT ISZERO PUSH2 0x3C8 JUMPI DUP3 DUP3 DUP3 DUP2 DUP2 LT PUSH2 0x7DA JUMPI PUSH2 0x7DA PUSH2 0xE05 JUMP JUMPDEST SWAP1 POP PUSH1 0x40 MUL ADD PUSH1 0x20 ADD CALLDATALOAD PUSH1 0x3 PUSH1 0x0 DUP3 DUP3 SLOAD PUSH2 0x7F5 SWAP2 SWAP1 PUSH2 0xE31 JUMP JUMPDEST SWAP1 SWAP2 SSTORE POP PUSH1 0x7 SWAP1 POP DUP4 DUP4 DUP4 DUP2 DUP2 LT PUSH2 0x80F JUMPI PUSH2 0x80F PUSH2 0xE05 JUMP JUMPDEST DUP4 SLOAD PUSH1 0x1 DUP2 ADD DUP6 SSTORE PUSH1 0x0 SWAP5 DUP6 MSTORE PUSH1 0x20 SWAP1 SWAP5 KECCAK256 PUSH1 0x40 SWAP1 SWAP2 MUL SWAP3 SWAP1 SWAP3 ADD SWAP3 PUSH1 0x2 MUL SWAP1 SWAP2 ADD SWAP1 POP PUSH2 0x83D DUP3 DUP3 PUSH2 0xE63 JUMP JUMPDEST POP POP PUSH1 0x1 PUSH1 0x8 PUSH1 0x0 PUSH1 0x7 DUP5 DUP2 SLOAD DUP2 LT PUSH2 0x858 JUMPI PUSH2 0x858 PUSH2 0xE05 JUMP JUMPDEST PUSH1 0x0 SWAP2 DUP3 MSTORE PUSH1 0x20 DUP1 DUP4 KECCAK256 PUSH1 0x2 SWAP3 SWAP1 SWAP3 MUL SWAP1 SWAP2 ADD SLOAD PUSH1 0x1 PUSH1 0x1 PUSH1 0xA0 SHL SUB SWAP1 DUP2 AND DUP5 MSTORE SWAP1 DUP4 ADD SWAP4 SWAP1 SWAP4 MSTORE PUSH1 0x40 SWAP1 SWAP2 ADD SWAP1 KECCAK256 DUP1 SLOAD PUSH1 0xFF NOT AND SWAP3 ISZERO ISZERO SWAP3 SWAP1 SWAP3 OR SWAP1 SWAP2 SSTORE PUSH1 0x1 SLOAD PUSH1 0x7 DUP1 SLOAD SWAP2 SWAP1 SWAP3 AND SWAP2 PUSH4 0x9E93C45C SWAP2 DUP5 SWAP1 DUP2 LT PUSH2 0x8B9 JUMPI PUSH2 0x8B9 PUSH2 0xE05 JUMP JUMPDEST PUSH1 0x0 SWAP2 DUP3 MSTORE PUSH1 0x20 SWAP1 SWAP2 KECCAK256 PUSH1 0x2 SWAP1 SWAP2 MUL ADD SLOAD PUSH1 0x40 MLOAD PUSH1 0xE0 DUP4 SWAP1 SHL PUSH1 0x1 PUSH1 0x1 PUSH1 0xE0 SHL SUB NOT AND DUP2 MSTORE PUSH1 0x1 PUSH1 0x1 PUSH1 0xA0 SHL SUB SWAP1 SWAP2 AND PUSH1 0x4 DUP3 ADD MSTORE ADDRESS PUSH1 0x24 DUP3 ADD MSTORE PUSH1 0x44 ADD PUSH1 0x0 PUSH1 0x40 MLOAD DUP1 DUP4 SUB DUP2 PUSH1 0x0 DUP8 DUP1 EXTCODESIZE ISZERO DUP1 ISZERO PUSH2 0x911 JUMPI PUSH1 0x0 DUP1 REVERT JUMPDEST POP GAS CALL ISZERO DUP1 ISZERO PUSH2 0x925 JUMPI RETURNDATASIZE PUSH1 0x0 DUP1 RETURNDATACOPY RETURNDATASIZE PUSH1 0x0 REVERT JUMPDEST POP POP POP POP DUP1 DUP1 PUSH2 0x934 SWAP1 PUSH2 0xE4A JUMP JUMPDEST SWAP2 POP POP PUSH2 0x7C0 JUMP JUMPDEST PUSH1 0x1 SLOAD PUSH1 0x1 PUSH1 0xA0 SHL SWAP1 DIV PUSH1 0xFF AND ISZERO PUSH2 0x9A2 JUMPI PUSH1 0x40 MLOAD PUSH3 0x461BCD PUSH1 0xE5 SHL DUP2 MSTORE PUSH1 0x20 PUSH1 0x4 DUP3 ADD MSTORE PUSH1 0x23 PUSH1 0x24 DUP3 ADD MSTORE PUSH32 0x546869732073756363657373696F6E2068617320616C72656164792073746172 PUSH1 0x44 DUP3 ADD MSTORE PUSH3 0x1D1959 PUSH1 0xEA SHL PUSH1 0x64 DUP3 ADD MSTORE PUSH1 0x84 ADD PUSH2 0xD9 JUMP JUMPDEST PUSH1 0x0 DUP1 SLOAD PUSH1 0x5 SLOAD PUSH1 0x40 MLOAD PUSH4 0x4C6B25B1 PUSH1 0xE0 SHL DUP2 MSTORE PUSH1 0x1 PUSH1 0x1 PUSH1 0xA0 SHL SUB SWAP1 SWAP3 AND SWAP2 PUSH4 0x4C6B25B1 SWAP2 PUSH2 0x9D8 SWAP2 PUSH1 0x4 ADD SWAP1 DUP2 MSTORE PUSH1 0x20 ADD SWAP1 JUMP JUMPDEST PUSH1 0x0 PUSH1 0x40 MLOAD DUP1 DUP4 SUB DUP2 DUP7 GAS STATICCALL ISZERO DUP1 ISZERO PUSH2 0x9F5 JUMPI RETURNDATASIZE PUSH1 0x0 DUP1 RETURNDATACOPY RETURNDATASIZE PUSH1 0x0 REVERT JUMPDEST POP POP POP POP PUSH1 0x40 MLOAD RETURNDATASIZE PUSH1 0x0 DUP3 RETURNDATACOPY PUSH1 0x1F RETURNDATASIZE SWAP1 DUP2 ADD PUSH1 0x1F NOT AND DUP3 ADD PUSH1 0x40 MSTORE PUSH2 0xA1D SWAP2 SWAP1 DUP2 ADD SWAP1 PUSH2 0xEAF JUMP JUMPDEST PUSH1 0x40 DUP1 MLOAD DUP1 DUP3 ADD SWAP1 SWAP2 MSTORE PUSH1 0x9 DUP2 MSTORE PUSH9 0x43616E63656C616461 PUSH1 0xB8 SHL PUSH1 0x20 DUP1 DUP4 ADD SWAP2 SWAP1 SWAP2 MSTORE DUP3 MLOAD SWAP1 DUP4 ADD KECCAK256 SWAP2 SWAP3 POP SWAP1 PUSH32 0x280FC0A57A2BA220425265CBD3E41F291AF6A7ED7F6B84407654150F6F383DF0 EQ PUSH2 0xAB9 JUMPI PUSH1 0x40 MLOAD PUSH3 0x461BCD PUSH1 0xE5 SHL DUP2 MSTORE PUSH1 0x20 PUSH1 0x4 DUP3 ADD MSTORE PUSH1 0x18 PUSH1 0x24 DUP3 ADD MSTORE PUSH32 0x556E61626C6520746F2073746172742070726F746F636F6C0000000000000000 PUSH1 0x44 DUP3 ADD MSTORE PUSH1 0x64 ADD PUSH2 0xD9 JUMP JUMPDEST PUSH1 0x1 DUP1 SLOAD PUSH1 0xFF PUSH1 0xA0 SHL NOT AND PUSH1 0x1 PUSH1 0xA0 SHL OR SWAP1 SSTORE PUSH2 0xAD4 PUSH2 0xAD8 JUMP JUMPDEST POP POP JUMP JUMPDEST SELFBALANCE PUSH1 0x6 SSTORE PUSH1 0x0 DUP1 JUMPDEST PUSH1 0x7 SLOAD DUP2 LT ISZERO PUSH2 0xAD4 JUMPI PUSH1 0x64 PUSH1 0x7 DUP3 DUP2 SLOAD DUP2 LT PUSH2 0xAFF JUMPI PUSH2 0xAFF PUSH2 0xE05 JUMP JUMPDEST SWAP1 PUSH1 0x0 MSTORE PUSH1 0x20 PUSH1 0x0 KECCAK256 SWAP1 PUSH1 0x2 MUL ADD PUSH1 0x1 ADD SLOAD PUSH1 0x6 SLOAD PUSH2 0xB1E SWAP2 SWAP1 PUSH2 0xF5C JUMP JUMPDEST PUSH2 0xB28 SWAP2 SWAP1 PUSH2 0xF73 JUMP JUMPDEST SWAP2 POP PUSH1 0x7 DUP2 DUP2 SLOAD DUP2 LT PUSH2 0xB3D JUMPI PUSH2 0xB3D PUSH2 0xE05 JUMP JUMPDEST PUSH1 0x0 SWAP2 DUP3 MSTORE PUSH1 0x20 DUP3 KECCAK256 PUSH1 0x2 SWAP1 SWAP2 MUL ADD SLOAD PUSH1 0x40 MLOAD PUSH1 0x1 PUSH1 0x1 PUSH1 0xA0 SHL SUB SWAP1 SWAP2 AND SWAP2 DUP5 ISZERO PUSH2 0x8FC MUL SWAP2 DUP6 SWAP2 DUP2 DUP2 DUP2 DUP6 DUP9 DUP9 CALL SWAP4 POP POP POP POP ISZERO DUP1 ISZERO PUSH2 0xB82 JUMPI RETURNDATASIZE PUSH1 0x0 DUP1 RETURNDATACOPY RETURNDATASIZE PUSH1 0x0 REVERT JUMPDEST POP DUP1 PUSH2 0xB8D DUP2 PUSH2 0xE4A JUMP JUMPDEST SWAP2 POP POP PUSH2 0xAE0 JUMP JUMPDEST POP DUP1 SLOAD PUSH1 0x0 DUP3 SSTORE PUSH1 0x2 MUL SWAP1 PUSH1 0x0 MSTORE PUSH1 0x20 PUSH1 0x0 KECCAK256 SWAP1 DUP2 ADD SWAP1 PUSH2 0xBB6 SWAP2 SWAP1 PUSH2 0xBB9 JUMP JUMPDEST POP JUMP JUMPDEST JUMPDEST DUP1 DUP3 GT ISZERO PUSH2 0xBDF JUMPI DUP1 SLOAD PUSH1 0x1 PUSH1 0x1 PUSH1 0xA0 SHL SUB NOT AND DUP2 SSTORE PUSH1 0x0 PUSH1 0x1 DUP3 ADD SSTORE PUSH1 0x2 ADD PUSH2 0xBBA JUMP JUMPDEST POP SWAP1 JUMP JUMPDEST PUSH1 0x20 DUP1 DUP3 MSTORE PUSH1 0x2D SWAP1 DUP3 ADD MSTORE PUSH32 0x506F737465726974792053756363657373696F6E2068617320616C7265616479 PUSH1 0x40 DUP3 ADD MSTORE PUSH13 0x81899595B881CDD185C9D1959 PUSH1 0x9A SHL PUSH1 0x60 DUP3 ADD MSTORE PUSH1 0x80 ADD SWAP1 JUMP JUMPDEST PUSH1 0x1 PUSH1 0x1 PUSH1 0xA0 SHL SUB DUP2 AND DUP2 EQ PUSH2 0xBB6 JUMPI PUSH1 0x0 DUP1 REVERT JUMPDEST PUSH1 0x0 DUP1 PUSH1 0x40 DUP4 DUP6 SUB SLT ISZERO PUSH2 0xC58 JUMPI PUSH1 0x0 DUP1 REVERT JUMPDEST DUP3 CALLDATALOAD SWAP2 POP PUSH1 0x20 DUP4 ADD CALLDATALOAD PUSH2 0xC6A DUP2 PUSH2 0xC30 JUMP JUMPDEST DUP1 SWAP2 POP POP SWAP3 POP SWAP3 SWAP1 POP JUMP JUMPDEST PUSH1 0x20 DUP1 DUP3 MSTORE DUP3 MLOAD DUP3 DUP3 ADD DUP2 SWAP1 MSTORE PUSH1 0x0 SWAP2 SWAP1 PUSH1 0x40 SWAP1 DUP2 DUP6 ADD SWAP1 DUP7 DUP5 ADD DUP6 JUMPDEST DUP3 DUP2 LT ISZERO PUSH2 0xCC0 JUMPI DUP2 MLOAD DUP1 MLOAD PUSH1 0x1 PUSH1 0x1 PUSH1 0xA0 SHL SUB AND DUP6 MSTORE DUP7 ADD MLOAD DUP7 DUP6 ADD MSTORE SWAP3 DUP5 ADD SWAP3 SWAP1 DUP6 ADD SWAP1 PUSH1 0x1 ADD PUSH2 0xC92 JUMP JUMPDEST POP SWAP2 SWAP8 SWAP7 POP POP POP POP POP POP POP JUMP JUMPDEST PUSH1 0x0 PUSH1 0x20 DUP3 DUP5 SUB SLT ISZERO PUSH2 0xCDF JUMPI PUSH1 0x0 DUP1 REVERT JUMPDEST POP CALLDATALOAD SWAP2 SWAP1 POP JUMP JUMPDEST PUSH1 0x0 JUMPDEST DUP4 DUP2 LT ISZERO PUSH2 0xD01 JUMPI DUP2 DUP2 ADD MLOAD DUP4 DUP3 ADD MSTORE PUSH1 0x20 ADD PUSH2 0xCE9 JUMP JUMPDEST POP POP PUSH1 0x0 SWAP2 ADD MSTORE JUMP JUMPDEST PUSH1 0x20 DUP2 MSTORE PUSH1 0x0 DUP3 MLOAD DUP1 PUSH1 0x20 DUP5 ADD MSTORE PUSH2 0xD29 DUP2 PUSH1 0x40 DUP6 ADD PUSH1 0x20 DUP8 ADD PUSH2 0xCE6 JUMP JUMPDEST PUSH1 0x1F ADD PUSH1 0x1F NOT AND SWAP2 SWAP1 SWAP2 ADD PUSH1 0x40 ADD SWAP3 SWAP2 POP POP JUMP JUMPDEST PUSH1 0x0 DUP1 PUSH1 0x20 DUP4 DUP6 SUB SLT ISZERO PUSH2 0xD50 JUMPI PUSH1 0x0 DUP1 REVERT JUMPDEST DUP3 CALLDATALOAD PUSH8 0xFFFFFFFFFFFFFFFF DUP1 DUP3 GT ISZERO PUSH2 0xD68 JUMPI PUSH1 0x0 DUP1 REVERT JUMPDEST DUP2 DUP6 ADD SWAP2 POP DUP6 PUSH1 0x1F DUP4 ADD SLT PUSH2 0xD7C JUMPI PUSH1 0x0 DUP1 REVERT JUMPDEST DUP2 CALLDATALOAD DUP2 DUP2 GT ISZERO PUSH2 0xD8B JUMPI PUSH1 0x0 DUP1 REVERT JUMPDEST DUP7 PUSH1 0x20 DUP3 PUSH1 0x6 SHL DUP6 ADD ADD GT ISZERO PUSH2 0xDA0 JUMPI PUSH1 0x0 DUP1 REVERT JUMPDEST PUSH1 0x20 SWAP3 SWAP1 SWAP3 ADD SWAP7 SWAP2 SWAP6 POP SWAP1 SWAP4 POP POP POP POP JUMP JUMPDEST PUSH1 0x0 PUSH1 0x20 DUP3 DUP5 SUB SLT ISZERO PUSH2 0xDC4 JUMPI PUSH1 0x0 DUP1 REVERT JUMPDEST POP MLOAD SWAP2 SWAP1 POP JUMP JUMPDEST PUSH1 0x1 DUP2 DUP2 SHR SWAP1 DUP3 AND DUP1 PUSH2 0xDDF JUMPI PUSH1 0x7F DUP3 AND SWAP2 POP JUMPDEST PUSH1 0x20 DUP3 LT DUP2 SUB PUSH2 0xDFF JUMPI PUSH4 0x4E487B71 PUSH1 0xE0 SHL PUSH1 0x0 MSTORE PUSH1 0x22 PUSH1 0x4 MSTORE PUSH1 0x24 PUSH1 0x0 REVERT JUMPDEST POP SWAP2 SWAP1 POP JUMP JUMPDEST PUSH4 0x4E487B71 PUSH1 0xE0 SHL PUSH1 0x0 MSTORE PUSH1 0x32 PUSH1 0x4 MSTORE PUSH1 0x24 PUSH1 0x0 REVERT JUMPDEST PUSH4 0x4E487B71 PUSH1 0xE0 SHL PUSH1 0x0 MSTORE PUSH1 0x11 PUSH1 0x4 MSTORE PUSH1 0x24 PUSH1 0x0 REVERT JUMPDEST DUP1 DUP3 ADD DUP1 DUP3 GT ISZERO PUSH2 0xE44 JUMPI PUSH2 0xE44 PUSH2 0xE1B JUMP JUMPDEST SWAP3 SWAP2 POP POP JUMP JUMPDEST PUSH1 0x0 PUSH1 0x1 DUP3 ADD PUSH2 0xE5C JUMPI PUSH2 0xE5C PUSH2 0xE1B JUMP JUMPDEST POP PUSH1 0x1 ADD SWAP1 JUMP JUMPDEST DUP2 CALLDATALOAD PUSH2 0xE6E DUP2 PUSH2 0xC30 JUMP JUMPDEST DUP2 SLOAD PUSH1 0x1 PUSH1 0x1 PUSH1 0xA0 SHL SUB NOT AND PUSH1 0x1 PUSH1 0x1 PUSH1 0xA0 SHL SUB SWAP2 SWAP1 SWAP2 AND OR DUP2 SSTORE PUSH1 0x20 SWAP2 SWAP1 SWAP2 ADD CALLDATALOAD PUSH1 0x1 SWAP2 SWAP1 SWAP2 ADD SSTORE JUMP JUMPDEST PUSH4 0x4E487B71 PUSH1 0xE0 SHL PUSH1 0x0 MSTORE PUSH1 0x41 PUSH1 0x4 MSTORE PUSH1 0x24 PUSH1 0x0 REVERT JUMPDEST PUSH1 0x0 PUSH1 0x20 DUP3 DUP5 SUB SLT ISZERO PUSH2 0xEC1 JUMPI PUSH1 0x0 DUP1 REVERT JUMPDEST DUP2 MLOAD PUSH8 0xFFFFFFFFFFFFFFFF DUP1 DUP3 GT ISZERO PUSH2 0xED9 JUMPI PUSH1 0x0 DUP1 REVERT JUMPDEST DUP2 DUP5 ADD SWAP2 POP DUP5 PUSH1 0x1F DUP4 ADD SLT PUSH2 0xEED JUMPI PUSH1 0x0 DUP1 REVERT JUMPDEST DUP2 MLOAD DUP2 DUP2 GT ISZERO PUSH2 0xEFF JUMPI PUSH2 0xEFF PUSH2 0xE99 JUMP JUMPDEST PUSH1 0x40 MLOAD PUSH1 0x1F DUP3 ADD PUSH1 0x1F NOT SWAP1 DUP2 AND PUSH1 0x3F ADD AND DUP2 ADD SWAP1 DUP4 DUP3 GT DUP2 DUP4 LT OR ISZERO PUSH2 0xF27 JUMPI PUSH2 0xF27 PUSH2 0xE99 JUMP JUMPDEST DUP2 PUSH1 0x40 MSTORE DUP3 DUP2 MSTORE DUP8 PUSH1 0x20 DUP5 DUP8 ADD ADD GT ISZERO PUSH2 0xF40 JUMPI PUSH1 0x0 DUP1 REVERT JUMPDEST PUSH2 0xF51 DUP4 PUSH1 0x20 DUP4 ADD PUSH1 0x20 DUP9 ADD PUSH2 0xCE6 JUMP JUMPDEST SWAP8 SWAP7 POP POP POP POP POP POP POP JUMP JUMPDEST DUP1 DUP3 MUL DUP2 ISZERO DUP3 DUP3 DIV DUP5 EQ OR PUSH2 0xE44 JUMPI PUSH2 0xE44 PUSH2 0xE1B JUMP JUMPDEST PUSH1 0x0 DUP3 PUSH2 0xF90 JUMPI PUSH4 0x4E487B71 PUSH1 0xE0 SHL PUSH1 0x0 MSTORE PUSH1 0x12 PUSH1 0x4 MSTORE PUSH1 0x24 PUSH1 0x0 REVERT JUMPDEST POP DIV SWAP1 JUMP INVALID LOG2 PUSH5 0x6970667358 0x22 SLT KECCAK256 0xD3 0xE6 SUB 0xC6 0xE0 MSTORE PUSH16 0x9C2E6835F3B9EA47A4EAD0936FA3611A 0xEC PUSH6 0x282A12804736 LOG1 PUSH5 0x736F6C6343 STOP ADDMOD GT STOP CALLER LOG2 PUSH5 0x6970667358 0x22 SLT KECCAK256 0xF9 SWAP3 0xAE 0x4D SWAP3 TIMESTAMP 0xE1 KECCAK256 LOG1 STATICCALL 0xB0 LOG2 0xD4 MULMOD PUSH12 0xBBB79EBA47A6801661922653 0x2D 0x21 0x4A 0xFC LOG0 PUSH5 0x736F6C6343 STOP ADDMOD GT STOP CALLER "},"methodIdentifiers":{"deletePosterityWalletFromHeir(address,address)":"5dfc7ec4","deploy(string)":"c7602316","getPosterityWallet(address)":"fadb1aa8","getPosterityWalletsFromHeir(address)":"35dabbf5","posterityWallets(address)":"3ee90d83","posterityWalletsFromHeir(address,uint256)":"e7b6992b","posterityWalletsIndexesFromHeir(address,address)":"e969ba28","setPosterityWalletsFromHeir(address,address)":"9e93c45c"}}}}}