{
  "_format": "hh-sol-artifact-1",
  "contractName": "PosterityWallet",
  "sourceName": "contracts/posterityWallet.sol",
  "abi": [
    {
      "inputs": [
        {
          "internalType": "uint256",
          "name": "_taxID",
          "type": "uint256"
        },
        {
          "internalType": "address",
          "name": "_owner",
          "type": "address"
        }
      ],
      "stateMutability": "payable",
      "type": "constructor"
    },
    {
      "inputs": [
        {
          "internalType": "uint256",
          "name": "",
          "type": "uint256"
        }
      ],
      "name": "_heirs",
      "outputs": [
        {
          "internalType": "address",
          "name": "userAddress",
          "type": "address"
        },
        {
          "internalType": "uint256",
          "name": "percentage",
          "type": "uint256"
        }
      ],
      "stateMutability": "view",
      "type": "function"
    },
    {
      "inputs": [],
      "name": "authorizedHeir",
      "outputs": [
        {
          "internalType": "string",
          "name": "",
          "type": "string"
        }
      ],
      "stateMutability": "view",
      "type": "function"
    },
    {
      "inputs": [],
      "name": "authorizedHeirFrase",
      "outputs": [
        {
          "internalType": "bytes32",
          "name": "",
          "type": "bytes32"
        }
      ],
      "stateMutability": "view",
      "type": "function"
    },
    {
      "inputs": [],
      "name": "authorizedHeirResult",
      "outputs": [
        {
          "internalType": "bytes32",
          "name": "",
          "type": "bytes32"
        }
      ],
      "stateMutability": "view",
      "type": "function"
    },
    {
      "inputs": [],
      "name": "balance",
      "outputs": [
        {
          "internalType": "uint256",
          "name": "",
          "type": "uint256"
        }
      ],
      "stateMutability": "view",
      "type": "function"
    },
    {
      "inputs": [
        {
          "components": [
            {
              "internalType": "address",
              "name": "userAddress",
              "type": "address"
            },
            {
              "internalType": "uint256",
              "name": "percentage",
              "type": "uint256"
            }
          ],
          "internalType": "struct PosterityWallet.Heir[]",
          "name": "_newHeirs",
          "type": "tuple[]"
        }
      ],
      "name": "changeHeirs",
      "outputs": [],
      "stateMutability": "nonpayable",
      "type": "function"
    },
    {
      "inputs": [
        {
          "internalType": "string",
          "name": "taxId",
          "type": "string"
        }
      ],
      "name": "establishSucessorDeath",
      "outputs": [],
      "stateMutability": "nonpayable",
      "type": "function"
    },
    {
      "inputs": [],
      "name": "getHeirs",
      "outputs": [
        {
          "components": [
            {
              "internalType": "address",
              "name": "userAddress",
              "type": "address"
            },
            {
              "internalType": "uint256",
              "name": "percentage",
              "type": "uint256"
            }
          ],
          "internalType": "struct PosterityWallet.Heir[]",
          "name": "",
          "type": "tuple[]"
        }
      ],
      "stateMutability": "view",
      "type": "function"
    },
    {
      "inputs": [],
      "name": "gettaxID",
      "outputs": [
        {
          "internalType": "uint256",
          "name": "",
          "type": "uint256"
        }
      ],
      "stateMutability": "view",
      "type": "function"
    },
    {
      "inputs": [],
      "name": "owner",
      "outputs": [
        {
          "internalType": "address",
          "name": "",
          "type": "address"
        }
      ],
      "stateMutability": "view",
      "type": "function"
    },
    {
      "inputs": [],
      "name": "succession",
      "outputs": [
        {
          "internalType": "bool",
          "name": "",
          "type": "bool"
        }
      ],
      "stateMutability": "view",
      "type": "function"
    },
    {
      "inputs": [],
      "name": "totalDistribuition",
      "outputs": [
        {
          "internalType": "uint256",
          "name": "",
          "type": "uint256"
        }
      ],
      "stateMutability": "view",
      "type": "function"
    },
    {
      "inputs": [
        {
          "internalType": "uint256",
          "name": "amount",
          "type": "uint256"
        },
        {
          "internalType": "address",
          "name": "to",
          "type": "address"
        }
      ],
      "name": "withdraw",
      "outputs": [],
      "stateMutability": "nonpayable",
      "type": "function"
    },
    {
      "stateMutability": "payable",
      "type": "receive"
    }
  ],
  "bytecode": "0x60806040819052600080546001600160a01b031916737a7ebb02a1828face2620fa0f34763ea6d5c3ac31781556001805460ff60a01b191690556003556112fe388190039081908339810160408190526100589161008c565b600291909155600480546001600160a01b039092166001600160a01b031992831617905560018054909116331790556100c9565b6000806040838503121561009f57600080fd5b825160208401519092506001600160a01b03811681146100be57600080fd5b809150509250929050565b611226806100d86000396000f3fe6080604052600436106100c55760003560e01c806365e6aca41161007f578063a1e32d4211610059578063a1e32d421461026f578063a42cacd914610284578063b69ef8a8146102a4578063c268317b146102ba57600080fd5b806365e6aca4146101c7578063789b4639146102065780638da5cb5b1461023757600080fd5b8062f714ce14610104578063289eaf4e146101245780634eae51f41461014d578063569192491461016f5780635a7633ef146101915780635ebce1ce146101a757600080fd5b366100ff57600154600160a01b900460ff16156100fd5760405162461bcd60e51b81526004016100f490610c30565b60405180910390fd5b005b600080fd5b34801561011057600080fd5b506100fd61011f366004610c92565b6102d0565b34801561013057600080fd5b5061013a60065481565b6040519081526020015b60405180910390f35b34801561015957600080fd5b50610162610405565b6040516101449190610cc2565b34801561017b57600080fd5b5061018461047a565b6040516101449190610d3e565b34801561019d57600080fd5b5061013a60075481565b3480156101b357600080fd5b506100fd6101c2366004610de0565b610508565b3480156101d357600080fd5b506101e76101e2366004610e60565b610745565b604080516001600160a01b039093168352602083019190915201610144565b34801561021257600080fd5b5060015461022790600160a01b900460ff1681565b6040519015158152602001610144565b34801561024357600080fd5b50600454610257906001600160a01b031681565b6040516001600160a01b039091168152602001610144565b34801561027b57600080fd5b5060025461013a565b34801561029057600080fd5b506100fd61029f366004610e79565b61077d565b3480156102b057600080fd5b5061013a60085481565b3480156102c657600080fd5b5061013a60035481565b6004546001600160a01b0316331461032a5760405162461bcd60e51b815260206004820181905260248201527f4f776e61626c653a2063616c6c6572206973206e6f7420746865206f776e657260448201526064016100f4565b478211156103a05760405162461bcd60e51b815260206004820152603a60248201527f546865207769746864726177616c20616d6f756e74206973206772656174657260448201527f207468616e2074686520436f6e74726163742062616c616e636500000000000060648201526084016100f4565b600154600160a01b900460ff16156103ca5760405162461bcd60e51b81526004016100f490610c30565b6040516001600160a01b0382169083156108fc029084906000818181858888f19350505050158015610400573d6000803e3d6000fd5b505050565b60606009805480602002602001604051908101604052809291908181526020016000905b82821015610471576000848152602090819020604080518082019091526002850290910180546001600160a01b03168252600190810154828401529083529092019101610429565b50505050905090565b6005805461048790610eee565b80601f01602080910402602001604051908101604052809291908181526020018280546104b390610eee565b80156105005780601f106104d557610100808354040283529160200191610500565b820191906000526020600020905b8154815290600101906020018083116104e357829003601f168201915b505050505081565b600154600160a01b900460ff161561056e5760405162461bcd60e51b815260206004820152602360248201527f546869732073756363657373696f6e2068617320616c726561647920737461726044820152621d195960ea1b60648201526084016100f4565b336000908152600a602052604090205460ff1615156001146105d25760405162461bcd60e51b815260206004820152601860248201527f596f7520617265206e6f7420612076616c69642068656972000000000000000060448201526064016100f4565b6000546040516318d2e61760e21b81526001600160a01b039091169063634b985c90610602908490600401610d3e565b6000604051808303816000875af1158015610621573d6000803e3d6000fd5b505050506040513d6000823e601f3d908101601f191682016040526106499190810190610f28565b6005906106569082610fed565b50600560405161066691906110ad565b604080519182900382206006819055828201909152600982526843616e63656c61646160b81b6020909201919091527f280fc0a57a2ba220425265cbd3e41f291af6a7ed7f6b84407654150f6f383df06007557fd7f03f5a85d45ddfbdad9a342c1be0d6e509581280947bbf89abeaf090c7c210016107275760405162461bcd60e51b815260206004820152601860248201527f556e61626c6520746f2073746172742070726f746f636f6c000000000000000060448201526064016100f4565b6001805460ff60a01b1916600160a01b179055610742610b29565b50565b6009818154811061075557600080fd5b6000918252602090912060029091020180546001909101546001600160a01b03909116915082565b6004546001600160a01b031633146107d75760405162461bcd60e51b815260206004820181905260248201527f4f776e61626c653a2063616c6c6572206973206e6f7420746865206f776e657260448201526064016100f4565b600060038190555b8181101561082c578282828181106107f9576107f9611123565b9050604002016020013560036000828254610814919061114f565b9091555081905061082481611168565b9150506107df565b506063600354101580156108435750606460035411155b61089e5760405162461bcd60e51b815260206004820152602660248201527f596f75206e65656420746f20636f6d706c657465203130302520646973747269604482015265313aba34b7b760d11b60648201526084016100f4565b60005b60095481101561099d57600a6000600983815481106108c2576108c2611123565b600091825260208083206002909202909101546001600160a01b0390811684529083019390935260409091019020805460ff19169055600154600980549190921691635dfc7ec4918490811061091a5761091a611123565b600091825260209091206002909102015460405160e083901b6001600160e01b03191681526001600160a01b039091166004820152306024820152604401600060405180830381600087803b15801561097257600080fd5b505af1158015610986573d6000803e3d6000fd5b50505050808061099590611168565b9150506108a1565b506109aa60096000610bea565b60005b81811015610400578282828181106109c7576109c7611123565b90506040020160200135600360008282546109e2919061114f565b90915550600990508383838181106109fc576109fc611123565b835460018101855560009485526020909420604090910292909201926002029091019050610a2a8282611181565b50506001600a600060098481548110610a4557610a45611123565b60009182526020808320600292909202909101546001600160a01b0390811684529083019390935260409091019020805460ff191692151592909217909155600154600980549190921691639e93c45c9184908110610aa657610aa6611123565b600091825260209091206002909102015460405160e083901b6001600160e01b03191681526001600160a01b039091166004820152306024820152604401600060405180830381600087803b158015610afe57600080fd5b505af1158015610b12573d6000803e3d6000fd5b505050508080610b2190611168565b9150506109ad565b476008556000805b600954811015610be657606460098281548110610b5057610b50611123565b906000526020600020906002020160010154600854610b6f91906111b7565b610b7991906111ce565b915060098181548110610b8e57610b8e611123565b600091825260208220600290910201546040516001600160a01b039091169184156108fc02918591818181858888f19350505050158015610bd3573d6000803e3d6000fd5b5080610bde81611168565b915050610b31565b5050565b508054600082556002029060005260206000209081019061074291905b80821115610c2c5780546001600160a01b031916815560006001820155600201610c07565b5090565b6020808252602d908201527f506f737465726974792053756363657373696f6e2068617320616c726561647960408201526c081899595b881cdd185c9d1959609a1b606082015260800190565b6001600160a01b038116811461074257600080fd5b60008060408385031215610ca557600080fd5b823591506020830135610cb781610c7d565b809150509250929050565b602080825282518282018190526000919060409081850190868401855b82811015610d0d57815180516001600160a01b03168552860151868501529284019290850190600101610cdf565b5091979650505050505050565b60005b83811015610d35578181015183820152602001610d1d565b50506000910152565b6020815260008251806020840152610d5d816040850160208701610d1a565b601f01601f19169190910160400192915050565b634e487b7160e01b600052604160045260246000fd5b604051601f8201601f1916810167ffffffffffffffff81118282101715610db057610db0610d71565b604052919050565b600067ffffffffffffffff821115610dd257610dd2610d71565b50601f01601f191660200190565b600060208284031215610df257600080fd5b813567ffffffffffffffff811115610e0957600080fd5b8201601f81018413610e1a57600080fd5b8035610e2d610e2882610db8565b610d87565b818152856020838501011115610e4257600080fd5b81602084016020830137600091810160200191909152949350505050565b600060208284031215610e7257600080fd5b5035919050565b60008060208385031215610e8c57600080fd5b823567ffffffffffffffff80821115610ea457600080fd5b818501915085601f830112610eb857600080fd5b813581811115610ec757600080fd5b8660208260061b8501011115610edc57600080fd5b60209290920196919550909350505050565b600181811c90821680610f0257607f821691505b602082108103610f2257634e487b7160e01b600052602260045260246000fd5b50919050565b600060208284031215610f3a57600080fd5b815167ffffffffffffffff811115610f5157600080fd5b8201601f81018413610f6257600080fd5b8051610f70610e2882610db8565b818152856020838501011115610f8557600080fd5b610f96826020830160208601610d1a565b95945050505050565b601f82111561040057600081815260208120601f850160051c81016020861015610fc65750805b601f850160051c820191505b81811015610fe557828155600101610fd2565b505050505050565b815167ffffffffffffffff81111561100757611007610d71565b61101b816110158454610eee565b84610f9f565b602080601f83116001811461105057600084156110385750858301515b600019600386901b1c1916600185901b178555610fe5565b600085815260208120601f198616915b8281101561107f57888601518255948401946001909101908401611060565b508582101561109d5787850151600019600388901b60f8161c191681555b5050505050600190811b01905550565b60008083546110bb81610eee565b600182811680156110d357600181146110e857611117565b60ff1984168752821515830287019450611117565b8760005260208060002060005b8581101561110e5781548a8201529084019082016110f5565b50505082870194505b50929695505050505050565b634e487b7160e01b600052603260045260246000fd5b634e487b7160e01b600052601160045260246000fd5b8082018082111561116257611162611139565b92915050565b60006001820161117a5761117a611139565b5060010190565b813561118c81610c7d565b81546001600160a01b0319166001600160a01b03919091161781556020919091013560019190910155565b808202811582820484141761116257611162611139565b6000826111eb57634e487b7160e01b600052601260045260246000fd5b50049056fea26469706673582212203722a8db4456142fc9f271e8c6c6caa3757657ae11b0f2afd218ae8bde88771b64736f6c63430008110033",
  "linkReferences": {},
  "deployedLinkReferences": {}
}