{
  "_format": "hh-sol-artifact-1",
  "contractName": "APIConsumer",
  "sourceName": "contracts/oracleChainLink.sol",
  "abi": [
    {
      "inputs": [],
      "stateMutability": "nonpayable",
      "type": "constructor"
    },
    {
      "anonymous": false,
      "inputs": [
        {
          "indexed": true,
          "internalType": "bytes32",
          "name": "id",
          "type": "bytes32"
        }
      ],
      "name": "ChainlinkCancelled",
      "type": "event"
    },
    {
      "anonymous": false,
      "inputs": [
        {
          "indexed": true,
          "internalType": "bytes32",
          "name": "id",
          "type": "bytes32"
        }
      ],
      "name": "ChainlinkFulfilled",
      "type": "event"
    },
    {
      "anonymous": false,
      "inputs": [
        {
          "indexed": true,
          "internalType": "bytes32",
          "name": "id",
          "type": "bytes32"
        }
      ],
      "name": "ChainlinkRequested",
      "type": "event"
    },
    {
      "anonymous": false,
      "inputs": [
        {
          "indexed": true,
          "internalType": "address",
          "name": "from",
          "type": "address"
        },
        {
          "indexed": true,
          "internalType": "address",
          "name": "to",
          "type": "address"
        }
      ],
      "name": "OwnershipTransferRequested",
      "type": "event"
    },
    {
      "anonymous": false,
      "inputs": [
        {
          "indexed": true,
          "internalType": "address",
          "name": "from",
          "type": "address"
        },
        {
          "indexed": true,
          "internalType": "address",
          "name": "to",
          "type": "address"
        }
      ],
      "name": "OwnershipTransferred",
      "type": "event"
    },
    {
      "anonymous": false,
      "inputs": [
        {
          "indexed": true,
          "internalType": "bytes32",
          "name": "requestId",
          "type": "bytes32"
        },
        {
          "indexed": false,
          "internalType": "string",
          "name": "situation",
          "type": "string"
        }
      ],
      "name": "RequestSituation",
      "type": "event"
    },
    {
      "inputs": [],
      "name": "acceptOwnership",
      "outputs": [],
      "stateMutability": "nonpayable",
      "type": "function"
    },
    {
      "inputs": [],
      "name": "callingContract",
      "outputs": [
        {
          "internalType": "address",
          "name": "",
          "type": "address"
        }
      ],
      "stateMutability": "view",
      "type": "function"
    },
    {
      "inputs": [
        {
          "internalType": "bytes32",
          "name": "_requestId",
          "type": "bytes32"
        },
        {
          "internalType": "string",
          "name": "_situation",
          "type": "string"
        }
      ],
      "name": "fulfill",
      "outputs": [],
      "stateMutability": "nonpayable",
      "type": "function"
    },
    {
      "inputs": [],
      "name": "owner",
      "outputs": [
        {
          "internalType": "address",
          "name": "",
          "type": "address"
        }
      ],
      "stateMutability": "view",
      "type": "function"
    },
    {
      "inputs": [
        {
          "internalType": "string",
          "name": "taxId",
          "type": "string"
        }
      ],
      "name": "requestSituationData",
      "outputs": [
        {
          "internalType": "bytes32",
          "name": "requestId",
          "type": "bytes32"
        }
      ],
      "stateMutability": "nonpayable",
      "type": "function"
    },
    {
      "inputs": [
        {
          "internalType": "address",
          "name": "to",
          "type": "address"
        }
      ],
      "name": "transferOwnership",
      "outputs": [],
      "stateMutability": "nonpayable",
      "type": "function"
    }
  ],
  "bytecode": "0x608060405260016004553480156200001657600080fd5b5033806000816200006e5760405162461bcd60e51b815260206004820152601860248201527f43616e6e6f7420736574206f776e657220746f207a65726f000000000000000060448201526064015b60405180910390fd5b600680546001600160a01b0319166001600160a01b0384811691909117909155811615620000a157620000a1816200013f565b505050620000c973326c977e6efc84e512bb9c30f76e30c160ed06fb620001eb60201b60201c565b600380546001600160a01b03191673cc79157eb46f5624204f47ab42b3906caa40eab71790557f3764383061363338366566353433613361626235323831376636373037653362600855600a6200012a670de0b6b3a764000060016200020d565b62000136919062000239565b6009556200025c565b336001600160a01b03821603620001995760405162461bcd60e51b815260206004820152601760248201527f43616e6e6f74207472616e7366657220746f2073656c66000000000000000000604482015260640162000065565b600780546001600160a01b0319166001600160a01b03838116918217909255600654604051919216907fed8889f560326eb138920d842192f0eb3dd22b4f139c87a2c57538e05bae127890600090a350565b600280546001600160a01b0319166001600160a01b0392909216919091179055565b80820281158282048414176200023357634e487b7160e01b600052601160045260246000fd5b92915050565b6000826200025757634e487b7160e01b600052601260045260246000fd5b500490565b611033806200026c6000396000f3fe608060405234801561001057600080fd5b50600436106100625760003560e01c8063224206e214610067578063374419961461009757806379ba5097146100ac57806380e6b20f146100b45780638da5cb5b146100d5578063f2fde38b146100e6575b600080fd5b600b5461007a906001600160a01b031681565b6040516001600160a01b0390911681526020015b60405180910390f35b6100aa6100a5366004610c7d565b6100f9565b005b6100aa61026b565b6100c76100c2366004610cc4565b610319565b60405190815260200161008e565b6006546001600160a01b031661007a565b6100aa6100f4366004610cf9565b6103f3565b60008281526005602052604090205482906001600160a01b031633146101775760405162461bcd60e51b815260206004820152602860248201527f536f75726365206d75737420626520746865206f7261636c65206f6620746865604482015267081c995c5d595cdd60c21b60648201526084015b60405180910390fd5b60008181526005602052604080822080546001600160a01b03191690555182917f7cc135e0cebb02c3480ae5d74d377283180a2601f8f644edf7987b009316c63a91a2827fd8923aed91c7350a65da7984bf0a94fbc7c9425c2596057cd2c866a662ea0b2c836040516101ea9190610d72565b60405180910390a2600b54600a80546001600160a01b0319166001600160a01b039092169182179055604051632f5e70e760e11b8152635ebce1ce90610234908590600401610d72565b600060405180830381600087803b15801561024e57600080fd5b505af1158015610262573d6000803e3d6000fd5b50505050505050565b6007546001600160a01b031633146102be5760405162461bcd60e51b815260206004820152601660248201527526bab9ba10313290383937b837b9b2b21037bbb732b960511b604482015260640161016e565b600680546001600160a01b0319808216339081179093556007805490911690556040516001600160a01b03909116919082907f8be0079c531659141344cd1fd0a4f28419497f9722a3daafe3b4186f6b6457e090600090a350565b600b80546001600160a01b0319163317905560085460009081906103459030631ba20ccb60e11b610407565b905061038f6040518060400160405280600381526020016219d95d60ea1b815250846040516020016103779190610d85565b60408051601f1981840301815291905283919061042c565b6103e0604051806040016040528060048152602001630e0c2e8d60e31b81525060405180604001604052806008815260200167736974756163616f60c01b8152508361042c9092919063ffffffff16565b6103ec8160095461044f565b9392505050565b6103fb610472565b610404816104c7565b50565b61040f610b9f565b610417610b9f565b61042381868686610571565b95945050505050565b608083015161043b90836105b7565b608083015161044a90826105b7565b505050565b600354600090610469906001600160a01b031684846105ce565b90505b92915050565b6006546001600160a01b031633146104c55760405162461bcd60e51b815260206004820152601660248201527527b7363c9031b0b63630b1363290313c9037bbb732b960511b604482015260640161016e565b565b336001600160a01b0382160361051f5760405162461bcd60e51b815260206004820152601760248201527f43616e6e6f74207472616e7366657220746f2073656c66000000000000000000604482015260640161016e565b600780546001600160a01b0319166001600160a01b03838116918217909255600654604051919216907fed8889f560326eb138920d842192f0eb3dd22b4f139c87a2c57538e05bae127890600090a350565b610579610b9f565b6105898560800151610100610661565b50508284526001600160a01b03821660208501526001600160e01b031981166040850152835b949350505050565b6105c482600383516106c6565b61044a82826107db565b6004546000906105df816001610dfd565b600455835160408086015160808701515191516000936320214ca360e11b936106179386938493923092918a91600191602401610e10565b60408051601f198184030181529190526020810180516001600160e01b03166001600160e01b031990931692909217909152905061065786838684610802565b9695505050505050565b604080518082019091526060815260006020820152610681602083610e78565b156106a957610691602083610e78565b61069c906020610e9a565b6106a69083610dfd565b91505b506020828101829052604080518085526000815290920101905290565b60178167ffffffffffffffff16116106f1576106eb8360e0600585901b168317610960565b50505050565b60ff8167ffffffffffffffff161161072f57610718836018611fe0600586901b1617610960565b506106eb8367ffffffffffffffff83166001610985565b61ffff8167ffffffffffffffff161161076e57610757836019611fe0600586901b1617610960565b506106eb8367ffffffffffffffff83166002610985565b63ffffffff8167ffffffffffffffff16116107af5761079883601a611fe0600586901b1617610960565b506106eb8367ffffffffffffffff83166004610985565b6107c483601b611fe0600586901b1617610960565b506106eb8367ffffffffffffffff83166008610985565b604080518082019091526060815260006020820152610469838460000151518485516109ab565b6040516bffffffffffffffffffffffff193060601b1660208201526034810184905260009060540160408051808303601f1901815282825280516020918201206000818152600590925291812080546001600160a01b0319166001600160a01b038a1617905590925082917fb5e6e01e79f91267dc17b4e6314d5d4d03593d2ceee0fbb452b750bd70ea5af99190a2600254604051630200057560e51b81526001600160a01b0390911690634000aea0906108c590889087908790600401610ead565b6020604051808303816000875af11580156108e4573d6000803e3d6000fd5b505050506040513d601f19601f820116820180604052508101906109089190610ed4565b6105af5760405162461bcd60e51b815260206004820152602360248201527f756e61626c6520746f207472616e73666572416e6443616c6c20746f206f7261604482015262636c6560e81b606482015260840161016e565b6040805180820190915260608152600060208201526104698384600001515184610a95565b6040805180820190915260608152600060208201526105af848560000151518585610af0565b60408051808201909152606081526000602082015282518211156109ce57600080fd5b60208501516109dd8386610dfd565b1115610a1057610a1085610a00876020015187866109fb9190610dfd565b610b71565b610a0b906002610ef6565b610b88565b600080865180518760208301019350808887011115610a2f5787860182525b505050602084015b60208410610a6f5780518252610a4e602083610dfd565b9150610a5b602082610dfd565b9050610a68602085610e9a565b9350610a37565b51815160001960208690036101000a019081169019919091161790525083949350505050565b60408051808201909152606081526000602082015283602001518310610aca57610aca8485602001516002610a0b9190610ef6565b8351805160208583010184815350808503610ae6576001810182525b5093949350505050565b6040805180820190915260608152600060208201526020850151610b148584610dfd565b1115610b2857610b2885610a008685610dfd565b60006001610b3884610100610ff1565b610b429190610e9a565b9050855183868201018583198251161781525080518487011115610b665783860181525b509495945050505050565b600081831115610b8257508161046c565b50919050565b8151610b948383610661565b506106eb83826107db565b6040805160a0810182526000808252602080830182905282840182905260608084018390528451808601909552845283015290608082015290565b634e487b7160e01b600052604160045260246000fd5b600082601f830112610c0157600080fd5b813567ffffffffffffffff80821115610c1c57610c1c610bda565b604051601f8301601f19908116603f01168101908282118183101715610c4457610c44610bda565b81604052838152866020858801011115610c5d57600080fd5b836020870160208301376000602085830101528094505050505092915050565b60008060408385031215610c9057600080fd5b82359150602083013567ffffffffffffffff811115610cae57600080fd5b610cba85828601610bf0565b9150509250929050565b600060208284031215610cd657600080fd5b813567ffffffffffffffff811115610ced57600080fd5b6105af84828501610bf0565b600060208284031215610d0b57600080fd5b81356001600160a01b03811681146103ec57600080fd5b60005b83811015610d3d578181015183820152602001610d25565b50506000910152565b60008151808452610d5e816020860160208601610d22565b601f01601f19169290920160200192915050565b6020815260006104696020830184610d46565b7f68747470733a2f2f706f737465726974792d77616c6c65742e76657263656c2e8152736170702f6170692f6765744350462f3f6370663d60601b602082015260008251610dda816034850160208701610d22565b9190910160340192915050565b634e487b7160e01b600052601160045260246000fd5b8082018082111561046c5761046c610de7565b6001600160a01b0389811682526020820189905260408201889052861660608201526001600160e01b03198516608082015260a0810184905260c0810183905261010060e08201819052600090610e6983820185610d46565b9b9a5050505050505050505050565b600082610e9557634e487b7160e01b600052601260045260246000fd5b500690565b8181038181111561046c5761046c610de7565b60018060a01b03841681528260208201526060604082015260006104236060830184610d46565b600060208284031215610ee657600080fd5b815180151581146103ec57600080fd5b808202811582820484141761046c5761046c610de7565b600181815b80851115610f48578160001904821115610f2e57610f2e610de7565b80851615610f3b57918102915b93841c9390800290610f12565b509250929050565b600082610f5f5750600161046c565b81610f6c5750600061046c565b8160018114610f825760028114610f8c57610fa8565b600191505061046c565b60ff841115610f9d57610f9d610de7565b50506001821b61046c565b5060208310610133831016604e8410600b8410161715610fcb575081810a61046c565b610fd58383610f0d565b8060001904821115610fe957610fe9610de7565b029392505050565b60006104698383610f5056fea26469706673582212204c55c307df1f35292d1e6408c7c657afe299671be1fa5d32799cb5c6537a9ac964736f6c63430008110033",
  "linkReferences": {},
  "deployedLinkReferences": {}
}