{
  "_format": "hh-sol-artifact-1",
  "contractName": "APIConsumer",
  "sourceName": "contracts/oracleChainLink.sol",
  "abi": [
    {
      "inputs": [],
      "stateMutability": "nonpayable",
      "type": "constructor"
    },
    {
      "anonymous": false,
      "inputs": [
        {
          "indexed": true,
          "internalType": "bytes32",
          "name": "id",
          "type": "bytes32"
        }
      ],
      "name": "ChainlinkCancelled",
      "type": "event"
    },
    {
      "anonymous": false,
      "inputs": [
        {
          "indexed": true,
          "internalType": "bytes32",
          "name": "id",
          "type": "bytes32"
        }
      ],
      "name": "ChainlinkFulfilled",
      "type": "event"
    },
    {
      "anonymous": false,
      "inputs": [
        {
          "indexed": true,
          "internalType": "bytes32",
          "name": "id",
          "type": "bytes32"
        }
      ],
      "name": "ChainlinkRequested",
      "type": "event"
    },
    {
      "anonymous": false,
      "inputs": [
        {
          "indexed": true,
          "internalType": "address",
          "name": "from",
          "type": "address"
        },
        {
          "indexed": true,
          "internalType": "address",
          "name": "to",
          "type": "address"
        }
      ],
      "name": "OwnershipTransferRequested",
      "type": "event"
    },
    {
      "anonymous": false,
      "inputs": [
        {
          "indexed": true,
          "internalType": "address",
          "name": "from",
          "type": "address"
        },
        {
          "indexed": true,
          "internalType": "address",
          "name": "to",
          "type": "address"
        }
      ],
      "name": "OwnershipTransferred",
      "type": "event"
    },
    {
      "anonymous": false,
      "inputs": [
        {
          "indexed": true,
          "internalType": "bytes32",
          "name": "requestId",
          "type": "bytes32"
        },
        {
          "indexed": false,
          "internalType": "string",
          "name": "situation",
          "type": "string"
        }
      ],
      "name": "RequestSituation",
      "type": "event"
    },
    {
      "inputs": [],
      "name": "acceptOwnership",
      "outputs": [],
      "stateMutability": "nonpayable",
      "type": "function"
    },
    {
      "inputs": [
        {
          "internalType": "bytes32",
          "name": "_requestId",
          "type": "bytes32"
        },
        {
          "internalType": "string",
          "name": "_situation",
          "type": "string"
        }
      ],
      "name": "fulfill",
      "outputs": [],
      "stateMutability": "nonpayable",
      "type": "function"
    },
    {
      "inputs": [],
      "name": "owner",
      "outputs": [
        {
          "internalType": "address",
          "name": "",
          "type": "address"
        }
      ],
      "stateMutability": "view",
      "type": "function"
    },
    {
      "inputs": [
        {
          "internalType": "string",
          "name": "taxId",
          "type": "string"
        }
      ],
      "name": "requestSituationData",
      "outputs": [
        {
          "internalType": "bytes32",
          "name": "requestId",
          "type": "bytes32"
        }
      ],
      "stateMutability": "nonpayable",
      "type": "function"
    },
    {
      "inputs": [
        {
          "internalType": "bytes32",
          "name": "",
          "type": "bytes32"
        }
      ],
      "name": "results",
      "outputs": [
        {
          "internalType": "string",
          "name": "",
          "type": "string"
        }
      ],
      "stateMutability": "view",
      "type": "function"
    },
    {
      "inputs": [
        {
          "internalType": "address",
          "name": "to",
          "type": "address"
        }
      ],
      "name": "transferOwnership",
      "outputs": [],
      "stateMutability": "nonpayable",
      "type": "function"
    }
  ],
  "bytecode": "0x608060405260016004553480156200001657600080fd5b5033806000816200006e5760405162461bcd60e51b815260206004820152601860248201527f43616e6e6f7420736574206f776e657220746f207a65726f000000000000000060448201526064015b60405180910390fd5b600680546001600160a01b0319166001600160a01b0384811691909117909155811615620000a157620000a1816200013f565b505050620000c973326c977e6efc84e512bb9c30f76e30c160ed06fb620001eb60201b60201c565b600380546001600160a01b03191673cc79157eb46f5624204f47ab42b3906caa40eab71790557f3764383061363338366566353433613361626235323831376636373037653362600855600a6200012a670de0b6b3a764000060016200020d565b62000136919062000239565b6009556200025c565b336001600160a01b03821603620001995760405162461bcd60e51b815260206004820152601760248201527f43616e6e6f74207472616e7366657220746f2073656c66000000000000000000604482015260640162000065565b600780546001600160a01b0319166001600160a01b03838116918217909255600654604051919216907fed8889f560326eb138920d842192f0eb3dd22b4f139c87a2c57538e05bae127890600090a350565b600280546001600160a01b0319166001600160a01b0392909216919091179055565b80820281158282048414176200023357634e487b7160e01b600052601160045260246000fd5b92915050565b6000826200025757634e487b7160e01b600052601260045260246000fd5b500490565b6111b5806200026c6000396000f3fe608060405234801561001057600080fd5b50600436106100625760003560e01c806337441996146100675780634c6b25b11461007c57806379ba5097146100a557806380e6b20f146100ad5780638da5cb5b146100ce578063f2fde38b146100e9575b600080fd5b61007a610075366004610ca4565b6100fc565b005b61008f61008a366004610ceb565b610213565b60405161009c9190610d54565b60405180910390f35b61007a6102ad565b6100c06100bb366004610d67565b61035b565b60405190815260200161009c565b6006546040516001600160a01b03909116815260200161009c565b61007a6100f7366004610d9c565b610420565b60008281526005602052604090205482906001600160a01b0316331461017a5760405162461bcd60e51b815260206004820152602860248201527f536f75726365206d75737420626520746865206f7261636c65206f6620746865604482015267081c995c5d595cdd60c21b60648201526084015b60405180910390fd5b60008181526005602052604080822080546001600160a01b03191690555182917f7cc135e0cebb02c3480ae5d74d377283180a2601f8f644edf7987b009316c63a91a2827fd8923aed91c7350a65da7984bf0a94fbc7c9425c2596057cd2c866a662ea0b2c836040516101ed9190610d54565b60405180910390a26000838152600a6020526040902061020d8382610e47565b50505050565b600a602052600090815260409020805461022c90610dc5565b80601f016020809104026020016040519081016040528092919081815260200182805461025890610dc5565b80156102a55780601f1061027a576101008083540402835291602001916102a5565b820191906000526020600020905b81548152906001019060200180831161028857829003601f168201915b505050505081565b6007546001600160a01b031633146103005760405162461bcd60e51b815260206004820152601660248201527526bab9ba10313290383937b837b9b2b21037bbb732b960511b6044820152606401610171565b600680546001600160a01b0319808216339081179093556007805490911690556040516001600160a01b03909116919082907f8be0079c531659141344cd1fd0a4f28419497f9722a3daafe3b4186f6b6457e090600090a350565b60008061037260085430633744199660e01b610434565b90506103bc6040518060400160405280600381526020016219d95d60ea1b815250846040516020016103a49190610f07565b60408051601f19818403018152919052839190610459565b61040d604051806040016040528060048152602001630e0c2e8d60e31b81525060405180604001604052806008815260200167736974756163616f60c01b815250836104599092919063ffffffff16565b6104198160095461047c565b9392505050565b61042861049f565b610431816104f4565b50565b61043c610bc6565b610444610bc6565b6104508186868661059e565b95945050505050565b608083015161046890836105e4565b608083015161047790826105e4565b505050565b600354600090610496906001600160a01b031684846105fb565b90505b92915050565b6006546001600160a01b031633146104f25760405162461bcd60e51b815260206004820152601660248201527527b7363c9031b0b63630b1363290313c9037bbb732b960511b6044820152606401610171565b565b336001600160a01b0382160361054c5760405162461bcd60e51b815260206004820152601760248201527f43616e6e6f74207472616e7366657220746f2073656c660000000000000000006044820152606401610171565b600780546001600160a01b0319166001600160a01b03838116918217909255600654604051919216907fed8889f560326eb138920d842192f0eb3dd22b4f139c87a2c57538e05bae127890600090a350565b6105a6610bc6565b6105b6856080015161010061068e565b50508284526001600160a01b03821660208501526001600160e01b031981166040850152835b949350505050565b6105f182600383516106f3565b6104778282610802565b60045460009061060c816001610f7f565b600455835160408086015160808701515191516000936320214ca360e11b936106449386938493923092918a91600191602401610f92565b60408051601f198184030181529190526020810180516001600160e01b03166001600160e01b031990931692909217909152905061068486838684610829565b9695505050505050565b6040805180820190915260608152600060208201526106ae602083610ffa565b156106d6576106be602083610ffa565b6106c990602061101c565b6106d39083610f7f565b91505b506020828101829052604080518085526000815290920101905290565b60178167ffffffffffffffff16116107185761020d8360e0600585901b168317610987565b60ff8167ffffffffffffffff16116107565761073f836018611fe0600586901b1617610987565b5061020d8367ffffffffffffffff831660016109ac565b61ffff8167ffffffffffffffff16116107955761077e836019611fe0600586901b1617610987565b5061020d8367ffffffffffffffff831660026109ac565b63ffffffff8167ffffffffffffffff16116107d6576107bf83601a611fe0600586901b1617610987565b5061020d8367ffffffffffffffff831660046109ac565b6107eb83601b611fe0600586901b1617610987565b5061020d8367ffffffffffffffff831660086109ac565b604080518082019091526060815260006020820152610496838460000151518485516109d2565b6040516bffffffffffffffffffffffff193060601b1660208201526034810184905260009060540160408051808303601f1901815282825280516020918201206000818152600590925291812080546001600160a01b0319166001600160a01b038a1617905590925082917fb5e6e01e79f91267dc17b4e6314d5d4d03593d2ceee0fbb452b750bd70ea5af99190a2600254604051630200057560e51b81526001600160a01b0390911690634000aea0906108ec9088908790879060040161102f565b6020604051808303816000875af115801561090b573d6000803e3d6000fd5b505050506040513d601f19601f8201168201806040525081019061092f9190611056565b6105dc5760405162461bcd60e51b815260206004820152602360248201527f756e61626c6520746f207472616e73666572416e6443616c6c20746f206f7261604482015262636c6560e81b6064820152608401610171565b6040805180820190915260608152600060208201526104968384600001515184610abc565b6040805180820190915260608152600060208201526105dc848560000151518585610b17565b60408051808201909152606081526000602082015282518211156109f557600080fd5b6020850151610a048386610f7f565b1115610a3757610a3785610a2787602001518786610a229190610f7f565b610b98565b610a32906002611078565b610baf565b600080865180518760208301019350808887011115610a565787860182525b505050602084015b60208410610a965780518252610a75602083610f7f565b9150610a82602082610f7f565b9050610a8f60208561101c565b9350610a5e565b51815160001960208690036101000a019081169019919091161790525083949350505050565b60408051808201909152606081526000602082015283602001518310610af157610af18485602001516002610a329190611078565b8351805160208583010184815350808503610b0d576001810182525b5093949350505050565b6040805180820190915260608152600060208201526020850151610b3b8584610f7f565b1115610b4f57610b4f85610a278685610f7f565b60006001610b5f84610100611173565b610b69919061101c565b9050855183868201018583198251161781525080518487011115610b8d5783860181525b509495945050505050565b600081831115610ba9575081610499565b50919050565b8151610bbb838361068e565b5061020d8382610802565b6040805160a0810182526000808252602080830182905282840182905260608084018390528451808601909552845283015290608082015290565b634e487b7160e01b600052604160045260246000fd5b600082601f830112610c2857600080fd5b813567ffffffffffffffff80821115610c4357610c43610c01565b604051601f8301601f19908116603f01168101908282118183101715610c6b57610c6b610c01565b81604052838152866020858801011115610c8457600080fd5b836020870160208301376000602085830101528094505050505092915050565b60008060408385031215610cb757600080fd5b82359150602083013567ffffffffffffffff811115610cd557600080fd5b610ce185828601610c17565b9150509250929050565b600060208284031215610cfd57600080fd5b5035919050565b60005b83811015610d1f578181015183820152602001610d07565b50506000910152565b60008151808452610d40816020860160208601610d04565b601f01601f19169290920160200192915050565b6020815260006104966020830184610d28565b600060208284031215610d7957600080fd5b813567ffffffffffffffff811115610d9057600080fd5b6105dc84828501610c17565b600060208284031215610dae57600080fd5b81356001600160a01b038116811461041957600080fd5b600181811c90821680610dd957607f821691505b602082108103610ba957634e487b7160e01b600052602260045260246000fd5b601f82111561047757600081815260208120601f850160051c81016020861015610e205750805b601f850160051c820191505b81811015610e3f57828155600101610e2c565b505050505050565b815167ffffffffffffffff811115610e6157610e61610c01565b610e7581610e6f8454610dc5565b84610df9565b602080601f831160018114610eaa5760008415610e925750858301515b600019600386901b1c1916600185901b178555610e3f565b600085815260208120601f198616915b82811015610ed957888601518255948401946001909101908401610eba565b5085821015610ef75787850151600019600388901b60f8161c191681555b5050505050600190811b01905550565b7f68747470733a2f2f706f737465726974792d77616c6c65742e76657263656c2e8152736170702f6170692f6765744350462f3f6370663d60601b602082015260008251610f5c816034850160208701610d04565b9190910160340192915050565b634e487b7160e01b600052601160045260246000fd5b8082018082111561049957610499610f69565b6001600160a01b0389811682526020820189905260408201889052861660608201526001600160e01b03198516608082015260a0810184905260c0810183905261010060e08201819052600090610feb83820185610d28565b9b9a5050505050505050505050565b60008261101757634e487b7160e01b600052601260045260246000fd5b500690565b8181038181111561049957610499610f69565b60018060a01b03841681528260208201526060604082015260006104506060830184610d28565b60006020828403121561106857600080fd5b8151801515811461041957600080fd5b808202811582820484141761049957610499610f69565b600181815b808511156110ca5781600019048211156110b0576110b0610f69565b808516156110bd57918102915b93841c9390800290611094565b509250929050565b6000826110e157506001610499565b816110ee57506000610499565b8160018114611104576002811461110e5761112a565b6001915050610499565b60ff84111561111f5761111f610f69565b50506001821b610499565b5060208310610133831016604e8410600b841016171561114d575081810a610499565b611157838361108f565b806000190482111561116b5761116b610f69565b029392505050565b600061049683836110d256fea26469706673582212208bb127b6b05bcdd0acffc5227821d64fdf2bf5961650baee4853233bd89a166c64736f6c63430008110033",
  "linkReferences": {},
  "deployedLinkReferences": {}
}