{
  "_format": "hh-sol-artifact-1",
  "contractName": "FetchFromArray",
  "sourceName": "contracts/oracleChainLink.sol",
  "abi": [
    {
      "inputs": [],
      "stateMutability": "nonpayable",
      "type": "constructor"
    },
    {
      "anonymous": false,
      "inputs": [
        {
          "indexed": true,
          "internalType": "bytes32",
          "name": "id",
          "type": "bytes32"
        }
      ],
      "name": "ChainlinkCancelled",
      "type": "event"
    },
    {
      "anonymous": false,
      "inputs": [
        {
          "indexed": true,
          "internalType": "bytes32",
          "name": "id",
          "type": "bytes32"
        }
      ],
      "name": "ChainlinkFulfilled",
      "type": "event"
    },
    {
      "anonymous": false,
      "inputs": [
        {
          "indexed": true,
          "internalType": "bytes32",
          "name": "id",
          "type": "bytes32"
        }
      ],
      "name": "ChainlinkRequested",
      "type": "event"
    },
    {
      "anonymous": false,
      "inputs": [
        {
          "indexed": true,
          "internalType": "address",
          "name": "from",
          "type": "address"
        },
        {
          "indexed": true,
          "internalType": "address",
          "name": "to",
          "type": "address"
        }
      ],
      "name": "OwnershipTransferRequested",
      "type": "event"
    },
    {
      "anonymous": false,
      "inputs": [
        {
          "indexed": true,
          "internalType": "address",
          "name": "from",
          "type": "address"
        },
        {
          "indexed": true,
          "internalType": "address",
          "name": "to",
          "type": "address"
        }
      ],
      "name": "OwnershipTransferred",
      "type": "event"
    },
    {
      "anonymous": false,
      "inputs": [
        {
          "indexed": true,
          "internalType": "bytes32",
          "name": "requestId",
          "type": "bytes32"
        },
        {
          "indexed": false,
          "internalType": "string",
          "name": "id",
          "type": "string"
        }
      ],
      "name": "RequestFirstId",
      "type": "event"
    },
    {
      "inputs": [],
      "name": "acceptOwnership",
      "outputs": [],
      "stateMutability": "nonpayable",
      "type": "function"
    },
    {
      "inputs": [],
      "name": "data",
      "outputs": [
        {
          "internalType": "bytes",
          "name": "",
          "type": "bytes"
        }
      ],
      "stateMutability": "view",
      "type": "function"
    },
    {
      "inputs": [
        {
          "internalType": "bytes32",
          "name": "requestId",
          "type": "bytes32"
        },
        {
          "internalType": "string",
          "name": "_situacao",
          "type": "string"
        }
      ],
      "name": "fulfill",
      "outputs": [],
      "stateMutability": "nonpayable",
      "type": "function"
    },
    {
      "inputs": [
        {
          "internalType": "string",
          "name": "taxId",
          "type": "string"
        }
      ],
      "name": "getVerify",
      "outputs": [
        {
          "internalType": "string",
          "name": "",
          "type": "string"
        }
      ],
      "stateMutability": "nonpayable",
      "type": "function"
    },
    {
      "inputs": [],
      "name": "id",
      "outputs": [
        {
          "internalType": "string",
          "name": "",
          "type": "string"
        }
      ],
      "stateMutability": "view",
      "type": "function"
    },
    {
      "inputs": [],
      "name": "owner",
      "outputs": [
        {
          "internalType": "address",
          "name": "",
          "type": "address"
        }
      ],
      "stateMutability": "view",
      "type": "function"
    },
    {
      "inputs": [
        {
          "internalType": "string",
          "name": "taxId",
          "type": "string"
        }
      ],
      "name": "request",
      "outputs": [],
      "stateMutability": "nonpayable",
      "type": "function"
    },
    {
      "inputs": [],
      "name": "situacao",
      "outputs": [
        {
          "internalType": "string",
          "name": "",
          "type": "string"
        }
      ],
      "stateMutability": "view",
      "type": "function"
    },
    {
      "inputs": [
        {
          "internalType": "address",
          "name": "to",
          "type": "address"
        }
      ],
      "name": "transferOwnership",
      "outputs": [],
      "stateMutability": "nonpayable",
      "type": "function"
    },
    {
      "inputs": [],
      "name": "verify",
      "outputs": [
        {
          "internalType": "string",
          "name": "",
          "type": "string"
        }
      ],
      "stateMutability": "view",
      "type": "function"
    }
  ],
  "bytecode": "0x608060405260016004553480156200001657600080fd5b5033806000816200006e5760405162461bcd60e51b815260206004820152601860248201527f43616e6e6f7420736574206f776e657220746f207a65726f000000000000000060448201526064015b60405180910390fd5b600680546001600160a01b0319166001600160a01b0384811691909117909155811615620000a157620000a1816200013f565b505050620000c973326c977e6efc84e512bb9c30f76e30c160ed06fb620001eb60201b60201c565b600380546001600160a01b03191673cc79157eb46f5624204f47ab42b3906caa40eab71790557f6361393833363663633733313439353762386330313263373266303561656562600c55600a6200012a670de0b6b3a764000060016200020d565b62000136919062000239565b600d556200025c565b336001600160a01b03821603620001995760405162461bcd60e51b815260206004820152601760248201527f43616e6e6f74207472616e7366657220746f2073656c66000000000000000000604482015260640162000065565b600780546001600160a01b0319166001600160a01b03838116918217909255600654604051919216907fed8889f560326eb138920d842192f0eb3dd22b4f139c87a2c57538e05bae127890600090a350565b600280546001600160a01b0319166001600160a01b0392909216919091179055565b80820281158282048414176200023357634e487b7160e01b600052601160045260246000fd5b92915050565b6000826200025757634e487b7160e01b600052601260045260246000fd5b500490565b611278806200026c6000396000f3fe608060405234801561001057600080fd5b506004361061009e5760003560e01c80638da5cb5b116100665780638da5cb5b14610104578063af640d0f1461011f578063f2fde38b14610127578063fc735e991461013a578063ffca65151461014257600080fd5b80632c199889146100a357806337441996146100b8578063634b985c146100cb57806373d4a13a146100f457806379ba5097146100fc575b600080fd5b6100b66100b1366004610d9a565b61014a565b005b6100b66100c6366004610dcf565b610248565b6100de6100d9366004610d9a565b61031b565b6040516100eb9190610e5c565b60405180910390f35b6100de6103b8565b6100b6610446565b6006546040516001600160a01b0390911681526020016100eb565b6100de6104f4565b6100b6610135366004610e6f565b610501565b6100de610515565b6100de610522565b6000610160600c5430633744199660e01b61052f565b90506101a26040518060400160405280600381526020016219d95d60ea1b8152506040518060600160405280602f8152602001611214602f9139839190610554565b6040805180820190915260058152641d185e125960da1b60208201526101ca90829084610554565b61021b604051806040016040528060048152602001630e0c2e8d60e31b81525060405180604001604052806008815260200167736974756163616f60c01b815250836105549092919063ffffffff16565b61024381600a610234670de0b6b3a76400006001610eb5565b61023e9190610ee2565b610572565b505050565b60008281526005602052604090205482906001600160a01b031633146102c65760405162461bcd60e51b815260206004820152602860248201527f536f75726365206d75737420626520746865206f7261636c65206f6620746865604482015267081c995c5d595cdd60c21b60648201526084015b60405180910390fd5b60008181526005602052604080822080546001600160a01b03191690555182917f7cc135e0cebb02c3480ae5d74d377283180a2601f8f644edf7987b009316c63a91a2600b6103158382610f78565b50505050565b60606103268261014a565b600b805461033390610ef6565b80601f016020809104026020016040519081016040528092919081815260200182805461035f90610ef6565b80156103ac5780601f10610381576101008083540402835291602001916103ac565b820191906000526020600020905b81548152906001019060200180831161038f57829003601f168201915b50505050509050919050565b600980546103c590610ef6565b80601f01602080910402602001604051908101604052809291908181526020018280546103f190610ef6565b801561043e5780601f106104135761010080835404028352916020019161043e565b820191906000526020600020905b81548152906001019060200180831161042157829003601f168201915b505050505081565b6007546001600160a01b031633146104995760405162461bcd60e51b815260206004820152601660248201527526bab9ba10313290383937b837b9b2b21037bbb732b960511b60448201526064016102bd565b600680546001600160a01b0319808216339081179093556007805490911690556040516001600160a01b03909116919082907f8be0079c531659141344cd1fd0a4f28419497f9722a3daafe3b4186f6b6457e090600090a350565b600880546103c590610ef6565b610509610595565b610512816105ea565b50565b600a80546103c590610ef6565b600b80546103c590610ef6565b610537610cbc565b61053f610cbc565b61054b81868686610694565b95945050505050565b608083015161056390836106da565b608083015161024390826106da565b60035460009061058c906001600160a01b031684846106f1565b90505b92915050565b6006546001600160a01b031633146105e85760405162461bcd60e51b815260206004820152601660248201527527b7363c9031b0b63630b1363290313c9037bbb732b960511b60448201526064016102bd565b565b336001600160a01b038216036106425760405162461bcd60e51b815260206004820152601760248201527f43616e6e6f74207472616e7366657220746f2073656c6600000000000000000060448201526064016102bd565b600780546001600160a01b0319166001600160a01b03838116918217909255600654604051919216907fed8889f560326eb138920d842192f0eb3dd22b4f139c87a2c57538e05bae127890600090a350565b61069c610cbc565b6106ac8560800151610100610784565b50508284526001600160a01b03821660208501526001600160e01b031981166040850152835b949350505050565b6106e782600383516107e9565b61024382826108f8565b600454600090610702816001611038565b600455835160408086015160808701515191516000936320214ca360e11b9361073a9386938493923092918a9160019160240161104b565b60408051601f198184030181529190526020810180516001600160e01b03166001600160e01b031990931692909217909152905061077a8683868461091f565b9695505050505050565b6040805180820190915260608152600060208201526107a46020836110b3565b156107cc576107b46020836110b3565b6107bf9060206110c7565b6107c99083611038565b91505b506020828101829052604080518085526000815290920101905290565b60178167ffffffffffffffff161161080e576103158360e0600585901b168317610a7d565b60ff8167ffffffffffffffff161161084c57610835836018611fe0600586901b1617610a7d565b506103158367ffffffffffffffff83166001610aa2565b61ffff8167ffffffffffffffff161161088b57610874836019611fe0600586901b1617610a7d565b506103158367ffffffffffffffff83166002610aa2565b63ffffffff8167ffffffffffffffff16116108cc576108b583601a611fe0600586901b1617610a7d565b506103158367ffffffffffffffff83166004610aa2565b6108e183601b611fe0600586901b1617610a7d565b506103158367ffffffffffffffff83166008610aa2565b60408051808201909152606081526000602082015261058c83846000015151848551610ac8565b6040516bffffffffffffffffffffffff193060601b1660208201526034810184905260009060540160408051808303601f1901815282825280516020918201206000818152600590925291812080546001600160a01b0319166001600160a01b038a1617905590925082917fb5e6e01e79f91267dc17b4e6314d5d4d03593d2ceee0fbb452b750bd70ea5af99190a2600254604051630200057560e51b81526001600160a01b0390911690634000aea0906109e2908890879087906004016110da565b6020604051808303816000875af1158015610a01573d6000803e3d6000fd5b505050506040513d601f19601f82011682018060405250810190610a259190611101565b6106d25760405162461bcd60e51b815260206004820152602360248201527f756e61626c6520746f207472616e73666572416e6443616c6c20746f206f7261604482015262636c6560e81b60648201526084016102bd565b60408051808201909152606081526000602082015261058c8384600001515184610bb2565b6040805180820190915260608152600060208201526106d2848560000151518585610c0d565b6040805180820190915260608152600060208201528251821115610aeb57600080fd5b6020850151610afa8386611038565b1115610b2d57610b2d85610b1d87602001518786610b189190611038565b610c8e565b610b28906002610eb5565b610ca5565b600080865180518760208301019350808887011115610b4c5787860182525b505050602084015b60208410610b8c5780518252610b6b602083611038565b9150610b78602082611038565b9050610b856020856110c7565b9350610b54565b51815160001960208690036101000a019081169019919091161790525083949350505050565b60408051808201909152606081526000602082015283602001518310610be757610be78485602001516002610b289190610eb5565b8351805160208583010184815350808503610c03576001810182525b5093949350505050565b6040805180820190915260608152600060208201526020850151610c318584611038565b1115610c4557610c4585610b1d8685611038565b60006001610c5584610100611207565b610c5f91906110c7565b9050855183868201018583198251161781525080518487011115610c835783860181525b509495945050505050565b600081831115610c9f57508161058f565b50919050565b8151610cb18383610784565b5061031583826108f8565b6040805160a0810182526000808252602080830182905282840182905260608084018390528451808601909552845283015290608082015290565b634e487b7160e01b600052604160045260246000fd5b600082601f830112610d1e57600080fd5b813567ffffffffffffffff80821115610d3957610d39610cf7565b604051601f8301601f19908116603f01168101908282118183101715610d6157610d61610cf7565b81604052838152866020858801011115610d7a57600080fd5b836020870160208301376000602085830101528094505050505092915050565b600060208284031215610dac57600080fd5b813567ffffffffffffffff811115610dc357600080fd5b6106d284828501610d0d565b60008060408385031215610de257600080fd5b82359150602083013567ffffffffffffffff811115610e0057600080fd5b610e0c85828601610d0d565b9150509250929050565b6000815180845260005b81811015610e3c57602081850181015186830182015201610e20565b506000602082860101526020601f19601f83011685010191505092915050565b60208152600061058c6020830184610e16565b600060208284031215610e8157600080fd5b81356001600160a01b0381168114610e9857600080fd5b9392505050565b634e487b7160e01b600052601160045260246000fd5b808202811582820484141761058f5761058f610e9f565b634e487b7160e01b600052601260045260246000fd5b600082610ef157610ef1610ecc565b500490565b600181811c90821680610f0a57607f821691505b602082108103610c9f57634e487b7160e01b600052602260045260246000fd5b601f82111561024357600081815260208120601f850160051c81016020861015610f515750805b601f850160051c820191505b81811015610f7057828155600101610f5d565b505050505050565b815167ffffffffffffffff811115610f9257610f92610cf7565b610fa681610fa08454610ef6565b84610f2a565b602080601f831160018114610fdb5760008415610fc35750858301515b600019600386901b1c1916600185901b178555610f70565b600085815260208120601f198616915b8281101561100a57888601518255948401946001909101908401610feb565b50858210156110285787850151600019600388901b60f8161c191681555b5050505050600190811b01905550565b8082018082111561058f5761058f610e9f565b6001600160a01b0389811682526020820189905260408201889052861660608201526001600160e01b03198516608082015260a0810184905260c0810183905261010060e082018190526000906110a483820185610e16565b9b9a5050505050505050505050565b6000826110c2576110c2610ecc565b500690565b8181038181111561058f5761058f610e9f565b60018060a01b038416815282602082015260606040820152600061054b6060830184610e16565b60006020828403121561111357600080fd5b81518015158114610e9857600080fd5b600181815b8085111561115e57816000190482111561114457611144610e9f565b8085161561115157918102915b93841c9390800290611128565b509250929050565b6000826111755750600161058f565b816111825750600061058f565b816001811461119857600281146111a2576111be565b600191505061058f565b60ff8411156111b3576111b3610e9f565b50506001821b61058f565b5060208310610133831016604e8410600b84101617156111e1575081810a61058f565b6111eb8383611123565b80600019048211156111ff576111ff610e9f565b029392505050565b600061058c838361116656fe68747470733a2f2f706f737465726974792d77616c6c65742e76657263656c2e6170702f6170692f6765744350462fa264697066735822122065a4db3c296a914de2b75bb0930a24581ea4fb0b19c711f6b0af1c9127953f3064736f6c63430008110033",
  "linkReferences": {},
  "deployedLinkReferences": {}
}