{
  "_format": "hh-sol-artifact-1",
  "contractName": "FetchFromArray",
  "sourceName": "contracts/oracleChainLink.sol",
  "abi": [
    {
      "inputs": [],
      "stateMutability": "nonpayable",
      "type": "constructor"
    },
    {
      "anonymous": false,
      "inputs": [
        {
          "indexed": true,
          "internalType": "bytes32",
          "name": "id",
          "type": "bytes32"
        }
      ],
      "name": "ChainlinkCancelled",
      "type": "event"
    },
    {
      "anonymous": false,
      "inputs": [
        {
          "indexed": true,
          "internalType": "bytes32",
          "name": "id",
          "type": "bytes32"
        }
      ],
      "name": "ChainlinkFulfilled",
      "type": "event"
    },
    {
      "anonymous": false,
      "inputs": [
        {
          "indexed": true,
          "internalType": "bytes32",
          "name": "id",
          "type": "bytes32"
        }
      ],
      "name": "ChainlinkRequested",
      "type": "event"
    },
    {
      "anonymous": false,
      "inputs": [
        {
          "indexed": true,
          "internalType": "address",
          "name": "from",
          "type": "address"
        },
        {
          "indexed": true,
          "internalType": "address",
          "name": "to",
          "type": "address"
        }
      ],
      "name": "OwnershipTransferRequested",
      "type": "event"
    },
    {
      "anonymous": false,
      "inputs": [
        {
          "indexed": true,
          "internalType": "address",
          "name": "from",
          "type": "address"
        },
        {
          "indexed": true,
          "internalType": "address",
          "name": "to",
          "type": "address"
        }
      ],
      "name": "OwnershipTransferred",
      "type": "event"
    },
    {
      "anonymous": false,
      "inputs": [
        {
          "indexed": true,
          "internalType": "bytes32",
          "name": "requestId",
          "type": "bytes32"
        },
        {
          "indexed": false,
          "internalType": "string",
          "name": "id",
          "type": "string"
        }
      ],
      "name": "RequestFirstId",
      "type": "event"
    },
    {
      "inputs": [],
      "name": "acceptOwnership",
      "outputs": [],
      "stateMutability": "nonpayable",
      "type": "function"
    },
    {
      "inputs": [],
      "name": "data",
      "outputs": [
        {
          "internalType": "bytes",
          "name": "",
          "type": "bytes"
        }
      ],
      "stateMutability": "view",
      "type": "function"
    },
    {
      "inputs": [
        {
          "internalType": "bytes32",
          "name": "requestId",
          "type": "bytes32"
        },
        {
          "internalType": "bytes",
          "name": "bytesData",
          "type": "bytes"
        }
      ],
      "name": "fulfill",
      "outputs": [],
      "stateMutability": "nonpayable",
      "type": "function"
    },
    {
      "inputs": [],
      "name": "getVerify",
      "outputs": [
        {
          "internalType": "string",
          "name": "",
          "type": "string"
        }
      ],
      "stateMutability": "view",
      "type": "function"
    },
    {
      "inputs": [],
      "name": "id",
      "outputs": [
        {
          "internalType": "string",
          "name": "",
          "type": "string"
        }
      ],
      "stateMutability": "view",
      "type": "function"
    },
    {
      "inputs": [],
      "name": "owner",
      "outputs": [
        {
          "internalType": "address",
          "name": "",
          "type": "address"
        }
      ],
      "stateMutability": "view",
      "type": "function"
    },
    {
      "inputs": [],
      "name": "request",
      "outputs": [],
      "stateMutability": "nonpayable",
      "type": "function"
    },
    {
      "inputs": [
        {
          "internalType": "address",
          "name": "to",
          "type": "address"
        }
      ],
      "name": "transferOwnership",
      "outputs": [],
      "stateMutability": "nonpayable",
      "type": "function"
    },
    {
      "inputs": [],
      "name": "verify",
      "outputs": [
        {
          "internalType": "string",
          "name": "",
          "type": "string"
        }
      ],
      "stateMutability": "view",
      "type": "function"
    }
  ],
  "bytecode": "0x608060405260016004553480156200001657600080fd5b5033806000816200006e5760405162461bcd60e51b815260206004820152601860248201527f43616e6e6f7420736574206f776e657220746f207a65726f000000000000000060448201526064015b60405180910390fd5b600680546001600160a01b0319166001600160a01b0384811691909117909155811615620000a157620000a1816200013f565b505050620000c973326c977e6efc84e512bb9c30f76e30c160ed06fb620001eb60201b60201c565b600380546001600160a01b03191673cc79157eb46f5624204f47ab42b3906caa40eab71790557f3764613237303266333766643438653562316239613537313565333530396236600b55600a6200012a670de0b6b3a764000060016200020d565b62000136919062000239565b600c556200025c565b336001600160a01b03821603620001995760405162461bcd60e51b815260206004820152601760248201527f43616e6e6f74207472616e7366657220746f2073656c66000000000000000000604482015260640162000065565b600780546001600160a01b0319166001600160a01b03838116918217909255600654604051919216907fed8889f560326eb138920d842192f0eb3dd22b4f139c87a2c57538e05bae127890600090a350565b600280546001600160a01b0319166001600160a01b0392909216919091179055565b80820281158282048414176200023357634e487b7160e01b600052601160045260246000fd5b92915050565b6000826200025757634e487b7160e01b600052601260045260246000fd5b500490565b6112f7806200026c6000396000f3fe608060405234801561001057600080fd5b50600436106100935760003560e01c80637c1de7e1116100665780637c1de7e1146100d05780638da5cb5b146100e3578063af640d0f146100fe578063f2fde38b14610106578063fc735e991461011957600080fd5b8063338cdca11461009857806360758f31146100a257806373d4a13a146100c057806379ba5097146100c8575b600080fd5b6100a0610121565b005b6100aa610214565b6040516100b79190610d04565b60405180910390f35b6100aa6102a6565b6100a0610334565b6100a06100de366004610d2d565b6103e7565b6006546040516001600160a01b0390911681526020016100b7565b6100aa6104c3565b6100a0610114366004610de8565b6104d0565b6100aa6104e4565b60006101557f376461323730326633376664343865356231623961353731356533353039623630637c1de7e160e01b6104f1565b90506101976040518060400160405280600381526020016219d95d60ea1b8152506040518060800160405280605a8152602001611268605a9139839190610516565b6101e8604051806040016040528060048152602001630e0c2e8d60e31b81525060405180604001604052806008815260200167636572746964616f60c01b815250836105169092919063ffffffff16565b61021081600a610201670de0b6b3a76400006001610e2e565b61020b9190610e5b565b610539565b5050565b6060600a805461022390610e6f565b80601f016020809104026020016040519081016040528092919081815260200182805461024f90610e6f565b801561029c5780601f106102715761010080835404028352916020019161029c565b820191906000526020600020905b81548152906001019060200180831161027f57829003601f168201915b5050505050905090565b600980546102b390610e6f565b80601f01602080910402602001604051908101604052809291908181526020018280546102df90610e6f565b801561032c5780601f106103015761010080835404028352916020019161032c565b820191906000526020600020905b81548152906001019060200180831161030f57829003601f168201915b505050505081565b6007546001600160a01b0316331461038c5760405162461bcd60e51b815260206004820152601660248201527526bab9ba10313290383937b837b9b2b21037bbb732b960511b60448201526064015b60405180910390fd5b600680546001600160a01b0319808216339081179093556007805490911690556040516001600160a01b03909116919082907f8be0079c531659141344cd1fd0a4f28419497f9722a3daafe3b4186f6b6457e090600090a350565b60008281526005602052604090205482906001600160a01b031633146104605760405162461bcd60e51b815260206004820152602860248201527f536f75726365206d75737420626520746865206f7261636c65206f6620746865604482015267081c995c5d595cdd60c21b6064820152608401610383565b60008181526005602052604080822080546001600160a01b03191690555182917f7cc135e0cebb02c3480ae5d74d377283180a2601f8f644edf7987b009316c63a91a260096104af8382610ef1565b50600a6104bd600982610fb1565b50505050565b600880546102b390610e6f565b6104d861055c565b6104e1816105b1565b50565b600a80546102b390610e6f565b6104f9610c83565b610501610c83565b61050d8186868661065b565b95945050505050565b608083015161052590836106a1565b608083015161053490826106a1565b505050565b600354600090610553906001600160a01b031684846106b8565b90505b92915050565b6006546001600160a01b031633146105af5760405162461bcd60e51b815260206004820152601660248201527527b7363c9031b0b63630b1363290313c9037bbb732b960511b6044820152606401610383565b565b336001600160a01b038216036106095760405162461bcd60e51b815260206004820152601760248201527f43616e6e6f74207472616e7366657220746f2073656c660000000000000000006044820152606401610383565b600780546001600160a01b0319166001600160a01b03838116918217909255600654604051919216907fed8889f560326eb138920d842192f0eb3dd22b4f139c87a2c57538e05bae127890600090a350565b610663610c83565b610673856080015161010061074b565b50508284526001600160a01b03821660208501526001600160e01b031981166040850152835b949350505050565b6106ae82600383516107b0565b61053482826108bf565b6004546000906106c981600161108c565b600455835160408086015160808701515191516000936320214ca360e11b936107019386938493923092918a9160019160240161109f565b60408051601f198184030181529190526020810180516001600160e01b03166001600160e01b0319909316929092179091529050610741868386846108e6565b9695505050505050565b60408051808201909152606081526000602082015261076b602083611107565b156107935761077b602083611107565b61078690602061111b565b610790908361108c565b91505b506020828101829052604080518085526000815290920101905290565b60178167ffffffffffffffff16116107d5576104bd8360e0600585901b168317610a44565b60ff8167ffffffffffffffff1611610813576107fc836018611fe0600586901b1617610a44565b506104bd8367ffffffffffffffff83166001610a69565b61ffff8167ffffffffffffffff16116108525761083b836019611fe0600586901b1617610a44565b506104bd8367ffffffffffffffff83166002610a69565b63ffffffff8167ffffffffffffffff16116108935761087c83601a611fe0600586901b1617610a44565b506104bd8367ffffffffffffffff83166004610a69565b6108a883601b611fe0600586901b1617610a44565b506104bd8367ffffffffffffffff83166008610a69565b60408051808201909152606081526000602082015261055383846000015151848551610a8f565b6040516bffffffffffffffffffffffff193060601b1660208201526034810184905260009060540160408051808303601f1901815282825280516020918201206000818152600590925291812080546001600160a01b0319166001600160a01b038a1617905590925082917fb5e6e01e79f91267dc17b4e6314d5d4d03593d2ceee0fbb452b750bd70ea5af99190a2600254604051630200057560e51b81526001600160a01b0390911690634000aea0906109a99088908790879060040161112e565b6020604051808303816000875af11580156109c8573d6000803e3d6000fd5b505050506040513d601f19601f820116820180604052508101906109ec9190611155565b6106995760405162461bcd60e51b815260206004820152602360248201527f756e61626c6520746f207472616e73666572416e6443616c6c20746f206f7261604482015262636c6560e81b6064820152608401610383565b6040805180820190915260608152600060208201526105538384600001515184610b79565b604080518082019091526060815260006020820152610699848560000151518585610bd4565b6040805180820190915260608152600060208201528251821115610ab257600080fd5b6020850151610ac1838661108c565b1115610af457610af485610ae487602001518786610adf919061108c565b610c55565b610aef906002610e2e565b610c6c565b600080865180518760208301019350808887011115610b135787860182525b505050602084015b60208410610b535780518252610b3260208361108c565b9150610b3f60208261108c565b9050610b4c60208561111b565b9350610b1b565b51815160001960208690036101000a019081169019919091161790525083949350505050565b60408051808201909152606081526000602082015283602001518310610bae57610bae8485602001516002610aef9190610e2e565b8351805160208583010184815350808503610bca576001810182525b5093949350505050565b6040805180820190915260608152600060208201526020850151610bf8858461108c565b1115610c0c57610c0c85610ae4868561108c565b60006001610c1c8461010061125b565b610c26919061111b565b9050855183868201018583198251161781525080518487011115610c4a5783860181525b509495945050505050565b600081831115610c66575081610556565b50919050565b8151610c78838361074b565b506104bd83826108bf565b6040805160a0810182526000808252602080830182905282840182905260608084018390528451808601909552845283015290608082015290565b6000815180845260005b81811015610ce457602081850181015186830182015201610cc8565b506000602082860101526020601f19601f83011685010191505092915050565b6020815260006105536020830184610cbe565b634e487b7160e01b600052604160045260246000fd5b60008060408385031215610d4057600080fd5b82359150602083013567ffffffffffffffff80821115610d5f57600080fd5b818501915085601f830112610d7357600080fd5b813581811115610d8557610d85610d17565b604051601f8201601f19908116603f01168101908382118183101715610dad57610dad610d17565b81604052828152886020848701011115610dc657600080fd5b8260208601602083013760006020848301015280955050505050509250929050565b600060208284031215610dfa57600080fd5b81356001600160a01b0381168114610e1157600080fd5b9392505050565b634e487b7160e01b600052601160045260246000fd5b808202811582820484141761055657610556610e18565b634e487b7160e01b600052601260045260246000fd5b600082610e6a57610e6a610e45565b500490565b600181811c90821680610e8357607f821691505b602082108103610c6657634e487b7160e01b600052602260045260246000fd5b601f82111561053457600081815260208120601f850160051c81016020861015610eca5750805b601f850160051c820191505b81811015610ee957828155600101610ed6565b505050505050565b815167ffffffffffffffff811115610f0b57610f0b610d17565b610f1f81610f198454610e6f565b84610ea3565b602080601f831160018114610f545760008415610f3c5750858301515b600019600386901b1c1916600185901b178555610ee9565b600085815260208120601f198616915b82811015610f8357888601518255948401946001909101908401610f64565b5085821015610fa15787850151600019600388901b60f8161c191681555b5050505050600190811b01905550565b818103610fbc575050565b610fc68254610e6f565b67ffffffffffffffff811115610fde57610fde610d17565b610fec81610f198454610e6f565b6000601f82116001811461102057600083156110085750848201545b600019600385901b1c1916600184901b178455611085565b600085815260209020601f19841690600086815260209020845b8381101561105a578286015482556001958601959091019060200161103a565b50858310156110785781850154600019600388901b60f8161c191681555b50505060018360011b0184555b5050505050565b8082018082111561055657610556610e18565b6001600160a01b0389811682526020820189905260408201889052861660608201526001600160e01b03198516608082015260a0810184905260c0810183905261010060e082018190526000906110f883820185610cbe565b9b9a5050505050505050505050565b60008261111657611116610e45565b500690565b8181038181111561055657610556610e18565b60018060a01b038416815282602082015260606040820152600061050d6060830184610cbe565b60006020828403121561116757600080fd5b81518015158114610e1157600080fd5b600181815b808511156111b257816000190482111561119857611198610e18565b808516156111a557918102915b93841c939080029061117c565b509250929050565b6000826111c957506001610556565b816111d657506000610556565b81600181146111ec57600281146111f657611212565b6001915050610556565b60ff84111561120757611207610e18565b50506001821b610556565b5060208310610133831016604e8410600b8410161715611235575081810a610556565b61123f8383611177565b806000190482111561125357611253610e18565b029392505050565b600061055383836111ba56fe68747470733a2f2f697066732e696f2f697066732f516d5076375831396d31467a7a46644d4e745569447670424139625a57666a3371474c64344e734a6943536b646f3f66696c656e616d653d636572746964616f2e6a736f6ea26469706673582212204b15ec44295801948a40126d11778d0114f40c5b1bf790af188dca89e3a584f164736f6c63430008110033",
  "linkReferences": {},
  "deployedLinkReferences": {}
}