{
  "_format": "hh-sol-artifact-1",
  "contractName": "PosterityWallet",
  "sourceName": "contracts/posterityWallet.sol",
  "abi": [
    {
      "inputs": [
        {
          "internalType": "uint256",
          "name": "_taxID",
          "type": "uint256"
        },
        {
          "internalType": "address",
          "name": "_owner",
          "type": "address"
        }
      ],
      "stateMutability": "payable",
      "type": "constructor"
    },
    {
      "inputs": [
        {
          "internalType": "uint256",
          "name": "",
          "type": "uint256"
        }
      ],
      "name": "_heirs",
      "outputs": [
        {
          "internalType": "address",
          "name": "userAddress",
          "type": "address"
        },
        {
          "internalType": "uint256",
          "name": "percentage",
          "type": "uint256"
        }
      ],
      "stateMutability": "view",
      "type": "function"
    },
    {
      "inputs": [
        {
          "components": [
            {
              "internalType": "address",
              "name": "userAddress",
              "type": "address"
            },
            {
              "internalType": "uint256",
              "name": "percentage",
              "type": "uint256"
            }
          ],
          "internalType": "struct PosterityWallet.Heir[]",
          "name": "_newHeirs",
          "type": "tuple[]"
        }
      ],
      "name": "changeHeirs",
      "outputs": [],
      "stateMutability": "nonpayable",
      "type": "function"
    },
    {
      "inputs": [],
      "name": "establishSucessorDeath",
      "outputs": [],
      "stateMutability": "view",
      "type": "function"
    },
    {
      "inputs": [],
      "name": "getHeirs",
      "outputs": [
        {
          "components": [
            {
              "internalType": "address",
              "name": "userAddress",
              "type": "address"
            },
            {
              "internalType": "uint256",
              "name": "percentage",
              "type": "uint256"
            }
          ],
          "internalType": "struct PosterityWallet.Heir[]",
          "name": "",
          "type": "tuple[]"
        }
      ],
      "stateMutability": "view",
      "type": "function"
    },
    {
      "inputs": [],
      "name": "gettaxID",
      "outputs": [
        {
          "internalType": "uint256",
          "name": "",
          "type": "uint256"
        }
      ],
      "stateMutability": "view",
      "type": "function"
    },
    {
      "inputs": [
        {
          "internalType": "address",
          "name": "",
          "type": "address"
        }
      ],
      "name": "heirs",
      "outputs": [
        {
          "internalType": "bool",
          "name": "",
          "type": "bool"
        }
      ],
      "stateMutability": "view",
      "type": "function"
    },
    {
      "inputs": [],
      "name": "owner",
      "outputs": [
        {
          "internalType": "address",
          "name": "",
          "type": "address"
        }
      ],
      "stateMutability": "view",
      "type": "function"
    },
    {
      "inputs": [],
      "name": "succession",
      "outputs": [
        {
          "internalType": "bool",
          "name": "",
          "type": "bool"
        }
      ],
      "stateMutability": "view",
      "type": "function"
    },
    {
      "inputs": [
        {
          "internalType": "uint256",
          "name": "amount",
          "type": "uint256"
        },
        {
          "internalType": "address",
          "name": "to",
          "type": "address"
        }
      ],
      "name": "withdraw",
      "outputs": [],
      "stateMutability": "nonpayable",
      "type": "function"
    },
    {
      "stateMutability": "payable",
      "type": "receive"
    }
  ],
  "bytecode": "0x608060408190526000805460ff60a01b19169055610ae23881900390819083398101604081905261002f91610063565b600191909155600280546001600160a01b039092166001600160a01b031992831617905560008054909116331790556100a0565b6000806040838503121561007657600080fd5b825160208401519092506001600160a01b038116811461009557600080fd5b809150509250929050565b610a33806100af6000396000f3fe6080604052600436106100895760003560e01c80638da5cb5b116100595780638da5cb5b14610183578063a1e32d42146101bb578063a42cacd9146101d9578063a5636a34146101f9578063f45b587c1461020e57600080fd5b8062f714ce146100c85780634eae51f4146100e857806365e6aca414610113578063789b46391461015257600080fd5b366100c357600054600160a01b900460ff16156100c15760405162461bcd60e51b81526004016100b8906107ee565b60405180910390fd5b005b600080fd5b3480156100d457600080fd5b506100c16100e3366004610850565b61023e565b3480156100f457600080fd5b506100fd610373565b60405161010a9190610880565b60405180910390f35b34801561011f57600080fd5b5061013361012e3660046108d8565b6103e8565b604080516001600160a01b03909316835260208301919091520161010a565b34801561015e57600080fd5b5060005461017390600160a01b900460ff1681565b604051901515815260200161010a565b34801561018f57600080fd5b506002546101a3906001600160a01b031681565b6040516001600160a01b03909116815260200161010a565b3480156101c757600080fd5b5060015460405190815260200161010a565b3480156101e557600080fd5b506100c16101f43660046108f1565b610420565b34801561020557600080fd5b506100c161068a565b34801561021a57600080fd5b50610173610229366004610966565b60036020526000908152604090205460ff1681565b6002546001600160a01b031633146102985760405162461bcd60e51b815260206004820181905260248201527f4f776e61626c653a2063616c6c6572206973206e6f7420746865206f776e657260448201526064016100b8565b4782111561030e5760405162461bcd60e51b815260206004820152603a60248201527f546865207769746864726177616c20616d6f756e74206973206772656174657260448201527f207468616e2074686520436f6e74726163742062616c616e636500000000000060648201526084016100b8565b600054600160a01b900460ff16156103385760405162461bcd60e51b81526004016100b8906107ee565b6040516001600160a01b0382169083156108fc029084906000818181858888f1935050505015801561036e573d6000803e3d6000fd5b505050565b60606004805480602002602001604051908101604052809291908181526020016000905b828210156103df576000848152602090819020604080518082019091526002850290910180546001600160a01b03168252600190810154828401529083529092019101610397565b50505050905090565b600481815481106103f857600080fd5b6000918252602090912060029091020180546001909101546001600160a01b03909116915082565b6002546001600160a01b0316331461047a5760405162461bcd60e51b815260206004820181905260248201527f4f776e61626c653a2063616c6c6572206973206e6f7420746865206f776e657260448201526064016100b8565b60005b8181101561053257600054600480546001600160a01b0390921691635dfc7ec49190849081106104af576104af61098a565b600091825260209091206002909102015460405160e083901b6001600160e01b03191681526001600160a01b039091166004820152306024820152604401600060405180830381600087803b15801561050757600080fd5b505af115801561051b573d6000803e3d6000fd5b50505050808061052a906109a0565b91505061047d565b5061053f600460006107a8565b60005b8181101561036e57600483838381811061055e5761055e61098a565b83546001810185556000948552602090942060409091029290920192600202909101905061058c82826109c7565b5050600160036000600484815481106105a7576105a761098a565b60009182526020808320600292909202909101546001600160a01b0390811684529083019390935260409091018120805460ff1916931515939093179092559054600480549190921691639e93c45c91849081106106075761060761098a565b600091825260209091206002909102015460405160e083901b6001600160e01b03191681526001600160a01b039091166004820152306024820152604401600060405180830381600087803b15801561065f57600080fd5b505af1158015610673573d6000803e3d6000fd5b505050508080610682906109a0565b915050610542565b610692610694565b565b600054600160a01b900460ff16156106fa5760405162461bcd60e51b815260206004820152602360248201527f546869732073756363657373696f6e2068617320616c726561647920737461726044820152621d195960ea1b60648201526084016100b8565b6000805b600454811015610752576004818154811061071b5761071b61098a565b60009182526020909120600290910201546001600160a01b0316330361074057600191505b8061074a816109a0565b9150506106fe565b506001811515146107a55760405162461bcd60e51b815260206004820152601860248201527f596f7520617265206e6f7420612076616c69642068656972000000000000000060448201526064016100b8565b50565b50805460008255600202906000526020600020908101906107a591905b808211156107ea5780546001600160a01b0319168155600060018201556002016107c5565b5090565b6020808252602d908201527f506f737465726974792053756363657373696f6e2068617320616c726561647960408201526c081899595b881cdd185c9d1959609a1b606082015260800190565b6001600160a01b03811681146107a557600080fd5b6000806040838503121561086357600080fd5b8235915060208301356108758161083b565b809150509250929050565b602080825282518282018190526000919060409081850190868401855b828110156108cb57815180516001600160a01b0316855286015186850152928401929085019060010161089d565b5091979650505050505050565b6000602082840312156108ea57600080fd5b5035919050565b6000806020838503121561090457600080fd5b823567ffffffffffffffff8082111561091c57600080fd5b818501915085601f83011261093057600080fd5b81358181111561093f57600080fd5b8660208260061b850101111561095457600080fd5b60209290920196919550909350505050565b60006020828403121561097857600080fd5b81356109838161083b565b9392505050565b634e487b7160e01b600052603260045260246000fd5b6000600182016109c057634e487b7160e01b600052601160045260246000fd5b5060010190565b81356109d28161083b565b81546001600160a01b0319166001600160a01b0391909116178155602091909101356001919091015556fea264697066735822122020ff35b2f9e31009ed145e4bd76a1c9d941521023f11907912eb105ddbd6157b64736f6c63430008110033",
  "linkReferences": {},
  "deployedLinkReferences": {}
}