{
  "_format": "hh-sol-artifact-1",
  "contractName": "PosterityWallet",
  "sourceName": "contracts/posterityWallet.sol",
  "abi": [
    {
      "inputs": [
        {
          "internalType": "uint256",
          "name": "_taxID",
          "type": "uint256"
        },
        {
          "internalType": "address",
          "name": "_owner",
          "type": "address"
        }
      ],
      "stateMutability": "payable",
      "type": "constructor"
    },
    {
      "anonymous": false,
      "inputs": [
        {
          "indexed": true,
          "internalType": "string",
          "name": "situation",
          "type": "string"
        }
      ],
      "name": "ResponseSituation",
      "type": "event"
    },
    {
      "inputs": [
        {
          "internalType": "uint256",
          "name": "",
          "type": "uint256"
        }
      ],
      "name": "_heirs",
      "outputs": [
        {
          "internalType": "address",
          "name": "userAddress",
          "type": "address"
        },
        {
          "internalType": "uint256",
          "name": "percentage",
          "type": "uint256"
        }
      ],
      "stateMutability": "view",
      "type": "function"
    },
    {
      "inputs": [],
      "name": "authorizedHeirFrase",
      "outputs": [
        {
          "internalType": "bytes32",
          "name": "",
          "type": "bytes32"
        }
      ],
      "stateMutability": "view",
      "type": "function"
    },
    {
      "inputs": [],
      "name": "authorizedHeirResult",
      "outputs": [
        {
          "internalType": "bytes32",
          "name": "",
          "type": "bytes32"
        }
      ],
      "stateMutability": "view",
      "type": "function"
    },
    {
      "inputs": [],
      "name": "balance",
      "outputs": [
        {
          "internalType": "uint256",
          "name": "",
          "type": "uint256"
        }
      ],
      "stateMutability": "view",
      "type": "function"
    },
    {
      "inputs": [
        {
          "components": [
            {
              "internalType": "address",
              "name": "userAddress",
              "type": "address"
            },
            {
              "internalType": "uint256",
              "name": "percentage",
              "type": "uint256"
            }
          ],
          "internalType": "struct PosterityWallet.Heir[]",
          "name": "_newHeirs",
          "type": "tuple[]"
        }
      ],
      "name": "changeHeirs",
      "outputs": [],
      "stateMutability": "nonpayable",
      "type": "function"
    },
    {
      "inputs": [
        {
          "internalType": "string",
          "name": "authorizedHeir",
          "type": "string"
        }
      ],
      "name": "establishSucessorDeath",
      "outputs": [],
      "stateMutability": "nonpayable",
      "type": "function"
    },
    {
      "inputs": [],
      "name": "getHeirs",
      "outputs": [
        {
          "components": [
            {
              "internalType": "address",
              "name": "userAddress",
              "type": "address"
            },
            {
              "internalType": "uint256",
              "name": "percentage",
              "type": "uint256"
            }
          ],
          "internalType": "struct PosterityWallet.Heir[]",
          "name": "",
          "type": "tuple[]"
        }
      ],
      "stateMutability": "view",
      "type": "function"
    },
    {
      "inputs": [],
      "name": "gettaxID",
      "outputs": [
        {
          "internalType": "uint256",
          "name": "",
          "type": "uint256"
        }
      ],
      "stateMutability": "view",
      "type": "function"
    },
    {
      "inputs": [],
      "name": "owner",
      "outputs": [
        {
          "internalType": "address",
          "name": "",
          "type": "address"
        }
      ],
      "stateMutability": "view",
      "type": "function"
    },
    {
      "inputs": [],
      "name": "requestID",
      "outputs": [
        {
          "internalType": "bytes32",
          "name": "",
          "type": "bytes32"
        }
      ],
      "stateMutability": "view",
      "type": "function"
    },
    {
      "inputs": [],
      "name": "requestOracle",
      "outputs": [],
      "stateMutability": "nonpayable",
      "type": "function"
    },
    {
      "inputs": [],
      "name": "succession",
      "outputs": [
        {
          "internalType": "bool",
          "name": "",
          "type": "bool"
        }
      ],
      "stateMutability": "view",
      "type": "function"
    },
    {
      "inputs": [],
      "name": "totalDistribuition",
      "outputs": [
        {
          "internalType": "uint256",
          "name": "",
          "type": "uint256"
        }
      ],
      "stateMutability": "view",
      "type": "function"
    },
    {
      "inputs": [
        {
          "internalType": "uint256",
          "name": "amount",
          "type": "uint256"
        },
        {
          "internalType": "address",
          "name": "to",
          "type": "address"
        }
      ],
      "name": "withdraw",
      "outputs": [],
      "stateMutability": "nonpayable",
      "type": "function"
    },
    {
      "stateMutability": "payable",
      "type": "receive"
    }
  ],
  "bytecode": "0x60806040819052600080546001600160a01b031916730d560062c1c668e73b92b426df7b9ffec774d4741781556001805460ff60a01b191690556003556110ac388190039081908339810160408190526100589161008c565b600291909155600480546001600160a01b039092166001600160a01b031992831617905560018054909116331790556100c9565b6000806040838503121561009f57600080fd5b825160208401519092506001600160a01b03811681146100be57600080fd5b809150509250929050565b610fd4806100d86000396000f3fe6080604052600436106100e05760003560e01c8063789b46391161007f578063a1e32d4211610059578063a1e32d4214610293578063a42cacd9146102a8578063b69ef8a8146102c8578063c268317b146102de57600080fd5b8063789b4639146102145780638da5cb5b146102455780638f7792011461027d57600080fd5b80634eae51f4116100bb5780634eae51f41461017d5780635a7633ef1461019f5780635ebce1ce146101b557806365e6aca4146101d557600080fd5b8062f714ce1461011f578063289eaf4e1461013f57806347c89ec61461016857600080fd5b3661011a57600154600160a01b900460ff16156101185760405162461bcd60e51b815260040161010f90610c4a565b60405180910390fd5b005b600080fd5b34801561012b57600080fd5b5061011861013a366004610cac565b6102f4565b34801561014b57600080fd5b5061015560065481565b6040519081526020015b60405180910390f35b34801561017457600080fd5b50610118610429565b34801561018957600080fd5b506101926104aa565b60405161015f9190610cdc565b3480156101ab57600080fd5b5061015560075481565b3480156101c157600080fd5b506101186101d0366004610d4a565b61051f565b3480156101e157600080fd5b506101f56101f0366004610dfb565b61075f565b604080516001600160a01b03909316835260208301919091520161015f565b34801561022057600080fd5b5060015461023590600160a01b900460ff1681565b604051901515815260200161015f565b34801561025157600080fd5b50600454610265906001600160a01b031681565b6040516001600160a01b03909116815260200161015f565b34801561028957600080fd5b5061015560055481565b34801561029f57600080fd5b50600254610155565b3480156102b457600080fd5b506101186102c3366004610e14565b610797565b3480156102d457600080fd5b5061015560085481565b3480156102ea57600080fd5b5061015560035481565b6004546001600160a01b0316331461034e5760405162461bcd60e51b815260206004820181905260248201527f4f776e61626c653a2063616c6c6572206973206e6f7420746865206f776e6572604482015260640161010f565b478211156103c45760405162461bcd60e51b815260206004820152603a60248201527f546865207769746864726177616c20616d6f756e74206973206772656174657260448201527f207468616e2074686520436f6e74726163742062616c616e6365000000000000606482015260840161010f565b600154600160a01b900460ff16156103ee5760405162461bcd60e51b815260040161010f90610c4a565b6040516001600160a01b0382169083156108fc029084906000818181858888f19350505050158015610424573d6000803e3d6000fd5b505050565b600061043460025490565b600054604051639f1ca61960e01b8152600481018390529192506001600160a01b031690639f1ca619906024016020604051808303816000875af1158015610480573d6000803e3d6000fd5b505050506040513d601f19601f820116820180604052508101906104a49190610e89565b60055550565b60606009805480602002602001604051908101604052809291908181526020016000905b82821015610516576000848152602090819020604080518082019091526002850290910180546001600160a01b031682526001908101548284015290835290920191016104ce565b50505050905090565b600154600160a01b900460ff16156105855760405162461bcd60e51b815260206004820152602360248201527f546869732073756363657373696f6e2068617320616c726561647920737461726044820152621d195960ea1b606482015260840161010f565b336000908152600a602052604090205460ff1615156001146105e95760405162461bcd60e51b815260206004820152601860248201527f596f7520617265206e6f7420612076616c696420686569720000000000000000604482015260640161010f565b730d560062c1c668e73b92b426df7b9ffec774d47433146106605760405162461bcd60e51b815260206004820152602b60248201527f4f6e6c79204f7261636c6520636f6e74726163742063616e2063616c6c20746860448201526a34b990333ab731ba34b7b760a91b606482015260840161010f565b8051602080830191909120600655604080518082018252600981526843616e63656c61646160b81b9201919091527f280fc0a57a2ba220425265cbd3e41f291af6a7ed7f6b84407654150f6f383df0600755516106be908290610ea2565b604051908190038120907ff59622fba0bcc23477b05d2469f8263030c848ecc3d29e5fd4d959c5f1c865ee90600090a2600754600654146107415760405162461bcd60e51b815260206004820152601860248201527f556e61626c6520746f2073746172742070726f746f636f6c0000000000000000604482015260640161010f565b6001805460ff60a01b1916600160a01b17905561075c610b43565b50565b6009818154811061076f57600080fd5b6000918252602090912060029091020180546001909101546001600160a01b03909116915082565b6004546001600160a01b031633146107f15760405162461bcd60e51b815260206004820181905260248201527f4f776e61626c653a2063616c6c6572206973206e6f7420746865206f776e6572604482015260640161010f565b600060038190555b818110156108465782828281811061081357610813610ed1565b905060400201602001356003600082825461082e9190610efd565b9091555081905061083e81610f16565b9150506107f9565b5060636003541015801561085d5750606460035411155b6108b85760405162461bcd60e51b815260206004820152602660248201527f596f75206e65656420746f20636f6d706c657465203130302520646973747269604482015265313aba34b7b760d11b606482015260840161010f565b60005b6009548110156109b757600a6000600983815481106108dc576108dc610ed1565b600091825260208083206002909202909101546001600160a01b0390811684529083019390935260409091019020805460ff19169055600154600980549190921691635dfc7ec4918490811061093457610934610ed1565b600091825260209091206002909102015460405160e083901b6001600160e01b03191681526001600160a01b039091166004820152306024820152604401600060405180830381600087803b15801561098c57600080fd5b505af11580156109a0573d6000803e3d6000fd5b5050505080806109af90610f16565b9150506108bb565b506109c460096000610c04565b60005b81811015610424578282828181106109e1576109e1610ed1565b90506040020160200135600360008282546109fc9190610efd565b9091555060099050838383818110610a1657610a16610ed1565b835460018101855560009485526020909420604090910292909201926002029091019050610a448282610f2f565b50506001600a600060098481548110610a5f57610a5f610ed1565b60009182526020808320600292909202909101546001600160a01b0390811684529083019390935260409091019020805460ff191692151592909217909155600154600980549190921691639e93c45c9184908110610ac057610ac0610ed1565b600091825260209091206002909102015460405160e083901b6001600160e01b03191681526001600160a01b039091166004820152306024820152604401600060405180830381600087803b158015610b1857600080fd5b505af1158015610b2c573d6000803e3d6000fd5b505050508080610b3b90610f16565b9150506109c7565b476008556000805b600954811015610c0057606460098281548110610b6a57610b6a610ed1565b906000526020600020906002020160010154600854610b899190610f65565b610b939190610f7c565b915060098181548110610ba857610ba8610ed1565b600091825260208220600290910201546040516001600160a01b039091169184156108fc02918591818181858888f19350505050158015610bed573d6000803e3d6000fd5b5080610bf881610f16565b915050610b4b565b5050565b508054600082556002029060005260206000209081019061075c91905b80821115610c465780546001600160a01b031916815560006001820155600201610c21565b5090565b6020808252602d908201527f506f737465726974792053756363657373696f6e2068617320616c726561647960408201526c081899595b881cdd185c9d1959609a1b606082015260800190565b6001600160a01b038116811461075c57600080fd5b60008060408385031215610cbf57600080fd5b823591506020830135610cd181610c97565b809150509250929050565b602080825282518282018190526000919060409081850190868401855b82811015610d2757815180516001600160a01b03168552860151868501529284019290850190600101610cf9565b5091979650505050505050565b634e487b7160e01b600052604160045260246000fd5b600060208284031215610d5c57600080fd5b813567ffffffffffffffff80821115610d7457600080fd5b818401915084601f830112610d8857600080fd5b813581811115610d9a57610d9a610d34565b604051601f8201601f19908116603f01168101908382118183101715610dc257610dc2610d34565b81604052828152876020848701011115610ddb57600080fd5b826020860160208301376000928101602001929092525095945050505050565b600060208284031215610e0d57600080fd5b5035919050565b60008060208385031215610e2757600080fd5b823567ffffffffffffffff80821115610e3f57600080fd5b818501915085601f830112610e5357600080fd5b813581811115610e6257600080fd5b8660208260061b8501011115610e7757600080fd5b60209290920196919550909350505050565b600060208284031215610e9b57600080fd5b5051919050565b6000825160005b81811015610ec35760208186018101518583015201610ea9565b506000920191825250919050565b634e487b7160e01b600052603260045260246000fd5b634e487b7160e01b600052601160045260246000fd5b80820180821115610f1057610f10610ee7565b92915050565b600060018201610f2857610f28610ee7565b5060010190565b8135610f3a81610c97565b81546001600160a01b0319166001600160a01b03919091161781556020919091013560019190910155565b8082028115828204841417610f1057610f10610ee7565b600082610f9957634e487b7160e01b600052601260045260246000fd5b50049056fea2646970667358221220840988b8f846bfa8cd822ef606fec9c371c3842a54a7a1ab3fdfa0a01cdef3e364736f6c63430008110033",
  "linkReferences": {},
  "deployedLinkReferences": {}
}