{
  "_format": "hh-sol-artifact-1",
  "contractName": "PosterityWalletFactory",
  "sourceName": "contracts/factoryPosterityWallet.sol",
  "abi": [
    {
      "inputs": [],
      "stateMutability": "nonpayable",
      "type": "constructor"
    },
    {
      "anonymous": false,
      "inputs": [
        {
          "indexed": true,
          "internalType": "address",
          "name": "_owner",
          "type": "address"
        },
        {
          "indexed": true,
          "internalType": "address",
          "name": "_newWallet",
          "type": "address"
        }
      ],
      "name": "NewPosteriryWallet",
      "type": "event"
    },
    {
      "inputs": [
        {
          "internalType": "address",
          "name": "addressHeir",
          "type": "address"
        },
        {
          "internalType": "address",
          "name": "addressPosterityWallet",
          "type": "address"
        }
      ],
      "name": "deletePosterityWalletFromHeir",
      "outputs": [],
      "stateMutability": "nonpayable",
      "type": "function"
    },
    {
      "inputs": [
        {
          "internalType": "uint256",
          "name": "taxID",
          "type": "uint256"
        }
      ],
      "name": "deploy",
      "outputs": [],
      "stateMutability": "nonpayable",
      "type": "function"
    },
    {
      "inputs": [
        {
          "internalType": "address",
          "name": "userAddress",
          "type": "address"
        }
      ],
      "name": "getPosterityWallet",
      "outputs": [
        {
          "internalType": "address",
          "name": "",
          "type": "address"
        }
      ],
      "stateMutability": "view",
      "type": "function"
    },
    {
      "inputs": [
        {
          "internalType": "address",
          "name": "addressHeir",
          "type": "address"
        }
      ],
      "name": "getPosterityWalletsFromHeir",
      "outputs": [
        {
          "internalType": "address[]",
          "name": "",
          "type": "address[]"
        }
      ],
      "stateMutability": "view",
      "type": "function"
    },
    {
      "inputs": [
        {
          "internalType": "address",
          "name": "",
          "type": "address"
        }
      ],
      "name": "posterityWallets",
      "outputs": [
        {
          "internalType": "address",
          "name": "",
          "type": "address"
        }
      ],
      "stateMutability": "view",
      "type": "function"
    },
    {
      "inputs": [
        {
          "internalType": "address",
          "name": "",
          "type": "address"
        },
        {
          "internalType": "uint256",
          "name": "",
          "type": "uint256"
        }
      ],
      "name": "posterityWalletsFromHeir",
      "outputs": [
        {
          "internalType": "address",
          "name": "",
          "type": "address"
        }
      ],
      "stateMutability": "view",
      "type": "function"
    },
    {
      "inputs": [
        {
          "internalType": "address",
          "name": "",
          "type": "address"
        },
        {
          "internalType": "address",
          "name": "",
          "type": "address"
        }
      ],
      "name": "posterityWalletsIndexesFromHeir",
      "outputs": [
        {
          "internalType": "uint256",
          "name": "",
          "type": "uint256"
        }
      ],
      "stateMutability": "view",
      "type": "function"
    },
    {
      "inputs": [
        {
          "internalType": "address",
          "name": "addressHeir",
          "type": "address"
        },
        {
          "internalType": "address",
          "name": "addressPosterityWallet",
          "type": "address"
        }
      ],
      "name": "setPosterityWalletsFromHeir",
      "outputs": [],
      "stateMutability": "nonpayable",
      "type": "function"
    }
  ],
  "bytecode": "0x608060405234801561001057600080fd5b50610fda806100206000396000f3fe608060405234801561001057600080fd5b50600436106100885760003560e01c8063a5e387511161005b578063a5e3875114610175578063e7b6992b14610188578063e969ba281461019b578063fadb1aa8146101d457600080fd5b806335dabbf51461008d5780633ee90d83146100b65780635dfc7ec4146100f75780639e93c45c1461010c575b600080fd5b6100a061009b3660046103e3565b610200565b6040516100ad9190610405565b60405180910390f35b6100df6100c43660046103e3565b6000602081905290815260409020546001600160a01b031681565b6040516001600160a01b0390911681526020016100ad565b61010a610105366004610452565b610276565b005b61010a61011a366004610452565b6001600160a01b0391821660008181526001602081815260408084208054938401815580855282852090930180546001600160a01b031916969097169586179096559282525460028352848220938252929091529190912055565b61010a610183366004610485565b6102f6565b6100df61019636600461049e565b610382565b6101c66101a9366004610452565b600260209081526000928352604080842090915290825290205481565b6040519081526020016100ad565b6100df6101e23660046103e3565b6001600160a01b039081166000908152602081905260409020541690565b6001600160a01b03811660009081526001602090815260409182902080548351818402810184019094528084526060939283018282801561026a57602002820191906000526020600020905b81546001600160a01b0316815260019091019060200180831161024c575b50505050509050919050565b6001600160a01b03808316600090815260016020908152604080832060028352818420948616845293909152902054815481106102b5576102b56104c8565b6000918252602080832090910180546001600160a01b03191690556001600160a01b0393841682526002815260408083209390941682529190915290812055565b600081604051610305906103ba565b908152602001604051809103906000f080158015610327573d6000803e3d6000fd5b503360008181526020819052604080822080546001600160a01b0319166001600160a01b0386169081179091559051939450927f5ccb19c2108f45669ddcecfcc0be7bf8c689b929b4824749e5f3b1943be436159190a35050565b6001602052816000526040600020818154811061039e57600080fd5b6000918252602090912001546001600160a01b03169150829050565b610ac6806104df83390190565b80356001600160a01b03811681146103de57600080fd5b919050565b6000602082840312156103f557600080fd5b6103fe826103c7565b9392505050565b6020808252825182820181905260009190848201906040850190845b818110156104465783516001600160a01b031683529284019291840191600101610421565b50909695505050505050565b6000806040838503121561046557600080fd5b61046e836103c7565b915061047c602084016103c7565b90509250929050565b60006020828403121561049757600080fd5b5035919050565b600080604083850312156104b157600080fd5b6104ba836103c7565b946020939093013593505050565b634e487b7160e01b600052603260045260246000fdfe608060408190526000805460ff60a01b19169055610ac63881900390819083398101604081905261002f9161006b565b600155600280546001600160a01b0319908116331790915560008054909116730e71e2aba825b804e6be4a993b06581d1d5b553d179055610084565b60006020828403121561007d57600080fd5b5051919050565b610a33806100936000396000f3fe6080604052600436106100895760003560e01c80638da5cb5b116100595780638da5cb5b14610183578063a1e32d42146101bb578063a42cacd9146101d9578063a5636a34146101f9578063f45b587c1461020e57600080fd5b8062f714ce146100c85780634eae51f4146100e857806365e6aca414610113578063789b46391461015257600080fd5b366100c357600054600160a01b900460ff16156100c15760405162461bcd60e51b81526004016100b8906107ee565b60405180910390fd5b005b600080fd5b3480156100d457600080fd5b506100c16100e3366004610850565b61023e565b3480156100f457600080fd5b506100fd610373565b60405161010a9190610880565b60405180910390f35b34801561011f57600080fd5b5061013361012e3660046108d8565b6103e8565b604080516001600160a01b03909316835260208301919091520161010a565b34801561015e57600080fd5b5060005461017390600160a01b900460ff1681565b604051901515815260200161010a565b34801561018f57600080fd5b506002546101a3906001600160a01b031681565b6040516001600160a01b03909116815260200161010a565b3480156101c757600080fd5b5060015460405190815260200161010a565b3480156101e557600080fd5b506100c16101f43660046108f1565b610420565b34801561020557600080fd5b506100c161068a565b34801561021a57600080fd5b50610173610229366004610966565b60036020526000908152604090205460ff1681565b6002546001600160a01b031633146102985760405162461bcd60e51b815260206004820181905260248201527f4f776e61626c653a2063616c6c6572206973206e6f7420746865206f776e657260448201526064016100b8565b4782111561030e5760405162461bcd60e51b815260206004820152603a60248201527f546865207769746864726177616c20616d6f756e74206973206772656174657260448201527f207468616e2074686520436f6e74726163742062616c616e636500000000000060648201526084016100b8565b600054600160a01b900460ff16156103385760405162461bcd60e51b81526004016100b8906107ee565b6040516001600160a01b0382169083156108fc029084906000818181858888f1935050505015801561036e573d6000803e3d6000fd5b505050565b60606004805480602002602001604051908101604052809291908181526020016000905b828210156103df576000848152602090819020604080518082019091526002850290910180546001600160a01b03168252600190810154828401529083529092019101610397565b50505050905090565b600481815481106103f857600080fd5b6000918252602090912060029091020180546001909101546001600160a01b03909116915082565b6002546001600160a01b0316331461047a5760405162461bcd60e51b815260206004820181905260248201527f4f776e61626c653a2063616c6c6572206973206e6f7420746865206f776e657260448201526064016100b8565b60005b8181101561053257600054600480546001600160a01b0390921691635dfc7ec49190849081106104af576104af61098a565b600091825260209091206002909102015460405160e083901b6001600160e01b03191681526001600160a01b039091166004820152306024820152604401600060405180830381600087803b15801561050757600080fd5b505af115801561051b573d6000803e3d6000fd5b50505050808061052a906109a0565b91505061047d565b5061053f600460006107a8565b60005b8181101561036e57600483838381811061055e5761055e61098a565b83546001810185556000948552602090942060409091029290920192600202909101905061058c82826109c7565b5050600160036000600484815481106105a7576105a761098a565b60009182526020808320600292909202909101546001600160a01b0390811684529083019390935260409091018120805460ff1916931515939093179092559054600480549190921691639e93c45c91849081106106075761060761098a565b600091825260209091206002909102015460405160e083901b6001600160e01b03191681526001600160a01b039091166004820152306024820152604401600060405180830381600087803b15801561065f57600080fd5b505af1158015610673573d6000803e3d6000fd5b505050508080610682906109a0565b915050610542565b610692610694565b565b600054600160a01b900460ff16156106fa5760405162461bcd60e51b815260206004820152602360248201527f546869732073756363657373696f6e2068617320616c726561647920737461726044820152621d195960ea1b60648201526084016100b8565b6000805b600454811015610752576004818154811061071b5761071b61098a565b60009182526020909120600290910201546001600160a01b0316330361074057600191505b8061074a816109a0565b9150506106fe565b506001811515146107a55760405162461bcd60e51b815260206004820152601860248201527f596f7520617265206e6f7420612076616c69642068656972000000000000000060448201526064016100b8565b50565b50805460008255600202906000526020600020908101906107a591905b808211156107ea5780546001600160a01b0319168155600060018201556002016107c5565b5090565b6020808252602d908201527f506f737465726974792053756363657373696f6e2068617320616c726561647960408201526c081899595b881cdd185c9d1959609a1b606082015260800190565b6001600160a01b03811681146107a557600080fd5b6000806040838503121561086357600080fd5b8235915060208301356108758161083b565b809150509250929050565b602080825282518282018190526000919060409081850190868401855b828110156108cb57815180516001600160a01b0316855286015186850152928401929085019060010161089d565b5091979650505050505050565b6000602082840312156108ea57600080fd5b5035919050565b6000806020838503121561090457600080fd5b823567ffffffffffffffff8082111561091c57600080fd5b818501915085601f83011261093057600080fd5b81358181111561093f57600080fd5b8660208260061b850101111561095457600080fd5b60209290920196919550909350505050565b60006020828403121561097857600080fd5b81356109838161083b565b9392505050565b634e487b7160e01b600052603260045260246000fd5b6000600182016109c057634e487b7160e01b600052601160045260246000fd5b5060010190565b81356109d28161083b565b81546001600160a01b0319166001600160a01b0391909116178155602091909101356001919091015556fea2646970667358221220ccb33a0ccf7d6691e529bc4199a6097f20ea5a713742fc2f7c451eb7ab3e74d664736f6c63430008110033a26469706673582212203e0cc33f131afa73d8ffefff6151bb213964ac32d1037fc2e2bb919d06fd96dc64736f6c63430008110033",
  "linkReferences": {},
  "deployedLinkReferences": {}
}