{
  "_format": "hh-sol-artifact-1",
  "contractName": "PosterityWalletFactory",
  "sourceName": "contracts/factoryPosterityWallet.sol",
  "abi": [
    {
      "inputs": [],
      "stateMutability": "nonpayable",
      "type": "constructor"
    },
    {
      "anonymous": false,
      "inputs": [
        {
          "indexed": true,
          "internalType": "address",
          "name": "_owner",
          "type": "address"
        },
        {
          "indexed": true,
          "internalType": "address",
          "name": "_newWallet",
          "type": "address"
        }
      ],
      "name": "NewPosteriryWallet",
      "type": "event"
    },
    {
      "inputs": [
        {
          "internalType": "address",
          "name": "addressHeir",
          "type": "address"
        },
        {
          "internalType": "address",
          "name": "addressPosterityWallet",
          "type": "address"
        }
      ],
      "name": "deletePosterityWalletFromHeir",
      "outputs": [],
      "stateMutability": "nonpayable",
      "type": "function"
    },
    {
      "inputs": [
        {
          "internalType": "string",
          "name": "taxID",
          "type": "string"
        }
      ],
      "name": "deploy",
      "outputs": [],
      "stateMutability": "nonpayable",
      "type": "function"
    },
    {
      "inputs": [
        {
          "internalType": "address",
          "name": "userAddress",
          "type": "address"
        }
      ],
      "name": "getPosterityWallet",
      "outputs": [
        {
          "internalType": "address",
          "name": "",
          "type": "address"
        }
      ],
      "stateMutability": "view",
      "type": "function"
    },
    {
      "inputs": [
        {
          "internalType": "address",
          "name": "addressHeir",
          "type": "address"
        }
      ],
      "name": "getPosterityWalletsFromHeir",
      "outputs": [
        {
          "internalType": "address[]",
          "name": "",
          "type": "address[]"
        }
      ],
      "stateMutability": "view",
      "type": "function"
    },
    {
      "inputs": [
        {
          "internalType": "address",
          "name": "",
          "type": "address"
        }
      ],
      "name": "posterityWallets",
      "outputs": [
        {
          "internalType": "address",
          "name": "",
          "type": "address"
        }
      ],
      "stateMutability": "view",
      "type": "function"
    },
    {
      "inputs": [
        {
          "internalType": "address",
          "name": "",
          "type": "address"
        },
        {
          "internalType": "uint256",
          "name": "",
          "type": "uint256"
        }
      ],
      "name": "posterityWalletsFromHeir",
      "outputs": [
        {
          "internalType": "address",
          "name": "",
          "type": "address"
        }
      ],
      "stateMutability": "view",
      "type": "function"
    },
    {
      "inputs": [
        {
          "internalType": "address",
          "name": "",
          "type": "address"
        },
        {
          "internalType": "address",
          "name": "",
          "type": "address"
        }
      ],
      "name": "posterityWalletsIndexesFromHeir",
      "outputs": [
        {
          "internalType": "uint256",
          "name": "",
          "type": "uint256"
        }
      ],
      "stateMutability": "view",
      "type": "function"
    },
    {
      "inputs": [
        {
          "internalType": "address",
          "name": "addressHeir",
          "type": "address"
        },
        {
          "internalType": "address",
          "name": "addressPosterityWallet",
          "type": "address"
        }
      ],
      "name": "setPosterityWalletsFromHeir",
      "outputs": [],
      "stateMutability": "nonpayable",
      "type": "function"
    }
  ],
  "bytecode": "0x608060405234801561001057600080fd5b50611999806100206000396000f3fe60806040523480156200001157600080fd5b5060043610620000935760003560e01c8063c76023161162000062578063c76023161462000191578063e7b6992b14620001a8578063e969ba2814620001bf578063fadb1aa814620001fc57600080fd5b806335dabbf514620000985780633ee90d8314620000c75780635dfc7ec4146200010c5780639e93c45c1462000125575b600080fd5b620000af620000a93660046200042e565b6200022b565b604051620000be919062000453565b60405180910390f35b620000f3620000d83660046200042e565b6000602081905290815260409020546001600160a01b031681565b6040516001600160a01b039091168152602001620000be565b620001236200011d366004620004a2565b620002a3565b005b6200012362000136366004620004a2565b6001600160a01b0391821660008181526001602081815260408084208054938401815580855282852090930180546001600160a01b031916969097169586179096559282525460028352848220938252929091529190912055565b62000123620001a2366004620004f0565b62000333565b620000f3620001b9366004620005ab565b620003ca565b620001ed620001d0366004620004a2565b600260209081526000928352604080842090915290825290205481565b604051908152602001620000be565b620000f36200020d3660046200042e565b6001600160a01b039081166000908152602081905260409020541690565b6001600160a01b0381166000908152600160209081526040918290208054835181840281018401909452808452606093928301828280156200029757602002820191906000526020600020905b81546001600160a01b0316815260019091019060200180831162000278575b50505050509050919050565b6001600160a01b0380831660009081526001602081815260408084206002835281852095871685529490915290912054620002df9190620005d8565b81548110620002f257620002f262000600565b6000918252602080832090910180546001600160a01b03191690556001600160a01b0393841682526002815260408083209390941682529190915290812055565b60008133604051620003459062000403565b6200035292919062000616565b604051809103906000f0801580156200036f573d6000803e3d6000fd5b503360008181526020819052604080822080546001600160a01b0319166001600160a01b0386169081179091559051939450927f5ccb19c2108f45669ddcecfcc0be7bf8c689b929b4824749e5f3b1943be436159190a35050565b60016020528160005260406000208181548110620003e757600080fd5b6000918252602090912001546001600160a01b03169150829050565b6112eb806200067983390190565b80356001600160a01b03811681146200042957600080fd5b919050565b6000602082840312156200044157600080fd5b6200044c8262000411565b9392505050565b6020808252825182820181905260009190848201906040850190845b81811015620004965783516001600160a01b0316835292840192918401916001016200046f565b50909695505050505050565b60008060408385031215620004b657600080fd5b620004c18362000411565b9150620004d16020840162000411565b90509250929050565b634e487b7160e01b600052604160045260246000fd5b6000602082840312156200050357600080fd5b813567ffffffffffffffff808211156200051c57600080fd5b818401915084601f8301126200053157600080fd5b813581811115620005465762000546620004da565b604051601f8201601f19908116603f01168101908382118183101715620005715762000571620004da565b816040528281528760208487010111156200058b57600080fd5b826020860160208301376000928101602001929092525095945050505050565b60008060408385031215620005bf57600080fd5b620005ca8362000411565b946020939093013593505050565b81810381811115620005fa57634e487b7160e01b600052601160045260246000fd5b92915050565b634e487b7160e01b600052603260045260246000fd5b604081526000835180604084015260005b8181101562000646576020818701810151606086840101520162000627565b50600060608285018101919091526001600160a01b03949094166020840152601f01601f19169091019091019291505056fe60806040819052600080546001600160a01b03191673e971f47ea676bab72f727cc1466dbc3cd245b55a1781556001805460ff60a01b19169055600355620012eb388190039081908339810160408190526200005b91620000cd565b600262000069838262000244565b50600480546001600160a01b039092166001600160a01b031992831617905560018054909116331790555062000310565b634e487b7160e01b600052604160045260246000fd5b80516001600160a01b0381168114620000c857600080fd5b919050565b60008060408385031215620000e157600080fd5b82516001600160401b0380821115620000f957600080fd5b818501915085601f8301126200010e57600080fd5b8151818111156200012357620001236200009a565b604051601f8201601f19908116603f011681019083821181831017156200014e576200014e6200009a565b816040528281526020935088848487010111156200016b57600080fd5b600091505b828210156200018f578482018401518183018501529083019062000170565b6000848483010152809650505050620001aa818601620000b0565b925050509250929050565b600181811c90821680620001ca57607f821691505b602082108103620001eb57634e487b7160e01b600052602260045260246000fd5b50919050565b601f8211156200023f57600081815260208120601f850160051c810160208610156200021a5750805b601f850160051c820191505b818110156200023b5782815560010162000226565b5050505b505050565b81516001600160401b038111156200026057620002606200009a565b6200027881620002718454620001b5565b84620001f1565b602080601f831160018114620002b05760008415620002975750858301515b600019600386901b1c1916600185901b1785556200023b565b600085815260208120601f198616915b82811015620002e157888601518255948401946001909101908401620002c0565b5085821015620003005787850151600019600388901b60f8161c191681555b5050505050600190811b01905550565b610fcb80620003206000396000f3fe6080604052600436106100aa5760003560e01c80638f779201116100645780638f779201146101f1578063a1e32d4214610215578063a42cacd914610237578063a5636a3414610257578063b69ef8a81461026c578063c268317b1461028257600080fd5b8062f714ce146100e957806347c89ec6146101095780634eae51f41461011e57806365e6aca414610149578063789b4639146101885780638da5cb5b146101b957600080fd5b366100e457600154600160a01b900460ff16156100e25760405162461bcd60e51b81526004016100d990610be3565b60405180910390fd5b005b600080fd5b3480156100f557600080fd5b506100e2610104366004610c45565b610298565b34801561011557600080fd5b506100e26103cd565b34801561012a57600080fd5b50610133610451565b6040516101409190610c75565b60405180910390f35b34801561015557600080fd5b50610169610164366004610ccd565b6104c6565b604080516001600160a01b039093168352602083019190915201610140565b34801561019457600080fd5b506001546101a990600160a01b900460ff1681565b6040519015158152602001610140565b3480156101c557600080fd5b506004546101d9906001600160a01b031681565b6040516001600160a01b039091168152602001610140565b3480156101fd57600080fd5b5061020760055481565b604051908152602001610140565b34801561022157600080fd5b5061022a6104fe565b6040516101409190610d0a565b34801561024357600080fd5b506100e2610252366004610d3d565b610590565b34801561026357600080fd5b506100e261093c565b34801561027857600080fd5b5061020760065481565b34801561028e57600080fd5b5061020760035481565b6004546001600160a01b031633146102f25760405162461bcd60e51b815260206004820181905260248201527f4f776e61626c653a2063616c6c6572206973206e6f7420746865206f776e657260448201526064016100d9565b478211156103685760405162461bcd60e51b815260206004820152603a60248201527f546865207769746864726177616c20616d6f756e74206973206772656174657260448201527f207468616e2074686520436f6e74726163742062616c616e636500000000000060648201526084016100d9565b600154600160a01b900460ff16156103925760405162461bcd60e51b81526004016100d990610be3565b6040516001600160a01b0382169083156108fc029084906000818181858888f193505050501580156103c8573d6000803e3d6000fd5b505050565b60006103d76104fe565b6000546040516380e6b20f60e01b81529192506001600160a01b0316906380e6b20f90610408908490600401610d0a565b6020604051808303816000875af1158015610427573d6000803e3d6000fd5b505050506040513d601f19601f8201168201806040525081019061044b9190610db2565b60055550565b60606007805480602002602001604051908101604052809291908181526020016000905b828210156104bd576000848152602090819020604080518082019091526002850290910180546001600160a01b03168252600190810154828401529083529092019101610475565b50505050905090565b600781815481106104d657600080fd5b6000918252602090912060029091020180546001909101546001600160a01b03909116915082565b60606002805461050d90610dcb565b80601f016020809104026020016040519081016040528092919081815260200182805461053990610dcb565b80156105865780601f1061055b57610100808354040283529160200191610586565b820191906000526020600020905b81548152906001019060200180831161056957829003601f168201915b5050505050905090565b6004546001600160a01b031633146105ea5760405162461bcd60e51b815260206004820181905260248201527f4f776e61626c653a2063616c6c6572206973206e6f7420746865206f776e657260448201526064016100d9565b600060038190555b8181101561063f5782828281811061060c5761060c610e05565b90506040020160200135600360008282546106279190610e31565b9091555081905061063781610e4a565b9150506105f2565b506063600354101580156106565750606460035411155b6106b15760405162461bcd60e51b815260206004820152602660248201527f596f75206e65656420746f20636f6d706c657465203130302520646973747269604482015265313aba34b7b760d11b60648201526084016100d9565b60005b6007548110156107b05760086000600783815481106106d5576106d5610e05565b600091825260208083206002909202909101546001600160a01b0390811684529083019390935260409091019020805460ff19169055600154600780549190921691635dfc7ec4918490811061072d5761072d610e05565b600091825260209091206002909102015460405160e083901b6001600160e01b03191681526001600160a01b039091166004820152306024820152604401600060405180830381600087803b15801561078557600080fd5b505af1158015610799573d6000803e3d6000fd5b5050505080806107a890610e4a565b9150506106b4565b506107bd60076000610b95565b60005b818110156103c8578282828181106107da576107da610e05565b90506040020160200135600360008282546107f59190610e31565b909155506007905083838381811061080f5761080f610e05565b83546001810185556000948552602090942060409091029290920192600202909101905061083d8282610e63565b50506001600860006007848154811061085857610858610e05565b60009182526020808320600292909202909101546001600160a01b0390811684529083019390935260409091019020805460ff191692151592909217909155600154600780549190921691639e93c45c91849081106108b9576108b9610e05565b600091825260209091206002909102015460405160e083901b6001600160e01b03191681526001600160a01b039091166004820152306024820152604401600060405180830381600087803b15801561091157600080fd5b505af1158015610925573d6000803e3d6000fd5b50505050808061093490610e4a565b9150506107c0565b600154600160a01b900460ff16156109a25760405162461bcd60e51b815260206004820152602360248201527f546869732073756363657373696f6e2068617320616c726561647920737461726044820152621d195960ea1b60648201526084016100d9565b60008054600554604051634c6b25b160e01b81526001600160a01b0390921691634c6b25b1916109d89160040190815260200190565b600060405180830381865afa1580156109f5573d6000803e3d6000fd5b505050506040513d6000823e601f3d908101601f19168201604052610a1d9190810190610eaf565b60408051808201909152600981526843616e63656c61646160b81b602080830191909152825190830120919250907f280fc0a57a2ba220425265cbd3e41f291af6a7ed7f6b84407654150f6f383df014610ab95760405162461bcd60e51b815260206004820152601860248201527f556e61626c6520746f2073746172742070726f746f636f6c000000000000000060448201526064016100d9565b6001805460ff60a01b1916600160a01b179055610ad4610ad8565b5050565b476006556000805b600754811015610ad457606460078281548110610aff57610aff610e05565b906000526020600020906002020160010154600654610b1e9190610f5c565b610b289190610f73565b915060078181548110610b3d57610b3d610e05565b600091825260208220600290910201546040516001600160a01b039091169184156108fc02918591818181858888f19350505050158015610b82573d6000803e3d6000fd5b5080610b8d81610e4a565b915050610ae0565b5080546000825560020290600052602060002090810190610bb69190610bb9565b50565b5b80821115610bdf5780546001600160a01b031916815560006001820155600201610bba565b5090565b6020808252602d908201527f506f737465726974792053756363657373696f6e2068617320616c726561647960408201526c081899595b881cdd185c9d1959609a1b606082015260800190565b6001600160a01b0381168114610bb657600080fd5b60008060408385031215610c5857600080fd5b823591506020830135610c6a81610c30565b809150509250929050565b602080825282518282018190526000919060409081850190868401855b82811015610cc057815180516001600160a01b03168552860151868501529284019290850190600101610c92565b5091979650505050505050565b600060208284031215610cdf57600080fd5b5035919050565b60005b83811015610d01578181015183820152602001610ce9565b50506000910152565b6020815260008251806020840152610d29816040850160208701610ce6565b601f01601f19169190910160400192915050565b60008060208385031215610d5057600080fd5b823567ffffffffffffffff80821115610d6857600080fd5b818501915085601f830112610d7c57600080fd5b813581811115610d8b57600080fd5b8660208260061b8501011115610da057600080fd5b60209290920196919550909350505050565b600060208284031215610dc457600080fd5b5051919050565b600181811c90821680610ddf57607f821691505b602082108103610dff57634e487b7160e01b600052602260045260246000fd5b50919050565b634e487b7160e01b600052603260045260246000fd5b634e487b7160e01b600052601160045260246000fd5b80820180821115610e4457610e44610e1b565b92915050565b600060018201610e5c57610e5c610e1b565b5060010190565b8135610e6e81610c30565b81546001600160a01b0319166001600160a01b03919091161781556020919091013560019190910155565b634e487b7160e01b600052604160045260246000fd5b600060208284031215610ec157600080fd5b815167ffffffffffffffff80821115610ed957600080fd5b818401915084601f830112610eed57600080fd5b815181811115610eff57610eff610e99565b604051601f8201601f19908116603f01168101908382118183101715610f2757610f27610e99565b81604052828152876020848701011115610f4057600080fd5b610f51836020830160208801610ce6565b979650505050505050565b8082028115828204841417610e4457610e44610e1b565b600082610f9057634e487b7160e01b600052601260045260246000fd5b50049056fea2646970667358221220d3e603c6e0526f9c2e6835f3b9ea47a4ead0936fa3611aec65282a12804736a164736f6c63430008110033a2646970667358221220f992ae4d9242e120a1fab0a2d4096bbbb79eba47a68016619226532d214afca064736f6c63430008110033",
  "linkReferences": {},
  "deployedLinkReferences": {}
}