{
  "_format": "hh-sol-artifact-1",
  "contractName": "PosterityWalletFactory",
  "sourceName": "contracts/factoryPosterityWallet.sol",
  "abi": [
    {
      "inputs": [],
      "stateMutability": "nonpayable",
      "type": "constructor"
    },
    {
      "anonymous": false,
      "inputs": [
        {
          "indexed": true,
          "internalType": "address",
          "name": "_owner",
          "type": "address"
        },
        {
          "indexed": true,
          "internalType": "address",
          "name": "_newWallet",
          "type": "address"
        }
      ],
      "name": "NewPosteriryWallet",
      "type": "event"
    },
    {
      "inputs": [
        {
          "internalType": "address",
          "name": "addressHeir",
          "type": "address"
        },
        {
          "internalType": "address",
          "name": "addressPosterityWallet",
          "type": "address"
        }
      ],
      "name": "deletePosterityWalletFromHeir",
      "outputs": [],
      "stateMutability": "nonpayable",
      "type": "function"
    },
    {
      "inputs": [
        {
          "internalType": "string",
          "name": "taxID",
          "type": "string"
        }
      ],
      "name": "deploy",
      "outputs": [],
      "stateMutability": "nonpayable",
      "type": "function"
    },
    {
      "inputs": [
        {
          "internalType": "address",
          "name": "userAddress",
          "type": "address"
        }
      ],
      "name": "getPosterityWallet",
      "outputs": [
        {
          "internalType": "address",
          "name": "",
          "type": "address"
        }
      ],
      "stateMutability": "view",
      "type": "function"
    },
    {
      "inputs": [
        {
          "internalType": "address",
          "name": "addressHeir",
          "type": "address"
        }
      ],
      "name": "getPosterityWalletsFromHeir",
      "outputs": [
        {
          "internalType": "address[]",
          "name": "",
          "type": "address[]"
        }
      ],
      "stateMutability": "view",
      "type": "function"
    },
    {
      "inputs": [
        {
          "internalType": "address",
          "name": "",
          "type": "address"
        }
      ],
      "name": "posterityWallets",
      "outputs": [
        {
          "internalType": "address",
          "name": "",
          "type": "address"
        }
      ],
      "stateMutability": "view",
      "type": "function"
    },
    {
      "inputs": [
        {
          "internalType": "address",
          "name": "",
          "type": "address"
        },
        {
          "internalType": "uint256",
          "name": "",
          "type": "uint256"
        }
      ],
      "name": "posterityWalletsFromHeir",
      "outputs": [
        {
          "internalType": "address",
          "name": "",
          "type": "address"
        }
      ],
      "stateMutability": "view",
      "type": "function"
    },
    {
      "inputs": [
        {
          "internalType": "address",
          "name": "",
          "type": "address"
        },
        {
          "internalType": "address",
          "name": "",
          "type": "address"
        }
      ],
      "name": "posterityWalletsIndexesFromHeir",
      "outputs": [
        {
          "internalType": "uint256",
          "name": "",
          "type": "uint256"
        }
      ],
      "stateMutability": "view",
      "type": "function"
    },
    {
      "inputs": [
        {
          "internalType": "address",
          "name": "addressHeir",
          "type": "address"
        },
        {
          "internalType": "address",
          "name": "addressPosterityWallet",
          "type": "address"
        }
      ],
      "name": "setPosterityWalletsFromHeir",
      "outputs": [],
      "stateMutability": "nonpayable",
      "type": "function"
    }
  ],
  "bytecode": "0x608060405234801561001057600080fd5b50611a5e806100206000396000f3fe60806040523480156200001157600080fd5b5060043610620000935760003560e01c8063c76023161162000062578063c76023161462000191578063e7b6992b14620001a8578063e969ba2814620001bf578063fadb1aa814620001fc57600080fd5b806335dabbf514620000985780633ee90d8314620000c75780635dfc7ec4146200010c5780639e93c45c1462000125575b600080fd5b620000af620000a93660046200042e565b6200022b565b604051620000be919062000453565b60405180910390f35b620000f3620000d83660046200042e565b6000602081905290815260409020546001600160a01b031681565b6040516001600160a01b039091168152602001620000be565b620001236200011d366004620004a2565b620002a3565b005b6200012362000136366004620004a2565b6001600160a01b0391821660008181526001602081815260408084208054938401815580855282852090930180546001600160a01b031916969097169586179096559282525460028352848220938252929091529190912055565b62000123620001a2366004620004f0565b62000333565b620000f3620001b9366004620005ab565b620003ca565b620001ed620001d0366004620004a2565b600260209081526000928352604080842090915290825290205481565b604051908152602001620000be565b620000f36200020d3660046200042e565b6001600160a01b039081166000908152602081905260409020541690565b6001600160a01b0381166000908152600160209081526040918290208054835181840281018401909452808452606093928301828280156200029757602002820191906000526020600020905b81546001600160a01b0316815260019091019060200180831162000278575b50505050509050919050565b6001600160a01b0380831660009081526001602081815260408084206002835281852095871685529490915290912054620002df9190620005d8565b81548110620002f257620002f262000600565b6000918252602080832090910180546001600160a01b03191690556001600160a01b0393841682526002815260408083209390941682529190915290812055565b60008133604051620003459062000403565b6200035292919062000616565b604051809103906000f0801580156200036f573d6000803e3d6000fd5b503360008181526020819052604080822080546001600160a01b0319166001600160a01b0386169081179091559051939450927f5ccb19c2108f45669ddcecfcc0be7bf8c689b929b4824749e5f3b1943be436159190a35050565b60016020528160005260406000208181548110620003e757600080fd5b6000918252602090912001546001600160a01b03169150829050565b6113b0806200067983390190565b80356001600160a01b03811681146200042957600080fd5b919050565b6000602082840312156200044157600080fd5b6200044c8262000411565b9392505050565b6020808252825182820181905260009190848201906040850190845b81811015620004965783516001600160a01b0316835292840192918401916001016200046f565b50909695505050505050565b60008060408385031215620004b657600080fd5b620004c18362000411565b9150620004d16020840162000411565b90509250929050565b634e487b7160e01b600052604160045260246000fd5b6000602082840312156200050357600080fd5b813567ffffffffffffffff808211156200051c57600080fd5b818401915084601f8301126200053157600080fd5b813581811115620005465762000546620004da565b604051601f8201601f19908116603f01168101908382118183101715620005715762000571620004da565b816040528281528760208487010111156200058b57600080fd5b826020860160208301376000928101602001929092525095945050505050565b60008060408385031215620005bf57600080fd5b620005ca8362000411565b946020939093013593505050565b81810381811115620005fa57634e487b7160e01b600052601160045260246000fd5b92915050565b634e487b7160e01b600052603260045260246000fd5b604081526000835180604084015260005b8181101562000646576020818701810151606086840101520162000627565b50600060608285018101919091526001600160a01b03949094166020840152601f01601f19169091019091019291505056fe60806040819052600080546001600160a01b031916738160631dea1b5bce247ad65b49fb02500bdac3c01781556001805460ff60a01b19169055600355620013b0388190039081908339810160408190526200005b91620000cd565b600262000069838262000244565b50600480546001600160a01b039092166001600160a01b031992831617905560018054909116331790555062000310565b634e487b7160e01b600052604160045260246000fd5b80516001600160a01b0381168114620000c857600080fd5b919050565b60008060408385031215620000e157600080fd5b82516001600160401b0380821115620000f957600080fd5b818501915085601f8301126200010e57600080fd5b8151818111156200012357620001236200009a565b604051601f8201601f19908116603f011681019083821181831017156200014e576200014e6200009a565b816040528281526020935088848487010111156200016b57600080fd5b600091505b828210156200018f578482018401518183018501529083019062000170565b6000848483010152809650505050620001aa818601620000b0565b925050509250929050565b600181811c90821680620001ca57607f821691505b602082108103620001eb57634e487b7160e01b600052602260045260246000fd5b50919050565b601f8211156200023f57600081815260208120601f850160051c810160208610156200021a5750805b601f850160051c820191505b818110156200023b5782815560010162000226565b5050505b505050565b81516001600160401b038111156200026057620002606200009a565b6200027881620002718454620001b5565b84620001f1565b602080601f831160018114620002b05760008415620002975750858301515b600019600386901b1c1916600185901b1785556200023b565b600085815260208120601f198616915b82811015620002e157888601518255948401946001909101908401620002c0565b5085821015620003005787850151600019600388901b60f8161c191681555b5050505050600190811b01905550565b61109080620003206000396000f3fe6080604052600436106100e05760003560e01c8063789b46391161007f578063a1e32d4211610059578063a1e32d4214610293578063a42cacd9146102b5578063b69ef8a8146102d5578063c268317b146102eb57600080fd5b8063789b4639146102145780638da5cb5b146102455780638f7792011461027d57600080fd5b80634eae51f4116100bb5780634eae51f41461017d5780635a7633ef1461019f5780635ebce1ce146101b557806365e6aca4146101d557600080fd5b8062f714ce1461011f578063289eaf4e1461013f57806347c89ec61461016857600080fd5b3661011a57600154600160a01b900460ff16156101185760405162461bcd60e51b815260040161010f90610c88565b60405180910390fd5b005b600080fd5b34801561012b57600080fd5b5061011861013a366004610cea565b610301565b34801561014b57600080fd5b5061015560065481565b6040519081526020015b60405180910390f35b34801561017457600080fd5b50610118610436565b34801561018957600080fd5b506101926104ba565b60405161015f9190610d1a565b3480156101ab57600080fd5b5061015560075481565b3480156101c157600080fd5b506101186101d0366004610d88565b61052f565b3480156101e157600080fd5b506101f56101f0366004610e39565b61070b565b604080516001600160a01b03909316835260208301919091520161015f565b34801561022057600080fd5b5060015461023590600160a01b900460ff1681565b604051901515815260200161015f565b34801561025157600080fd5b50600454610265906001600160a01b031681565b6040516001600160a01b03909116815260200161015f565b34801561028957600080fd5b5061015560055481565b34801561029f57600080fd5b506102a8610743565b60405161015f9190610e76565b3480156102c157600080fd5b506101186102d0366004610ea9565b6107d5565b3480156102e157600080fd5b5061015560085481565b3480156102f757600080fd5b5061015560035481565b6004546001600160a01b0316331461035b5760405162461bcd60e51b815260206004820181905260248201527f4f776e61626c653a2063616c6c6572206973206e6f7420746865206f776e6572604482015260640161010f565b478211156103d15760405162461bcd60e51b815260206004820152603a60248201527f546865207769746864726177616c20616d6f756e74206973206772656174657260448201527f207468616e2074686520436f6e74726163742062616c616e6365000000000000606482015260840161010f565b600154600160a01b900460ff16156103fb5760405162461bcd60e51b815260040161010f90610c88565b6040516001600160a01b0382169083156108fc029084906000818181858888f19350505050158015610431573d6000803e3d6000fd5b505050565b6000610440610743565b6000546040516380e6b20f60e01b81529192506001600160a01b0316906380e6b20f90610471908490600401610e76565b6020604051808303816000875af1158015610490573d6000803e3d6000fd5b505050506040513d601f19601f820116820180604052508101906104b49190610f1e565b60055550565b60606009805480602002602001604051908101604052809291908181526020016000905b82821015610526576000848152602090819020604080518082019091526002850290910180546001600160a01b031682526001908101548284015290835290920191016104de565b50505050905090565b600154600160a01b900460ff16156105955760405162461bcd60e51b815260206004820152602360248201527f546869732073756363657373696f6e2068617320616c726561647920737461726044820152621d195960ea1b606482015260840161010f565b738160631dea1b5bce247ad65b49fb02500bdac3c0331461060c5760405162461bcd60e51b815260206004820152602b60248201527f4f6e6c79204f7261636c6520636f6e74726163742063616e2063616c6c20746860448201526a34b990333ab731ba34b7b760a91b606482015260840161010f565b8051602080830191909120600655604080518082018252600981526843616e63656c61646160b81b9201919091527f280fc0a57a2ba220425265cbd3e41f291af6a7ed7f6b84407654150f6f383df06007555161066a908290610f37565b604051908190038120907ff59622fba0bcc23477b05d2469f8263030c848ecc3d29e5fd4d959c5f1c865ee90600090a2600754600654146106ed5760405162461bcd60e51b815260206004820152601860248201527f556e61626c6520746f2073746172742070726f746f636f6c0000000000000000604482015260640161010f565b6001805460ff60a01b1916600160a01b179055610708610b81565b50565b6009818154811061071b57600080fd5b6000918252602090912060029091020180546001909101546001600160a01b03909116915082565b60606002805461075290610f53565b80601f016020809104026020016040519081016040528092919081815260200182805461077e90610f53565b80156107cb5780601f106107a0576101008083540402835291602001916107cb565b820191906000526020600020905b8154815290600101906020018083116107ae57829003601f168201915b5050505050905090565b6004546001600160a01b0316331461082f5760405162461bcd60e51b815260206004820181905260248201527f4f776e61626c653a2063616c6c6572206973206e6f7420746865206f776e6572604482015260640161010f565b600060038190555b818110156108845782828281811061085157610851610f8d565b905060400201602001356003600082825461086c9190610fb9565b9091555081905061087c81610fd2565b915050610837565b5060636003541015801561089b5750606460035411155b6108f65760405162461bcd60e51b815260206004820152602660248201527f596f75206e65656420746f20636f6d706c657465203130302520646973747269604482015265313aba34b7b760d11b606482015260840161010f565b60005b6009548110156109f557600a60006009838154811061091a5761091a610f8d565b600091825260208083206002909202909101546001600160a01b0390811684529083019390935260409091019020805460ff19169055600154600980549190921691635dfc7ec4918490811061097257610972610f8d565b600091825260209091206002909102015460405160e083901b6001600160e01b03191681526001600160a01b039091166004820152306024820152604401600060405180830381600087803b1580156109ca57600080fd5b505af11580156109de573d6000803e3d6000fd5b5050505080806109ed90610fd2565b9150506108f9565b50610a0260096000610c42565b60005b8181101561043157828282818110610a1f57610a1f610f8d565b9050604002016020013560036000828254610a3a9190610fb9565b9091555060099050838383818110610a5457610a54610f8d565b835460018101855560009485526020909420604090910292909201926002029091019050610a828282610feb565b50506001600a600060098481548110610a9d57610a9d610f8d565b60009182526020808320600292909202909101546001600160a01b0390811684529083019390935260409091019020805460ff191692151592909217909155600154600980549190921691639e93c45c9184908110610afe57610afe610f8d565b600091825260209091206002909102015460405160e083901b6001600160e01b03191681526001600160a01b039091166004820152306024820152604401600060405180830381600087803b158015610b5657600080fd5b505af1158015610b6a573d6000803e3d6000fd5b505050508080610b7990610fd2565b915050610a05565b476008556000805b600954811015610c3e57606460098281548110610ba857610ba8610f8d565b906000526020600020906002020160010154600854610bc79190611021565b610bd19190611038565b915060098181548110610be657610be6610f8d565b600091825260208220600290910201546040516001600160a01b039091169184156108fc02918591818181858888f19350505050158015610c2b573d6000803e3d6000fd5b5080610c3681610fd2565b915050610b89565b5050565b508054600082556002029060005260206000209081019061070891905b80821115610c845780546001600160a01b031916815560006001820155600201610c5f565b5090565b6020808252602d908201527f506f737465726974792053756363657373696f6e2068617320616c726561647960408201526c081899595b881cdd185c9d1959609a1b606082015260800190565b6001600160a01b038116811461070857600080fd5b60008060408385031215610cfd57600080fd5b823591506020830135610d0f81610cd5565b809150509250929050565b602080825282518282018190526000919060409081850190868401855b82811015610d6557815180516001600160a01b03168552860151868501529284019290850190600101610d37565b5091979650505050505050565b634e487b7160e01b600052604160045260246000fd5b600060208284031215610d9a57600080fd5b813567ffffffffffffffff80821115610db257600080fd5b818401915084601f830112610dc657600080fd5b813581811115610dd857610dd8610d72565b604051601f8201601f19908116603f01168101908382118183101715610e0057610e00610d72565b81604052828152876020848701011115610e1957600080fd5b826020860160208301376000928101602001929092525095945050505050565b600060208284031215610e4b57600080fd5b5035919050565b60005b83811015610e6d578181015183820152602001610e55565b50506000910152565b6020815260008251806020840152610e95816040850160208701610e52565b601f01601f19169190910160400192915050565b60008060208385031215610ebc57600080fd5b823567ffffffffffffffff80821115610ed457600080fd5b818501915085601f830112610ee857600080fd5b813581811115610ef757600080fd5b8660208260061b8501011115610f0c57600080fd5b60209290920196919550909350505050565b600060208284031215610f3057600080fd5b5051919050565b60008251610f49818460208701610e52565b9190910192915050565b600181811c90821680610f6757607f821691505b602082108103610f8757634e487b7160e01b600052602260045260246000fd5b50919050565b634e487b7160e01b600052603260045260246000fd5b634e487b7160e01b600052601160045260246000fd5b80820180821115610fcc57610fcc610fa3565b92915050565b600060018201610fe457610fe4610fa3565b5060010190565b8135610ff681610cd5565b81546001600160a01b0319166001600160a01b03919091161781556020919091013560019190910155565b8082028115828204841417610fcc57610fcc610fa3565b60008261105557634e487b7160e01b600052601260045260246000fd5b50049056fea2646970667358221220b7cc3a4c75c01344788f9180bc38a888413332069a864ecb136b009febb1cfdb64736f6c63430008110033a2646970667358221220873733db2ef21a72161a78db5d8546c256aca669f224602a3608e77cd7f605de64736f6c63430008110033",
  "linkReferences": {},
  "deployedLinkReferences": {}
}